:100000000C944B000C94252C0C94252C0C94301D36
:100010000C94252C0C94252C0C94252C0C94252C1C
:100020000C94252C0C94252C0C94252C0C94252C0C
:100030000C94252C0C94252C0C94252C0C94252CFC
:100040000C94252C0C94252C0C94252C0C94252CEC
:100050000C94252C0C94252C0C94252C0C94252CDC
:100060000C94252C0C94252C0C94252C0C94252CCC
:100070000C94252C0C94252C0C94252C0C94252CBC
:100080000C94252C0C94252C0C94252C0C94252CAC
:1000900030003241800011241FBECFEFCDBFDFE31F
:1000A000DEBFE0E9F0E040E017C0B591A5913591E1
:1000B0002591059107FD0CC095918591EF01F92FD0
:1000C000E82F05900D92A217B307D9F7FE0104C0DF
:1000D0001D92A217B307E1F7E539F40731F70E9443
:0A00E00015220C942F2BF894FFCF8B
:1000EA00A1E9B1E0EBE7F0E00C9492297C015A0116
:1000FA00C257DE4F68837983CE58D140C457DE4F4A
:10010A0018821982CC58D140612C712C6E012EE7CD
:10011A00C21A2EEFD20A8EE891E08C0F9D1F029729
:10012A00C057DE4F88839983C059D140C257DE4FEA
:10013A00E881F981CE58D1408081882309F481C3AE
:10014A008AE0D6011D928A95E9F782E091E08C0F48
:10015A009D1FF60186839783A0E8B0E0A087B18748
:10016A00BE0162577E4FC7010E94AF268C01C2575B
:10017A00DE4FE881F981CE58D1408081811113C0C8
:10018A00C457DE4F88819981CC58D140080F191F76
:10019A00C457DE4F08831983CC58D14080818532F9
:1001AA0009F038C33FC0853259F3C7010E949F2323
:1001BA004C010196A1F0C257DE4FE881F981CE5871
:1001CA00D1408081082E000C990B8816990639F0C7
:1001DA00B701C4010E9491288EEF9FEF26C3C4572E
:1001EA00DE4F88819981CC58D1400196C457DE4FA1
:1001FA0088839983CC58D140C257DE4F8881998130
:10020A00CE58D1400196C257DE4F88839983CE5883
:10021A00D140BE0162577E4FC7010E94AF26080F28
:10022A00191FA5CFCF010196C257DE4F8883998344
:10023A00CE58D140D60114961D921C9215978181F1
:10024A008A3251F43296C257DE4FE883F983CE5888
:10025A00D14001E010E002C000E010E0C257DE4FDA
:10026A0088819981CE58D1400E944F25F601848316
:10027A009583C257DE4FE881F981CE58D1408081FB
:10028A00082E000C990BC0970A9740F43196C25772
:10029A00DE4FE883F983CE58D140EBCFCE018257A7
:1002AA009E4F0E945128582EC257DE4FE881F9818D
:1002BA00CE58D1408081082E000C990B0E94BA2B8F
:1002CA00883691052CF5853691050CF0EEC08136FD
:1002DA00910509F4EAC04CF48532910509F465C127
:1002EA008B35910509F48DC188C28336910509F4CD
:1002FA0001C18436910509F080C29E0124573E4F00
:10030A00A601BE016F5F7F4FC7010E94582724C014
:10031A008037910509F472C0A4F48E36910509F468
:10032A0094C0F4F58936910509F067C29E012457F5
:10033A003E4FA601BE016F5F7F4FC7010E9425177E
:10034A000BC08537910509F188379105A1F18337EB
:10035A00910509F052C200C197FD67C2C257DE4F2C
:10036A0088819981CE58D1400196C257DE4F888341
:10037A009983CE58D1400115110509F03FC1652D69
:10038A0070E0950141E050E05BC09E0124573E4F6A
:10039A00A601BE016F5F7F4FC7010E947E2715C06D
:1003AA009E0124573E4FA601BE016F5F7F4FC701D2
:1003BA000E94CC1F0AC09E0124573E4FA601BE01CF
:1003CA006F5F7F4FC7010E94EA1A97FD2EC2C2577C
:1003DA00DE4F88819981CE58D1400196C257DE4FAF
:1003EA0088839983CE58D1400115110509F006C1B9
:1003FA00652D70E0950140E050E022C09E0124572F
:10040A003E4FA601BE016F5F7F4FC7010E94EA1AE5
:10041A0097FD0BC2C257DE4F88819981CE58D140D1
:10042A000196C257DE4F88839983CE58D140011571
:10043A00110509F0E3C0950140E050E060EF70E07B
:10044A00CE0101960E94911BF0C1C257DE4F8881EE
:10045A009981CE58D1400196C257DE4F888399833D
:10046A00CE58D140C357DE4F9881CD58D140C4579A
:10047A00DE4F2881CC58D140892F880F880B2983D9
:10048A009A838B838C838D838E838F8388870115D0
:10049A00110509F0B3C0652D70E0950140E050E008
:1004AA00CE0101960E94911BA9C09E0124573E4F7E
:1004BA00A601BE016F5F7F4FC7010E94491297FDD7
:1004CA00B4C1C257DE4F88819981CE58D140019676
:1004DA00C257DE4F88839983CE58D1400115110542
:1004EA0009F08CC0652D70E0A501CE0101960E942D
:1004FA00C0259BC1F0E85F1280C1D60114968D9188
:10050A009C911597892B31F481E090E014968D9394
:10051A009C931597C257DE4F88819981CE58D14056
:10052A000196C257DE4F88839983CE58D140012B5A
:10053A0059F4D501ED91FC911197CF0102968D9353
:10054A009C930081118102C000E010E09E012457B3
:10055A003E4F40E050E024C0B0E85B124EC1C257A3
:10056A00DE4F88819981CE58D1400196C257DE4F1D
:10057A0088839983CE58D140012B59F4D501ED9146
:10058A00FC911197CF0102968D939C930081118162
:10059A0002C000E010E09E0124573E4F41E050E0C7
:1005AA00B601C7010E94062140C1B0E85B1225C10D
:1005BA00C257DE4F88819981CE58D1400196C257E1
:1005CA00DE4F88839983CE58D140C7010E949F236A
:1005DA008532910581F4C457DE4F88819981CC58C0
:1005EA00D1400196C457DE4F88839983CC58D140B5
:1005FA0081E090E01AC1B7010E94912880E090E062
:10060A0014C1E0E85E12F9C0012B59F4D501ED914D
:10061A00FC911197CF0102968D939C9300811181D1
:10062A0002C000E010E0C257DE4FE881F981CE58DF
:10063A00D140CF010196C257DE4F88839983CE58A5
:10064A00D14081818E3551F43296C257DE4FE8830C
:10065A00F983CE58D1409924939401C0912C41E05A
:10066A0051E0692D70E0CE0101960E946D2B19822E
:10067A00C257DE4FE881F981CE58D14080818D3250
:10068A0069F43196C257DE4FE883F983CE58D140D8
:10069A0081E089198FA741E049192AC08D35D9F718
:1006AA003196C257DE4FE883F983CE58D14081E0B4
:1006BA008919A0968FAFA097EECF882309F44DC071
:1006CA008D3201F1C257DE4FE881F981CE58D1400F
:1006DA008191A2E0B0E0AC0FBD1FA80FB11D87FD4C
:1006EA00BA954C93C257DE4FE883F983CE58D1406E
:1006FA00C257DE4FE881F981CE58D14080818D35CD
:10070A00E1F62BC0C057DE4FA881B981C059D1404C
:10071A008C918823B9F28D35A9F2CF010196C2577F
:10072A00DE4F88839983CE58D1408D919C91DC010C
:10073A008C91082E000C990B2181022E000C330B90
:10074A00821793070CF0BECF0196A1E0B0E0AC0F80
:10075A00BD1FA80FB91F4C93EFCF0115110511F159
:10076A0018012101401A510AC7010E949F234C0116
:10077A00E2E0F0E0EC0FFD1FE80FF91F808188230B
:10078A0071F1F10181921F01C457DE4F888199816D
:10079A00CC58D1400196C457DE4F88839983CC58F0
:1007AA00D140DFCFC7010E949F234C01E2E0F0E075
:1007BA00EC0FFD1FE80FF91F8081882371F0C457E1
:1007CA00DE4F88819981CC58D1400196C457DE4FBB
:1007DA0088839983CC58D140E5CF412C512CB7015D
:1007EA00C4010E9491284114510439F001151105E0
:1007FA0021F0F801E40DF51D1082C257DE4F888101
:10080A009981CE58D1400196C257DE4F8883998389
:10081A00CE58D14081E090E0FFEF8F169F0611F08D
:10082A0080E090E091958195910997FD03C0680E4B
:10083A00791E7CCC8F3F2FEF920719F46114710453
:0E084A0009F0C301CF56DE4FE2E10C94F32912
:10085800A8E0B0E0E2E3F4E00C949229FB013097C1
:1008680011F0808391839C012F833887D9018C9163
:100878002F5F3F4F082E000C990B80329105A1F392
:10088800AC01495051094530510570F38D3291053D
:1008980029F42F8338875524539405C08B9711F476
:1008A8002F833887512C80E0282F082E000C330B1B
:1008B800AF81B885A20FB31F9C91992371F0D9011C
:1008C800A450BA464C91941302C08F5FEDCFD90162
:1008D800AB5FB9462C919217C1F3833010F430E026
:1008E80017C0309709F43AC3883009F083E02F81A4
:1008F8003885280F311D87FD3A95208331832EC313
:10090800AC01425F5946DA014C9124130EC03F5F97
:10091800832F032E000C990B6F817885680F791F40
:10092800DB012C912111ECCF06C08E5E9946DC01CB
:100938008C91281761F3333011F0412C1BC030978C
:1009480009F413C3283299F420E0822F022E000CF8
:10095800990B8B01080F191FD8013C91332339F0EB
:10096800393211F02F5FF1CF0196680F791F60833C
:100978007183FBC2242D042C000C330B29833A838A
:10098800D9014F815885A40FB51F8C91803311F47C
:100998004394F0CF3F01442019F08F7D883541F012
:1009A80060E070E0CB01E12CF12C00E010E0ABC17D
:1009B80009811A810F5F1F4F8F819885080F191FB2
:1009C800D8018C91082E000C990B0E941F2A892BA4
:1009D80029F4F80180818E3209F02AC12224239457
:1009E800240CEF81F885E20DF11D27FCFA95808132
:1009F800803311F42394F5CF812C912C5401E12CF0
:100A0800F12C00E010E0322C3E0C232D032C000CBE
:100A1800330B2B833C8369014F815885C40ED51E47
:100A2800D6018C91982F9F7D903509F49AC08E320B
:100A380039F4B52DB0615B2EDD24D394D30C3CC0C2
:100A4800082E000C990B0E941F2A892B09F4E9C073
:100A5800F6014081842F042E000C990B9C01205331
:100A680031092A30310518F480ED840F03C00E9443
:100A7800762B8753F8E0EF16F10494F490E0A0E0A9
:100A8800B0E02CE130E0201B310B04C0880F991F27
:100A9800AA1FBB1F2A95D2F7882A992AAA2ABB2AF5
:100AA8002FEFE21AF20A0C5F1F4FADCFE114F104E9
:100AB80089F404501109D3942D2C0D2C000C330803
:100AC8004F815885420D531D4D835E83DA018C9109
:100AD800803361F3082E000C990B0E941F2A892B82
:100AE80089F1AD81BE814C91842F042E000C990BA5
:100AF8009C01205331092A30310518F480ED840F08
:100B080003C00E94762B8753B8E0EB16F104B4F4C7
:100B180090E0A0E0B0E027E030E02E193F09220F76
:100B2800331F220F331F04C0880F991FAA1FBB1F32
:100B38002A95D2F7882A992AAA2ABB2AEFEFEE1A11
:100B4800FE0AB9CF8B819C8101962816390651F48B
:100B580089819A8101962B813C812817390711F4E4
:100B680063C0D32CEF81F885ED0DF11DD7FCFA9504
:100B7800EF83F88780818F7D803509F054C08181AB
:100B88008B3229F08D3229F4F52DF8605F2E82E042
:100B980001C081E0EF81F885E80FF11D8081082E02
:100BA800000C990BC097412C0A9708F03DC0DF0153
:100BB800A40DB11D47FCBA958C91803311F4439470
:100BC800F6CF80E090E06AE0DF01A40DB11D47FC9C
:100BD800BA952C91022E000C330BA90140535109F0
:100BE8004A30510570F4442031F0AC01649FC001D3
:100BF800659F900D112420533109820F931F439450
:100C0800E3CF411004C060E070E0CB01C4C153FEE3
:100C180003C0919581959109080F191FEF83F887F3
:100C280003C0432C01C0412C6114710449F411C064
:100C38006114710441F3812C912C540100E010E0FF
:100C4800EF81F885E40DF11D47FCFA95D301ED938A
:100C5800FC9381149104A104B104A9F2F0E8F815F9
:100C680020F42FEF921AA20AB20AB7FC07C0880C28
:100C7800991CAA1CBB1C01501109F7CF03383FEF80
:100C880013079CF402384FEF140761F081149104A4
:100C9800A104B10439F00F5F1F4FB694A79497943D
:100CA8008794F0CF01E81FEF0BC0015011090038FD
:100CB80011050CF46BC1812C912C540100E810E053
:100CC80001581F4F012E000C220B330BF7E1000FC8
:100CD800111F221F331FFA95D1F7A9E0B694A794E4
:100CE80097948794AA95D1F7802A912AA22AB32AA1
:100CF80042C1EE3289F4B52DB0615B2EEF81F885E3
:100D08003196EF83F8873F812885AF81B885EC91CC
:100D1800F52DF07154FEEDCF4E2F0E2E000C550B15
:100D2800405351094A30510518F5252D2260522E9D
:100D380039E0E316F104B9F0FF2311F0015011096D
:100D48004FEFE41AF40AAAE0B0E09B01AC010E945C
:100D5800452BE053DC01CB018E0F911DA11DB11D68
:100D6800BC01CD01CBCFF111C9CF0F5F1F4FC6CF4B
:100D7800EF7DE53409F04EC0EF81F88521812D32F1
:100D880031F4F52DF8605F2EEF81F88506C0EF810C
:100D9800F8852B3211F0319601C03296E983FA8337
:100DA80049815A814F5F5F4FA981BA812C912033C5
:100DB80019F449835A83F4CFE12CF12C40E0AAE0DE
:100DC80039812A81E981FA815191E983FA83E52FF2
:100DD800052E000CFF0BF0973A9768F44330A1F00A
:100DE800AE9D9001AF9D300D112450537901E50E51
:100DF800F11C4F5FE5CF411107C0E32FF22F42915D
:100E0800403311F03E2F2F2F53FE06C0F194E1948A
:100E1800F10802C0E12CF12C6114710431F051FE8B
:100E280004C0D3013C9311962C930E9429244B01B2
:100E38005C0120E030E0A9010E94F92B882309F425
:100E4800E2CEC8018E0D9F1DB52DB170B98397FFF5
:100E580041C09195819591098A309105DCF06AE04D
:100E680070E00E94472A182F9B83660F771F660F32
:100E7800771FFB01E052FD46208131814281538179
:100E8800C501B4010E94082C4B015C01812F9B8194
:100E9800009789F0880F991F880F991FFC01E45467
:100EA800FD462081318142815381C501B4010E94F0
:100EB800082C4B015C0120E030E040E850E0C5011F
:100EC800B4010E94F92B87FF56C0E981EE2309F48B
:100ED80058C03FC0009709F44EC08A309105DCF035
:100EE8006AE070E00E94472A182F9B83660F771FDD
:100EF800660F771FFB01E052FD4620813181428158
:100F08005381C501B4010E940C2C4B015C01812F57
:100F18009B81009789F0880F991F880F991FFC0102
:100F2800E454FD462081318142815381C501B401D9
:100F38000E940C2C4B015C012FEF3FEF4FE75FE75E
:100F4800C501B4010E94FE2B1816ACF4F981FF23E9
:100F5800C1F060E070E080E890E81DC0812C912C21
:100F680020E8A22E2FE7B22E06C0812C912C90ECFF
:100F7800A92E9FE7B92EC501B40150FE0CC09058A8
:100F88000AC060E070E080E890E005C0880C991C19
:0E0F9800AA1CBB1C95CE2896E2E10C94F3290E
:100FA600A6E2B0E0E9EDF7E00C9492298F8F98A3C2
:100FB6006E8B7F8B288FFB010190F081E02DE987F6
:100FC600FA87FB0102811381248135812A8B3B8BB1
:100FD6008085918589A39AA326803780FA0180802F
:100FE6009180A280B38020E030E0A901C501B40160
:100FF6000E94F92B87FF06C0B7FAB094B7F8B094F1
:101006008DE204C0598552FF47C38BE2F10180830C
:101016002A893B89215031092B833C8341E050E0EA
:10102600488B598B06C08A899B898B839C83188A37
:10103600198AD501C401BF770097E0E8AE07EFE74C
:10104600BE0799F4F88D2F2FFF0F330B215431096A
:1010560088899989820D931D2A31310518F464E532
:1010660077E919C068E577E916C00197A048BF4738
:10107600A8F0488D242F440F330B21543109888959
:101086009989820D931D2A31310518F46CE577E9AB
:1010960002C060E677E90E94B22BEDC220E030E0A4
:1010A600A901C501B4010E94F92BC12CD12C20E85D
:1010B600E22E2FE3F22E19821A82882309F48CC0BD
:1010C6008D829E82AF82B88620E030E040E251E415
:1010D600C701B6010E940C2C2B013C01D501C401AD
:1010E60084199509A609B709B7FF07C0B095A09559
:1010F600909581959F4FAF4FBF4F0297A105B105C0
:1011060044F489819A81019689839A8373016201E5
:10111600DBCFA5019401C301B2010E94F92B87FD23
:10112600F0CF8D819E81AF81B8858C199D09AE095E
:10113600BF090196A11DB11D0397A105B10508F4CC
:1011460049C01D821E82A5019401C701B6010E94F5
:10115600FE2B18160CF040C0E981FA81E43DFE4FE3
:10116600E4F44D815E81452BC1F420E030E040E897
:101176005AE5C501B4010E940C2C4B015C0120E02C
:1011860030E040E85AE5C701B6010E940C2C6B011D
:101196007C0181E090E08D839E8320E030E040E298
:1011A60051E4C701B6010E94082C6B017C01E9815C
:1011B600FA813197E983FA83D501C4018C199D0917
:1011C600AE09BF090196A11DB11D0397A105B10581
:1011D60008F0B9CF46015701288D022E000C330BBB
:1011E600288F398FC9010E94BA2B8A8F17FD03C039
:1011F6000D831E8304C046E050E04D835E835A8D06
:10120600573641F4012B09F04CC281E090E08D8302
:101216009E8347C24A8D4F8706C029813A8137FF90
:1012260052C256E65F878D819E8101968D839E838D
:101236009F859636B9F4E981FA81F7FF08C0C12C7B
:10124600D12C90E8E92E9FE3F92E19821A82FA8DA5
:10125600F73641F02D813E8149815A81240F351F91
:101266002D833E831C2DDDA2EBA20F2D8B869C8643
:10127600AD86BE861C8A1D8A8C899D89ED81FE817C
:101286008E179F07DCF5212F3DA14BA1502F6B85B3
:101296007C858D859E850E94082C0E94AA1D2B01A7
:1012A6003C010E94D12B6B8FA3019201612F7DA17E
:1012B6008BA1902F0E940C2C2B853C854D855E853D
:1012C6000E94CA2B9B01AC0150582B873C874D8747
:1012D6005E8720E030E040E251E4612F7DA18BA1E2
:1012E600902F0E94082C162F7DA38BA3092F4C89C3
:1012F6005D894F5F5F4F4C8B5D8BBECF20E030E04A
:1013060040EA50E4612F7DA18BA1902F0E940C2C06
:101316002B013C019B01AC016B857C858D859E85EF
:101326000E94F92B87FD0DC0A30192016B857C8578
:101336008D859E850E94F92B811106C0FB8DF0FDDF
:1013460003C0412C512C3201A5019401C301B20105
:101356000E94CB2B4B015C0120E030E040E251E4DF
:10136600C701B6010E940C2C6B877C8B182F092FA6
:101376009B01482F592FC501B4010E94FE2B87FD02
:1013860014C029813A812F5F3F4F29833A833F85D5
:10139600363679F44D815E814F5F5F4F4D835E83B4
:1013A6005B855DA38C898EA30BC0CB86DC8A1E2D44
:1013B6000F2D9F85953639F0EB85EDA3FC89FEA3AD
:1013C600E980FA8006C02B852DA33C893EA3E12C3B
:1013D600F12C48885988C12CD12C1C8A1D8A1B8661
:1013E6001C8649855A85407155274BA35CA32B85DE
:1013F6003C854D815E812417350734F08C899D89A3
:10140600892B09F494C09FC03201EE89FF8980853B
:10141600918505974816590688F72DA13EA1412FBB
:10142600502FC501B4010E94082C0E94AA1D6B8F83
:101436007C8F8D8F9E8F0E94D12B6A30710514F0A0
:1014460069E070E08BA19CA1892B69F46115710597
:1014560051F49A8D973639F4F7FE05C03601EFEF51
:101466006E1A7E0A38C02C893D89232B99F4F7FE23
:1014760011C03FEF431A530AF101E60DF71D4EE284
:1014860040838B819C8101978B839C83E1E0F0E014
:10149600EC8BFD8BF101E40DF51D36016114710431
:1014A60031F020E3219331E0631A7108F7CFC601CA
:1014B600840D951D2B813C812C193D092C014FEF84
:1014C600441A540AF101E80FF91F605D6083C901EF
:1014D60001978B839C832B8D3C8D4D8D5E8D6DA1ED
:1014E6007EA1812F902F0E940C2CA50194010E94B1
:1014F600CA2B4B015C01B7FAB094B7F8B09420E060
:1015060030E040E251E46DA17EA1812F902F0E9430
:10151600082C6DA37EA3182F092F91E0E91AF10874
:10152600EB85FC853196EB87FC87630160CFF985F7
:10153600F4FF09C0F101E40DF51D8EE280839201EE
:101546002F5F3F4F2901A101440D551D4D835E8339
:10155600FA011082FF85F53609F061C0E9A1FAA10A
:10156600E20DF31D3197108229813A8137FF08C0B9
:1015760031952195310929833A8301E010E002C0B3
:1015860000E010E0E9A1FAA13197E20DF31D22E097
:1015960030E08AE0E82EF12CCF01821993094981C7
:1015A6005A81452B91F089819A81B7010E94472A79
:1015B600805D829369837A83215031094B815C81F6
:1015C600415051094B835C83E7CF121613065CF337
:1015D600FC013197E20DF31D012B11F42BE201C042
:1015E6002DE220830297B101680F791F288D398D6E
:1015F600215431092A31310510F025E601C025E4D0
:10160600FB0120832B813C81225031092B833C83B3
:101616004816590624F48D819E810E94B22B398585
:1016260031FF29C030FD27C04B815C811416150699
:1016360014F5C1010E94D52A820D931D9C01221921
:10164600330948895989241735074CF0FC01208154
:10165600EB81FC81E80FF91F20830197EFCF4B81C7
:101666005C8160E370E088899989820D931D0E94F0
:101676006D2B1A8A1B8AC1010E94D52A09851A85F3
:101686002A893B89AC01B1018F8D98A10E9416254C
:10169600A696E2E10C94F329598553FFC4CC80E267
:1016A600B5CC89819A818C3F9F4F54F0E981FA81AC
:1016B6002D813E81E217F3070CF4AFCD35E604C069
:0C16C600F5E6FF87CFCD36E63F87CCCDA0
:1016D200A0E2B0E0EFE6FBE00C949229888F998FAC
:1016E200FB01298320812F8331813A8F828193816B
:1016F200888B998B248135812C873D8780859185C4
:101702008B8F9C8F66807780FA01C080D180E280C7
:10171200F38020E030E0A901C701B6010E94F92B55
:1017220087FF06C0F7FAF094F7F8F0948DE204C050
:101732005F8152FFE1C28BE2F30180832C853D85FC
:10174200215031092E873F8741E050E04D835E836F
:1017520006C08C859D858E879F871D821E82B7015C
:10176200A6017F77E9810E2E000CFF0BEA87FB872B
:1017720041155105F0E86F07FFE77F07A9F42A85B5
:101782003B85215431098D819E81860D971D2A3119
:10179200310518F464E877E902C068E877E90E9445
:1017A200B22B88E897E998C28D819E81860D971D9C
:1017B2004130510560487F4788F02A853B85215496
:1017C20031092A31310518F46CE877E902C060E981
:1017D20077E90E94B22B80E997E97EC220E3FC01FF
:1017E2002083ED81FE813196E60DF71D2D813E812C
:1017F2002E5F3F4F2D833E834A855B8541545109BD
:101802004E8B5F8B4A31510510F088E701C088E5A5
:10181200808320E030E0A901C701B6010E94F92BC4
:101822001B821C821F8E1982882309F469C050E82A
:1018320058A38FE38A832F8D398148A15A816F8DF6
:10184200798188A19A810E94CB2B5B018C01A7012F
:1018520096010E94FE2B18160CF447C0EB81FC8106
:101862003196EB83FC83AF8EB98208A31A83E3CF50
:1018720020E030E040E05FE36F8D798188A19A81BA
:101882000E940C2C20E030E0A9010E94F92B81116A
:1018920018C020E030E040E85AE56F8D798188A1D8
:1018A2009A810E940C2C6F8F798388A39A8320E0FF
:1018B20030E040E85AE5C701B6010E940C2C6B01EA
:1018C2007C0120E030E040E05FE36F8D798188A108
:1018D2009A810E940C2C6F8F798388A39A832B8123
:1018E2003C81215031092B833C832F8D398148A1C2
:1018F2005A81C701B6010E94F92B87FDB9CF04C0F6
:1019020030E838A34FE34A838889998997FF02C058
:1019120088E190E0FC013196E887F9878F8C998005
:10192200A8A0BA8016018701412C512C9401A5016F
:10193200B101C8010E94082C0E94AA1D6A8B7B8BF0
:101942008C8B9D8B9401A5010E940C2C9B01AC01F8
:10195200B101C8010E94CA2B1B018C0120E030E0BA
:1019620040E85DE3B401C5010E940C2C4B015C010F
:10197200FFEF4F1A5F0A2889398937FF09C020E033
:1019820030E0A901B101C8010E94F92B882331F08E
:1019920048855985441655064CF202C04886598638
:1019A20020E030E040E051E4B401C5010E940C2C7B
:1019B2004B015C019B01AC01B101C8010E94F92BF2
:1019C20087FD12C0A5019401B101C8010E94F92B43
:1019D20081110DC06A897B898C899D890E94D12BD6
:1019E20061707727672B19F4812C912C5401A50182
:1019F2009401C701B6010E94CB2B6B017C01DC0173
:101A0200CB01BF770097A048BF4709F4B8CE2E8418
:101A12003F8482E0281A3108E885F985F195E1953D
:101A2200F109EA8BFB8B0D811E81412C512C1E8604
:101A32001F86188619862B8D3C8D255031092D8FD6
:101A42003E8F0A871B87ED8DFE8D0E171F0708F04C
:101A520093C02F8D398148A15A81C701B6010E94D6
:101A6200082C0E94AA1D4B015C010E94D12BAB01E4
:101A72006115710541F4E885F985EF2B21F0FFEF3F
:101A82004F1A5F0A4FC02E853F85232B99F4E885B4
:101A9200F985EF2B79F00F5F1F4FEA85FB85E60D85
:101AA200F71D2EE2208331E0231A3108E1E0F0E055
:101AB200EE87FF87F301E00FF11F92012115310537
:101AC20029F0A0E3A19321503109F8CFF801E40DE8
:101AD200F51DEA87FB87241835084A3051051CF4A6
:101AE200605D7F4F02C0695A7F4F2E893F892A313C
:101AF200310550F4CB018062815691094A9720F456
:101B0200CB010E94762BBC010A851B850F5F1F4FFC
:101B1200EA85FB85E60DF71D608331E0231A310863
:101B2200412C512C2F8D398148A15A81C501B40114
:101B32000E940C2C9B01AC01C701B6010E94CA2B6A
:101B42006B017C0120E030E040E85DE36F8D79813C
:101B520088A19A810E940C2C6F8F798388A39A8323
:101B62004885598541505109488759878A899B89F7
:101B72008417950709F065CF2E853F85232B49F5FC
:101B8200F301E00FF11F41145104E1F04889598932
:101B920014161506BCF45F8150FD14C08EE28083DA
:101BA200F8013196E60DF71DC20120E3219301975A
:101BB200E9F7040D151D0F5F1F4F40945094240C3C
:101BC200351C07C08F8184FF04C08EE280830F5FC3
:101BD2001F4FF301E00FF11FE887F9871082EB8DA9
:101BE200FC8D3197E60DF71D10822B813C8137FF6A
:101BF20009C03195219531092B833C83EE24E3946E
:101C0200F12C02C0E12CF12C21E030E08AE0C82E58
:101C1200D12CCF01861997094B815C81452B79F034
:101C22008B819C81B6010E94472A805D82936B83DF
:101C32007C832150310941E0241A3108EACF213056
:101C4200310571F3FC013197E60DF71DE114F10442
:101C520011F42BE201C02DE220830297B301680F39
:101C6200791FEE89FF897A9710F020E701C020E5FD
:101C7200FB0120830817190724F4888599850E949F
:101C8200B22BFF81F1FF27C0F0FD25C022E0221A0E
:101C9200310812141304FCF4C3010E94D52A860DE4
:101CA200971D9C01261937094D815E81241735073E
:101CB2003CF0FC012081E20DF31D20830197F1CF5E
:101CC200A10160E370E08D819E81860D971D0E94C7
:101CD2006D2B1C861D86C3010E94D52A0F811A8D89
:101CE2002C853D85AC01B301888D998D0E94162506
:101CF200A096E2E10C94F3295F8153FF2ACD80E2A2
:021D02001BCDF7
:101D0400A2E1B0E0E8E8FEE00C9495294C016B01F7
:101D140019821A828FEF9FEF8B839C831D821E8210
:101D24004F83588729873A87A12CB12CD6016D900F
:101D34007C90F301EA0DFB1D808181110FC0D60157
:101D4400ED93FC938081853209F0D9C13F01BFEF47
:101D54006B1A7B0AF6016082718219C0853279F3AD
:101D6400B401082E000C990B0E9453234FEFA41AC0
:101D7400B40ADCCF8C32ACF08D32F9F489819A81CB
:101D8400816089839A833196D601ED93FC93D601C1
:101D9400ED91FC9180818B3269F789819A8184600D
:101DA400F0CF803221F489819A818860EACF83322E
:101DB40051F489819A818061E4CF803321F489814F
:101DC4009A818260DECFB701C6010E9456268D83B8
:101DD4009E8397FF0BC029813A81B1E02B27298389
:101DE4003A839195819591098D839E8389819A8106
:101DF40080FF03C08D7F89839A83D601ED91FC9186
:101E0400119780818E3249F43196ED93FC93B7019A
:101E1400C6010E9456268B839C83C6010E945128CA
:101E2400582ED601ED91FC918081082E000C990B5F
:101E34000E94BA2B893609F443C084F4833609F42A
:101E440008C134F4853209F42DC18136E1F036C17C
:101E54008436B1F188360CF4DFC030C1803709F420
:101E64009AC03CF48E3609F4C2C08F3609F461C0BE
:101E740025C1853709F440C0883709F476C0833713
:101E840009F01CC1F9C0652D70E0A701CE010B96C5
:101E94000E947128892B09F42CC1D601ED91FC9183
:101EA4001197CF0101968D939C932081AE01455FDC
:101EB4005F4FBE016F5F7F4FC4010E94690B16C163
:101EC400652D70E0970141E050E0CE010B960E9431
:101ED400D718892B09F40DC1F601808191810196EF
:101EE40080839183AE01455F5F4FBE016F5F7F4F7B
:101EF400C4010E941818FAC0652D70E0970140E0F3
:101F040050E0CE010B960E94D718892B09F4F1C03A
:101F1400D6018D919C91119701968D939C93AE015E
:101F2400455F5F4FBE016F5F7F4FC4010E946C210C
:101F3400DDC0652D70E0970140E050E0CE010B96C6
:101F44000E94D718892B09F4D4C0F60180819181AD
:101F5400019680839183AE01455F5F4FBE016F5F41
:101F64007F4FC4010E943620C1C0652D70E09701E7
:101F740040E050E0CE010B960E94D718892B09F45B
:101F8400B8C0D601ED91FC911197CF0101968D93C4
:101F94009C93208122C0D701ED91FC911197CF0130
:101FA40002968D939C93008111810B871C871D865B
:101FB4001E861F86188A198A1A8AF60180819181E1
:101FC4000196808391838B859C85892B29F420E05D
:101FD40030E044E458E984C028E7AE01455F5F4F30
:101FE400BE016F5F7F4FC4010E94EA137FC0A50149
:101FF400400F511F652D70E09701CE010B960E9492
:102004008C1E892B09F475C0D6018D919C91119772
:1020140001968D939C9373C0652D70E0A701CE014A
:102024000B960E947128892B09F463C0D601ED91A7
:10203400FC911197CF0101968D939C932081AE0161
:10204400455F5F4FBE016F5F7F4FC4010E94D3079E
:102054004DC0B0E85B124DC0F601808191810196BC
:1020640080839183D701ED91FC911197CF01029662
:102074008D939C93808120C0B0E85B123AC0F60136
:1020840080819181019680839183D701ED91FC91A8
:102094001197CF0102968D939C934081518120E04A
:1020A40030E01EC0B0E85B1224C0F601208131810B
:1020B4002F5F3F4F208331838B870DC085E28B8751
:1020C400D6016D927C9219821A821D821E828FEF34
:1020D4009FEF8B839C8321E030E0AE01455F5F4F2F
:1020E400BE016F5F7F4FC4010E942E278A0D9B1D86
:1020F40007C0F60180819181019680839183C50197
:082104006296EFE00C94F6294D
:10210C00ABE1B0E0ECE8F0E10C9492298C839D8378
:10211C006C877D8749835A832E8B453251051CF47D
:10212C004130510539F486E190E080930030909372
:10213C00013079C12C813D812115310509F473C120
:10214C00F9011081112309F46EC11901103239F013
:10215C00812F012E000C990B0997059730F43FEF56
:10216C00231A330AF1011081F1CF1D3249F4F10128
:10217C00118191012F5F3F4F190131E03A8709C05E
:10218C001B3231F4F101118191012F5F3F4F190185
:10219C001A86103309F044C0C10101968F8B988FB9
:1021AC00F101118189819A818F7E892BD9F5812F3B
:1021BC008F7D883561F51281812F8062082E000C8D
:1021CC00990B81569109812E012E000C99084A9782
:1021DC0030F0C4010E94332A892B39F038C1C40174
:1021EC000E94762B87538031A4F32F89388D2C8352
:1021FC003D838C859D85892B09F01AC1612C712C2E
:10220C00812C912C198E1F8A412C512C33C1E981C0
:10221C00FA81EF2B09F426C12F88388C01E00DC010
:10222C0000E003C02F88388C01E029813A81232BF0
:10223C0021F48AE090E089839A839E89992399F00E
:10224C00EA85E1111FC0FFEFFE872FEF2F873FEFCD
:10225C00388B8FEF898B9FEF9A8BEFEFEB8BFC8B8F
:10226C002FE72D8B18C03FEF3E878FEF8F879FEFA7
:10227C00988BEFEFE98BFFEFFA8B2FEF2B8B3C8BCF
:10228C008D8B09C01E861F86188A198A1A8A1B8A8A
:10229C001C8A90E89D8B1B86612C712C812C912CB7
:1022AC00198E1F8A412C512CEA81EE0FEE0BEE8316
:1022BC00212F2062022E000C330B21563109812F65
:1022CC00012E000C990B2A31310528F40E94762B33
:1022DC0087538B8306C0C0970A9708F089C01053A8
:1022EC001B83FB818F2FFF0F990B29813A8182175A
:1022FC0093070CF07DC03B8531115DC05301640127
:10230C00E98CFF88820129813A814E81542F642FF8
:10231C00742F842F942F0E94B72259016A017B01DC
:10232C008C019B81990F990B2B81392F492F592F98
:10233C00692F792F892F0E94882B2B833F83B42FF1
:10234C00A52F6A8F7B8F888799879301A401698D4C
:10235C007F89C201AB80BF80CB2EDA2EEA8CFB8C3E
:10236C00088519850E94912B09F070F48E898823B9
:10237C0071F12E853F85488959896A897B898C89B9
:10238C009D890E94912B18F5E2E2F0E0E093003079
:10239C00F0930130FE85FB832F852F83B889A989A3
:1023AC003A893A8F8B898B8F9C899887ED89E9873D
:1023BC00F1E0FB870CC06B827F82B82DA92D298D93
:1023CC002A8F3F893B8F4886598681E08B879FEF08
:1023DC00291A390AF101108101E06B807F808B2E64
:1023EC009A2EFA8DF98FEB8DEF8B4884598460CF40
:1023FC00FB85F1110FC02A85222361F09301A40102
:10240C00698D7F89C2010E94B62A39014A01698F00
:10241C007F8B2C018C859D85892B61F1002381F0AC
:10242C002C823D820DC02C853D85232B09F4E6CEF4
:10243C00612C712C812C912C198E1F8A412C512CC2
:10244C002C813D81EC85FD852083318313C0910166
:10245C002E5F3F4F2F8B388F00E080E190E0898317
:10246C009A8305C001E0E8E0F0E0E983FA832F8865
:10247C00388CE3CE9301A401698D7F89C2016B96E0
:06248C00E2E10C94F329CB
:10249200A0E1B0E0EFE4F2E10C9492292C016F8705
:1024A200788BFA01390104811581A084B1842681D7
:1024B200378129873A870E94EC27F30120813181F5
:1024C200820F931F80839183C50101970115110526
:1024D20009F48C015C01081719070CF45801E9840E
:1024E200FA84F1E0EF1AF10821E030E02F83388717
:1024F200212C312C1D821E82C12CD12C812C912C9D
:102502001B861C862D863E862A143B040CF036C19F
:10251200C2010E949F238C018F3F3FEF930739F442
:10252200121413040CF42AC18FEF9FEF4EC1C11491
:10253200D104D1F48B32910511F08D97A9F42114B5
:10254200310431F08214930419F0B201C80119C0A8
:10255200F7010183F3018081918101968083918348
:10256200CC24C394D12CFDC02B853C85232BD1F4E4
:102572000E321105B9F48114910431F0B2018EE2E8
:1025820090E00E949128FAC02EE2F7012183F30124
:102592008081918101968083918321E030E02B87B5
:1025A2003C87DFC08114910451F58D819E81892B76
:1025B20039F0C8010E94BA2B80379105A1F406C0F8
:1025C200C8010E94BA2B8536910569F4F70101838F
:1025D200F30180819181019680839183C12CD12C5A
:1025E2008F809884BEC0C60101962816390639F438
:1025F200C8010E94BA2B8837910509F4D5C08D8194
:102602009E81892B31F0C8010E941F2A892B31F04B
:10261200A0C0C801C0970A9708F49BC0B201C801C4
:102622000E9491282C143D0409F0A8C0EEEEF7E9AF
:1026320080819181A281B38189839A83AB83BC8398
:10264200F1013296ED83FE83EA15FB051CF080E072
:1026520090E06FC029853A85220D331D2F8338877C
:10266200C12CD12CAA24AA94BA2C7101EC0CFD1C09
:102672004701C2010E949F238C01019609F457C0B1
:102682008FEFA816B80671F4C8010E94BA2B8C010C
:102692008936910501F18E36910579F5AA24A39424
:1026A200B12C1BC0C8010E94BA2BF501EE0FFF1F0F
:1026B20021E030E02C0F3D1FE20FF31F0190F0816B
:1026C200E02DEC0DFD1D2081022E000C330B821734
:1026D200930719F012C0A12CB12CEF81F885019358
:1026E200EF83F887FFEFCF1ADF0A23E0C216D10487
:1026F20009F0BBCF83E090E01CC08D819E818E15D6
:102702009F05C4F3E985FA85EE0EFF1EF1E08F1AEC
:102712009108821493040CF49ACFF70182917F01FD
:10272200B201082E000C990B0E949128EFCF8FEF77
:102732009FEF1816190614F59101280F391F2D87DE
:102742003E87F30120813181820F931F8083918321
:1027520015C0F7010183F301808191810196808385
:102762009183FFEF2F1A3F0A2F8138852F5F3F4F4A
:102772002F8338873FEFE31AF30AC4CEE985FA853F
:102782008D859E85E80FF91F108260E070E08985D3
:102792009A850E941F2CEF85F8896083718382835A
:1027A200938380E090E011C0F7018081803309F0CB
:1027B20026CF0183F30180819181019680839183E9
:1027C20021E030E02D833E83CCCF6096E2E10C9491
:0227D200F329E9
:1027D400A4E1B0E0E0EFF3E10C9492298F839887B1
:1027E40069837A834B8B5C8B122FDB011296ED91FC
:1027F400FC91139714962D913C9115972D833E834C
:10280400CD90DC90119716962D903C901797F7FD7C
:1028140003C0E894C1F802C0E1E0F0E0C6018071B1
:10282400992789879A87C4FE1FC0AB89BC892C91DC
:1028340011963C91119712964C91129713965C91B4
:10284400139714966C91149715967C911597169678
:102854008C91169717969C91A0E00E94232B21F04F
:102864008D819E81029702C08D819E819601287080
:1028740033272B873C87C3FC0197AB89BC894C90D9
:1028840011965C90119712966C90129713967C9007
:10289400139714968C90149715969C9015971696EA
:1028A400AC9016971796BC90A981BA811896ED90B2
:1028B400FC901997B1E0EB1AF108D101AE0DBF1DE0
:1028C4001C928B839C839F01281B390B2D873E8789
:1028D400C601827099278F87988B812F012E000C57
:1028E400990BDC01A154B109A98BBA8B32E0E31630
:1028F400F10430F489859A85892B09F04CC073C0A2
:102904009201A301B401C501A0E00E94232B81F12F
:10291400B1E0EB1AF108C2018F7099278A30910552
:1029240014F4C09602C0895A9F4FE989FA897A97AC
:1029340048F49C012062215631092A31310510F4F2
:102944000E94762BF101EE0DFF1D80832B813C81CB
:10295400215031092B833C839201A301B401C501A9
:1029640004E00E94D12829013A014B015C01BECF49
:102974008D859E85AB81BC818A0F9B1F1816190615
:102984003CF21A161B060CF0B5CFEF85F889EF2B35
:1029940009F0BECFAFCFAB89BC892C9111963C9185
:1029A400119712964C91129713965C911397149663
:1029B4006C91149715967C91159716968C91169791
:1029C40017969C91A0E00E94232B69F0F101EE0D73
:1029D400FF1D31971083B2E0EB1AF108F101EE0DFF
:1029E400FF1D80E38083EB85FC85EF2B41F0F1E054
:1029F400EF1AF108F101EE0DFF1D80E28083A98139
:102A0400BA8118964D915C911997415051094E190C
:102A14005F09B1016E0D7F1D86012D813E818F817D
:102A240098850E9416259C01EF81F885808191810B
:102A340090FF09C0A981BA8112968D919C91139738
:102A4400821793070CF4C9016496E2E10C94F3290C
:102A5400496E76616C69642074696D6520666F7275
:102A64006D617400496E76616C69642074696D658A
:102A74002076616C756573002532642532642566A1
:102A840000253032643A253032643A252E3366000C
:102A940043757272656E74206C61743A20252E3809
:102AA400662C2063757272656E74206C6F6E3A20AA
:102AB400252E38660D0A0044657374696E61746965
:102AC4006F6E206C61743A20252E38662C20646564
:102AD4007374696E6174696F6E206C6F6E3A202531
:102AE4002E38660D0A005363616C65642063757249
:102AF40072656E74206C61743A20252E38662C2021
:102B040063757272656E74206C6F6E3A20252E3870
:102B1400660D0A005363616C6564206465737469AF
:102B24006E6174696F6E206C61743A20252E38666C
:102B34002C2064657374696E6174696F6E206C6FA8
:102B44006E3A20252E38660D0A004C61746974753E
:102B54006465207468726573686F6C643A20252E0E
:102B640038660D0A004C6F6E67697475646520746D
:102B740068726573686F6C643A20252E38660D0A96
:102B8400004C6174697475646520646966663A20F2
:102B9400252E38660D0A004C6F6E6769747564657E
:102BA40020646966663A20252E38660D0A00596F3E
:102BB400752068617665206172726976656420614A
:102BC4007420796F75722064657374696E617469B9
:102BD4006F6E210D0A004E6F742079657420617444
:102BE400207468652064657374696E6174696F6EBE
:102BF4002E204B65657020676F696E672E0D0A0085
:102C040024474E474741002C0054696D653A2025FE
:102C1400730D0A004C617469747564653A20252E3D
:102C240036662025630D0A004C6F6E6769747564FF
:102C3400653A20252E36662025630D0A00474E4747
:102C44004741000A00466F756E6420474E4747416E
:0F2C54002073656E74656E63653A2025730A0000
:102C64008F929F92AF92BF92CF92DF92EF92FF9298
:102C7400C62ED72EE82EF92E822E932EA42EB52EF4
:102C84005F934F933F932F939F938F937F936F9370
:102C940084E99AE69F938F930E94882582EC8F9310
:102CA4008AEB8F9380E78F9382E08F9382E48F93F4
:102CB40083E38F9384EE8F9381EF8F938BEB9AE66C
:102CC4009F938F930E94882520E034E244E759E4DF
:102CD4006C2D7D2D8E2D9F2D0E940C2CC62ED72E53
:102CE400E82EF92E20E034E244E759E4682D792DEA
:102CF4008A2D9B2D0E940C2C862E972EA82EB92E41
:102D04009F938F937F936F93FF92EF92DF92CF9273
:102D14008AEE9AE69F938F930E9488258CEC8F937A
:102D240091EB9F938F938AEF8F938CE48F938BE235
:102D34008F938FE88F9382E88F9388E19BE69F932C
:102D44008F930E9488258DB79EB788968DBF9EBFAE
:102D540084E48F938FEA8F931F921F928EE49BE6F5
:102D64009F938F930E94882581E48F9380E28F93B1
:102D74001F921F9289E69BE69F938F930E9488255A
:102D840022E83FE84BE25CE46C2D7D2D8E2D9F2DD7
:102D94000E94CA2B6B017C01E894F7F82AEF3CEC03
:102DA40041EB5CE4682D792D8A2D9B2D0E94CB2B61
:102DB4004B015C01E894B7F8FF92EF92DF92CF9257
:102DC40085E89BE69F938F930E948825BF92AF92DC
:102DD4009F928F928BE99BE69F938F930E94882505
:102DE4008DB79EB748968DBF9EBF20E030E04FEA76
:102DF40054E4C701B6010E94F92B181654F420E0DC
:102E040030E040E251E4C501B4010E94F92B1816E8
:102E14004CF082EB9BE69F938F930E9488250F9042
:102E24000F9008C08AED9BE69F938F930E9488259C
:102E34000F900F90FF90EF90DF90CF90BF90AF90E6
:062E44009F908F9008959D
:102E4A00A8E0B0E0EBE2F7E10C9492294C016F8321
:102E5A007887FA0159018481958189839A83E0846C
:102E6A00F18446805780C4010E94EC27F501208135
:102E7A003181820F931F8083918389819A81892B63
:102E8A0021F4F7013197E983FA834AE0C42ED12C61
:102E9A00612C712C00E010E0C70101978D839E839D
:102EAA0089819A81081719070CF097C0ED81FE8174
:102EBA000E171F070CF091C0C4010E949F237C01CA
:102ECA009FEFE916F90639F4101611060CF485C0BD
:102EDA008FEF9FEFA4C001151105B1F4EBE2EE16D6
:102EEA00F10421F0FDE2EF16F10471F4F201E0823F
:102EFA00F501808191810196808391836624639490
:102F0A00712C01E010E0CCCFC201800F911F8B839E
:102F1A009C8306151705C1F538019FEF691A790ACE
:102F2A00EAE0CE16D10441F4F0E3EF16F10451F5CC
:102F3A0028E0C22ED12C28C088E0C816D10411F589
:102F4A00C701806288379105E9F4C4010E949F2372
:102F5A001C01B4010E949128C1010E941F2A892BD9
:102F6A0071F0EB81FC81E0828301F501808191811E
:102F7A0001968083918390E1C92ED12C91CFB4011F
:102F8A00C10111C0612C712CC701C0970A9770F05A
:102F9A00F0E1CF16D10429F4C7010E941F2A892B18
:102FAA0081F4B401C7010E94912817C088E0C816AD
:102FBA00D10439F498E3E916F1041CF08AE0C82E2A
:102FCA00D12CEB81FC81E0820F5F1F4FF5018081DC
:102FDA00918101968083918363CFF201E00FF11F03
:102FEA001082FAE0CF16D10441F44AE050E060E0E2
:102FFA0070E0C2010E94102C06C0A60160E070E0D9
:10300A00C2010E94142CEF81F88520833183428308
:10301A005383648375838683978380E090E0289640
:06302A00E2E10C94F32921
:10303000ADE0B0E0EEE1F8E10C94922989879A873F
:103040006B837C83FA01DB011296CD90DC901397A1
:1030500014968D919C9115978D839E83ED90FC9095
:103060001197E982FA8216960D90BC91A02DAF833C
:10307000B88720803180428053806480758086804C
:1030800097808101B42DF52DE62D7B868C869D865B
:103090009101A201B301C401A0E00E94232B4CF4D2
:1030A0000E94B62A8901B42FF52FE62F7B878C87E3
:1030B0009D87D7FC04C0E894E1F8E982FA82910187
:1030C000A201B301C401A0E0ED80FE800E94232B89
:1030D0001CF0898182FF04C081E0E81AF10805C074
:1030E00083FF03C091E0E91AF108CE0101965C016B
:1030F0008AE0C82ED12C2B2F3F2F4E2F5B856C855D
:103100007D858B819C810E943E1AFC019101A20168
:10311000B301C401A0E00E94232B1CF0898182FF2F
:1031200012C031970F8118850E0F1F1F9101A20148
:10313000B301C401A0E00E94232B14F08BE201C074
:103140008DE2D80108C083FF07C03197AF81B885F1
:10315000AE0FBF1F80E28C9309811A81AB81BC81C5
:1031600018964D915C911997415051094E1B5F0B78
:103170006F8178856E0F7F1F2D813E8189859A85AD
:103180000E9416259C01E985FA858081918190FF36
:1031900009C0AB81BC8112968D919C9113978217C7
:0E31A00093070CF4C9012D96E2E10C94F3297B
:1031AE000F931F93CF93DF93FC01D90168387105FC
:1031BE0031F194F461387105B1F12CF46038710578
:1031CE0009F478C09FC06238710509F459C064389B
:1031DE00710509F46FC096C0603A710509F448C0D4
:1031EE002CF46039710509F44BC08CC0603C71053C
:1031FE0009F476C0603F710509F472C083C0CD91A9
:10320E00DC911197CE0102968D939C93452B39F04C
:10321E009881892F880F880B908381835BC088816A
:10322E008083118268C0CD91DC911197CE010496F6
:10323E008D939C93452B99F088819981AA81BB81AE
:10324E00AC01BD01770F440B542FBA0180839183DB
:10325E00A283B383448345834683478328C0088172
:10326E0019812A813B81008311832283338345C0D8
:10327E00CD91DC911197CE0102968D939C9323C034
:10328E00CD91DC911197CE0108968D939C93788108
:10329E0069815A814B813C812D819E818F81708302
:1032AE00618352834383348325839683878381E0AE
:1032BE0090E02AC0CD91DC911197CE0102968D93AC
:1032CE009C93452BA1F099812881892F880F880B1B
:1032DE002083918382838383848385838683E6CF51
:1032EE00CD91DC911197CE0102968D939C9308811E
:1032FE001981008311831282138214821582168221
:10330E001782D5CF80E090E0DF91CF911F910F9182
:02331E00089510
:103320004F925F926F927F928F929F92AF92BF92D5
:10333000CF92DF92EF92FF920F931F93CF93DF9381
:10334000CDB7DEB7C456D109CDBFDEBF8C0146E094
:1033500050E064E07CE60E94B028892B09F079C037
:1033600044E650E0B801CE0101960E947829A59666
:103370001FAEA5976BE07CE6CE0101960E94EA2382
:103380006BE07CE680E090E00E94EA238C016BE039
:103390007CE680E090E00E94EA235C016BE07CE642
:1033A00080E090E00E94EA237C016BE07CE680E014
:1033B00090E00E94EA234C016BE07CE680E090E024
:1033C0000E94EA236C01F7016081C5010E94072376
:1033D000662E772EB82EA92EF6016081C4010E94B8
:1033E0000723462E572E882E992E762F272F352DE0
:1033F000482D592D662D772D8B2D9A2D0E94321632
:10340000C8010E942C1C9F938F938DE09CE69F9394
:103410008F930E948825F70180811F928F93AF922E
:10342000BF927F926F9288E19CE69F938F930E9458
:103430008825F60180811F928F939F928F925F92D1
:103440004F928CE29CE69F938F930E948825CDBF7C
:10345000DEBFCC59DF4FCDBFDEBFDF91CF911F91D3
:103460000F91FF90EF90DF90CF90BF90AF909F9023
:0C3470008F907F906F905F904F900895B8
:10347C00A2E1B0E0E4E4FAE10C949229FC010A8B9D
:10348C00912E822E732E642E552E462E7D83CC8645
:10349C00DA86A886B986268137812E833F83D501AB
:1034AC008D919C91228133810084F185E02D31979F
:1034BC0037FF02C021E030E04E815F81E40FF51F41
:1034CC001082EB83FC831701A1E0B0E0A983BA83DF
:1034DC00F901EE19FF09ED87FE879C012270332755
:1034EC002F87388B3A85330F330B398BEB81FC816B
:1034FC002E813F81E21BF30B4B815C8142175307FA
:10350C0009F44FC02A89392D482D572D662D752D5C
:10351C00842D9D81A0E00E94232B99F14C854B8733
:10352C00A42EBA84C988DC2CEC2CFC2C0C2D1C2D64
:10353C002A89392D482D572D662D752D842D9D8169
:10354C000E94E32AC90129839A83805DAB81BC81E7
:10355C008E93AB83BC83B1E02B1A31082A89392DA9
:10356C00482D572D662D752D842D9D810E94E52AA1
:10357C002A8B932E842E752E662E572E482E9D83C5
:10358C00B5CF8D859E85820D931D1816190634F2C4
:10359C001214130444F48F859889892B09F0BECF3B
:1035AC0002C0E0E0F0E0A981BA81AB2B41F4A88520
:1035BC00B9858D919C9111978F7E8D939C93CF01A2
:0835CC006296E2E10C94F32980
:1035D400A4E0B0E0E0EFFAE10C9492297C016B8363
:1035E4007C83FA01590144805580C084D18466806B
:1035F40077800E94EC27F50120813181820F931F8F
:10360400808391834114510421F42601F1E04F1A7F
:103614005108130100E010E0C601019789839A83E1
:10362400041515050CF042C089819A810817190701
:10363400ECF5C7010E949F236C019FEFC916D906C0
:1036440031F41016110694F18FEF9FEF64C0C60198
:103654000E941F2A892BF1F401301105B1F4C6012F
:103664000E94BA2B8837910581F4F301808180335D
:1036740061F4C7010E949F234C01B7010E94912865
:10368400C4010E941F2A892B29F4B701C6010E9494
:1036940091280CC0F101C1921F010F5F1F4FF5016A
:1036A40080819181019680839183BACFD301A00F49
:1036B400B11F1C92033011053CF4EB81FC81108294
:1036C40011821282138221C0F301329600E010E0CD
:1036D4009801819190ED980F9A3018F0806299EAE0
:1036E400980F84E0000F111F221F331F8A95D1F712
:1036F400090F111D211D311DAE17BF0751F7EB81B5
:10370400FC81008311832283338314821582168201
:0E371400178280E090E02496E2E10C94F32905
:10372200CF93DF93FC01D9016838710521F18CF444
:103732006138710561F12CF46038710509F476C0C5
:1037420085C062387105B1F16438710509F46EC043
:103752007DC0603A710509F469C024F460397105CD
:1037620049F174C0603C710509F460C0603F7105A5
:1037720009F45CC06BC0CD91DC911197CE01029629
:103782008D939C93A881B98180818C935CC0CD91EB
:10379200DC911197CE0102968D939C93A881B981F9
:1037A20040815181628173814D935D936D937C93CE
:1037B200139749C0CD91DC911197CE0102968D935A
:1037C2009C93452B99F070816181528143813481B0
:1037D200258196818781E881F98170836183528393
:1037E200438334832583968387832DC0A881B9813F
:1037F20070816181528143813481258196818781E3
:103802007C9311966C93119712965C931297139670
:103812004C93139714963C93149715962C931597E3
:1038220016969C93169717968C930DC0CD91DC91AA
:103832001197CE0102968D939C93A881B9818081C4
:1038420091818D939C9381E090E002C080E090E0B2
:06385200DF91CF91089503
:10385800AF92BF92CF92DF92EF92FF920F931F9396
:10386800CF93DF93CDB7DEB72897CDBFDEBF9E01DC
:103878002B5F3F4F3F932F93225031093F932F9354
:10388800225031093F932F932CE73AE63F932F9329
:103898009F938F930E943128CDBFDEBF039709F015
:1038A80040C009811A8108311105F0F5EB80FC80D0
:1038B8003CE3E316F104D8F5DD80CE80BF80A88410
:1038C80020E030E0A9016D2D7C2D8B2D9A2D0E94D2
:1038D800F92B88237CF120E030E040E752E46D2D9D
:1038E8007C2D8B2D9A2D0E94FE2B882334F5AF92C8
:1038F800BF92CF92DF92FF92EF921F930F9385E8CA
:103908009AE69F938F931F9284E18F9380E292E3CC
:103918009F938F930E940B2ACDBFDEBF80E292E374
:103928000EC084E59AE60BC088E69AE608C088E6E9
:103938009AE605C088E69AE602C088E69AE62896DE
:10394800CDBFDEBFDF91CF911F910F91FF90EF9018
:0A395800DF90CF90BF90AF9008956C
:10396200DF92EF92FF920F931F93CF93DF93809199
:103972003E32811155C06BC0E0913C3281E08E0F26
:1039820080933C32F0E0EF5FFE4C408190913C32FC
:1039920081E09F3F08F480E0890F80933C324432FB
:1039A20039F4E0923432F0923532D092023043C090
:1039B2002E3F310508F043C0F9013196E0933432CD
:1039C200F0933532D901AE5FBF4C4C934A3011F0BF
:1039D2004D3089F5EE5FFF4C108261E47CE682E0B7
:1039E20090E30E94C827892BB1F01F930F930E9486
:1039F200882582E090E39F938F93DF93CF930E9479
:103A0200882582E090E30E9490190F900F900F900A
:103A12000F900F900F9010923432109235320BC0EB
:103A220007E41CE6C9E4DCE6EE24E394F12C0F2E55
:103A3200F4E2DF2EF02D2091343230913532909124
:103A42003C3280913D32981397CF10923E32DF91F3
:0E3A5200CF911F910F91FF90EF90DF9008959C
:103A60001F920F920FB60F9211242F933F934F93F3
:103A70005F936F937F938F939F93AF93BF93CF93F6
:103A8000EF93FF9380913632909137320196809375
:103A90003632909337328091403280FD0E94F52576
:103AA0008091403283FD0E94DA268091403284FD6D
:103AB0000E9404278091363290913732029721F488
:103AC000109236321092373280913F328F5F80935E
:103AD0003F3280913F32873048F110923F3226C00A
:103AE0008C2F8F7119F480E20E945A2B0E946F2A4A
:103AF0008A3099F0E0913D3291E09E0F90933D32F3
:103B0000F0E0EF5FFE4C808390913D3281E09F3F7B
:103B100008F480E0890F80933D32CF5FCF3F01F7FB
:103B200081E080933E328093430102C0C0E0D8CF51
:103B3000FF91EF91CF91BF91AF919F918F917F9125
:103B40006F915F914F913F912F910F900FBE0F900A
:043B50001F90189515
:103B54008F929F92AF92BF92CF92DF92EF92FF9299
:103B64000F931F938B019C0157E136952795179569
:103B740007955A95D1F71127A8014F575109473195
:103B840051050CF045C057FD2DC00FEF1FEF2FE777
:103B940030E004C035952795179507954A95D2F7D7
:103BA4004801590186229722A822B92289288A2805
:103BB4008B2871F197FF07C0DC01CB01800F911FA7
:103BC400A21FB31F02C0DC01CB0100951095209504
:103BD400309580239123A223B323482F392F2A2FF2
:103BE4005B2F1AC097FF0FC08B019C01000F111FA0
:103BF400221F331F012B022B032B51F040E030E036
:103C040020E85FEB09C040E030E020E050E004C071
:103C1400462F372F282F592F642F732F822F952F3C
:103C24001F910F91FF90EF90DF90CF90BF90AF90D6
:063C34009F908F9008959F
:103C3A0010C00E94DF2B58F00E94D82B40F029F4C4
:103C4A005F3F29F00C94ED2B51110C94E72B0C9447
:103C5A001C2C0E940F2868F39923B1F3552391F382
:103C6A00951B550BBB27AA2762177307840738F0E1
:103C7A009F5F5F4F220F331F441FAA1FA9F335D03E
:103C8A000E2E3AF0E0E832D091505040E695001CF2
:103C9A00CAF72BD0FE2F29D0660F771F881FBB1FAC
:103CAA00261737074807AB07B0E809F0BB0B802D8A
:103CBA00BF01FF2793585F4F3AF09E3F510578F0B6
:103CCA000C94ED2B0C94E72B5F3FE4F3983ED4F36E
:103CDA00869577956795B795F7959F5FC9F7880F8A
:103CEA00911D9695879597F90895E1E0660F771FDC
:103CFA00881FBB1F621773078407BA0720F0621B6D
:0E3D0A00730B840BBA0BEE1F88F7E09508953B
:103D1800CF93DF93DC01F90164387105D9F164F4BC
:103D28006138710521F16238710509F440C06038C5
:103D3800710509F054C02EC060397105C1F184F4D1
:103D48006838710509F04BC0C081D181CE01029657
:103D580080839183E881F981ED93FC9340833CC093
:103D6800603A7105B9F0603C7105A1F038C0C081B6
:103D7800D181CE01029680839183E881F981ED9308
:103D8800FC93052E000C660B770B408351836283EE
:103D9800738322C0C081D181CE0102968083918332
:103DA800E881F981ED93FC934083518315C0C0816C
:103DB800D181CE01029680839183E881F981ED93C8
:103DC800FC9340835183852F880F880B82838383DC
:103DD800848385838683878381E090E002C080E0C6
:083DE80090E0DF91CF910895F6
:103DF0000FC00E94D82B38F00E94DF2B20F09523B3
:103E000011F00C94ED2B0C941C2C11240C94E72B2A
:103E10000E940F2870F3959FC1F3950F50E0551F36
:103E2000629FF001729FBB27F00DB11D639FAA270F
:103E3000F00DB11DAA1F649F6627B00DA11D661F5E
:103E4000829F2227B00DA11D621F739FB00DA11D7F
:103E5000621F839FA00D611D221F749F3327A00D39
:103E6000611D231F849F600D211D822F762F6A2FD5
:103E700011249F5750409AF0F1F088234AF0EE0F3A
:103E8000FF1FBB1F661F771F881F91505040A9F767
:103E90009E3F510580F00C94ED2B0C94E72B5F3F77
:103EA000E4F3983ED4F3869577956795B795F795A3
:103EB000E7959F5FC1F7FE2B880F911D969587951B
:043EC00097F90895D1
:103EC400A0E0B0E0E8E6FFE10C9498295C01FB0176
:103ED4004A01C480D58000851185E680F7800E9460
:103EE400EC27F40120813181820F931F8083918319
:103EF400C114D10421F46801F1E0CF1AD108C0E063
:103F0400D0E001501109CC15DD05BCF5C017D1076F
:103F1400A4F5C5010E949F238F3F2FEF920721F440
:103F24001C161D0654F12FC0209789F48B3291057D
:103F340019F08D32910559F4F7018083F4018081E1
:103F44009181019680839183C1E0D0E0DCCF9C0114
:103F5400205331092A30310520F0B5010E949128FF
:103F64000CC0F701EC0FFD1F80832196F4018081C2
:103F74009181019680839183C6CFCE0DDF1D188277
:103F840080E090E002C08FEF9FEFCDB7DEB7ECE0AA
:043F94000C94F92967
:103F9800A0E0B0E0E2EDFFE10C9494294C01EB01C4
:103FA800FA017901A480B58060847184C680D780C5
:103FB8000E94EC27F70120813181820F931F8083B3
:103FC8009183A114B10421F45301F1E0AF1AB108AF
:103FD800260100E010E021E0621A71080A151B05AD
:103FE80024F5061517050CF5C4010E949F238F3F81
:103FF800EFEF9E0721F410161106BCF02CC09C01AF
:10400800205331092830310520F0B4010E9491284D
:104018000CC0F20181932F010F5F1F4FF7018081C0
:104028009181019680839183D9CFF601E00FF11F2A
:10403800108248E050E060E070E0C6010E94142C55
:10404800288339834A835B836C837D838E839F8334
:1040580080E090E002C08FEF9FEFCDB7DEB7E0E1E0
:044068000C94F52996
:10406C00A2E0B0E0ECE3F0E20C9492291C014B01CD
:10407C00FA01DB0112962D913C91139714964D90F9
:10408C005C9015978D919C91119789839A831696C4
:10409C006D907C90179737FD03C08D7F89839A8331
:1040AC000081118122813381448155816681778120
:1040BC00FE0131965F0188E0C82ED12C7201C4013B
:1040CC000E943E1A298124FF06C00197F301E80FD4
:1040DC00F91F20E32083298123FF06C00197F301F8
:1040EC00E80FF91F20E2208309811A81D401189668
:1040FC004D915C91199741505109481B590BB301D3
:10410C00680F791F9201C1010E9416259C01F101D3
:10411C008081918190FF08C0D40112968D919C9161
:10412C001397821793070CF4C9012296E2E10C94C1
:02413C00F32965
:10413E0011C00E94D82B38F00E94DF2B20F039F4EA
:10414E009F3F19F426F40C941C2C0EF4E095E7FB1B
:10415E000C94ED2BE92F0E940F2858F3BA17620723
:10416E0073078407950720F079F4A6F50C94E62BD7
:10417E000EF4E0950B2EBA2FA02D0B01B901900174
:10418E000C01CA01A0011124FF27591B99F0593FB8
:10419E0050F4503E68F11A16F040A22F232F342F00
:1041AE004427585FF3CF469537952795A795F0404E
:1041BE005395C9F77EF41F16BA0B620B730B840B63
:1041CE00BAF09150A1F0FF0FBB1F661F771F881F1B
:1041DE00C2F70EC0BA0F621F731F841F48F4879573
:1041EE0077956795B795F7959E3F08F0B0CF939565
:0E41FE00880F08F09927EE0F97958795089582
:10420C00A0E0B0E0ECE0F1E20C9496296C01EB013B
:10421C005A017901452B49F00E94EC27F7012081C6
:10422C003181820F931F808391836C807D80480144
:10423C00C0E0D0E06114710449F5C6010E949F23CF
:10424C008F3FFFEF9F0731F4209789F1011511057E
:10425C0009F527C0A114B10449F08032910551F140
:10426C009C01295031092530310520F1011511052A
:10427C0011F0F40180832196F701808191810196E0
:10428C0080839183FFEF8F1A9F0AD4CFC615D70571
:10429C00A4F2DCCFA114B10421F0F801EC0FFD1F46
:1042AC00108281E090E0CD2B61F480E00AC08FEFAA
:1042BC009FEF07C0B6010E9491280115110589F3E3
:0C42CC00ECCFCDB7DEB7EEE00C94F72984
:1042D800A2E0B0E0E2E7F1E20C9492293C014B0144
:1042E800FA01DB0112962D913C91139714964D908B
:1042F8005C9015978D919C91119789839A83169656
:104308002D903C90179737FD03C08D7F89839A8342
:1043180000811181228133814481558166817781B1
:10432800FE0131965F018AE0C82ED12C7201C401CA
:104338000E943E1A09811A81D40118964D915C9108
:10434800199741505109481B590BB101680F791F42
:104358009201C3010E9416259C01F301808191817D
:1043680090FF08C0D40112968D919C9113978217E3
:0E43780093070CF4C9012296E2E10C94F3299C
:10438600CF92DF92EF92FF920F931F93CF93DF931B
:10439600CDB7DEB72997CDBFDEBF7C010E94A22B29
:1043A6008983893571F50E94A22B8A83893559F54F
:1043B6008E010D5F1F4F6E018AE0C80ED11C0E9450
:1043C600A22BF80181938F01CE16DF06C1F7FE01FD
:1043D60031969E01275F3F4F80E09191890F2E17FE
:1043E6003F07D9F79985891310C08C8190E0982FE3
:1043F60088272B81820F911DF7018083918381E0AD
:1044060005C080E003C080E001C080E02996CDBFF2
:10441600DEBFDF91CF911F910F91FF90EF90DF905C
:04442600CF90089596
:10442A00CF93DF9300D0CDB7DEB70E94822A0E94D5
:10443A00642B0E944429E0E0F4E08081806180835B
:10444A008081806280838081806480837894CE01B9
:10445A0001960E94C321882389F189819A81863035
:10446A009105E0F00817190758F4809140328061ED
:10447A008093403280914032877F809340321CC0C3
:10448A0080179107C8F48091403288608093403247
:10449A00809140328F7E809340320EC080914032AC
:1044AA00877F80934032809140328F7E8093403262
:1044BA000E940B2B10923F3209811A810E94B11C73
:0244CA00C6CF5B
:1044CC0088249924F401E401B0E49F93AA279A1557
:1044DC008B049C04ED05FE05CF05D007A10798F4CD
:1044EC00AD2FDC2FCF2FFE2FE92D982C892E982F56
:1044FC00872F762F652F542F432F322F2227B8501A
:10450C0031F7BF9127C01B2EBF91BB27220F331F42
:10451C00441F551F661F771F881F991F881C991CE5
:10452C00EE1FFF1FCC1FDD1FAA1FBB1F8A149B048D
:10453C00EC05FD05CE05DF05A007B10748F08A188C
:10454C009B08EC09FD09CE09DF09A00BB10B21601A
:10455C001A94E1F62EF49401AF01BE01CD01000CCA
:02456C000895B0
:10456E00DF93CF931F930F939A9DF02D219FF00D04
:10457E008B9DF00D8A9DE02DF10D039FF00D029F96
:10458E00E00DF11D4E9DE00DF11D5E9DF00D4F9D58
:10459E00F00D7F936F93BF92AF925F934F93D501C0
:1045AE000E94C62A8B01AC01D7010E94C62AEB01DC
:1045BE00E80FF91FD6010E947F2B2F913F91D60154
:1045CE000E94C62AC60FD71FE81FF91FAF91BF91D1
:1045DE000E947F2B2F913F910E94C62AC60FD71F94
:1045EE00E81FF91FD6010E94C62AE60FF71F980191
:1045FE00BE01CF0111240F911F91CF91DF9108952C
:10460E008F929F92AF92BF92CF92DF92EF92FF92D4
:10461E00CF93C62F0E94032C4B015C0120E030E0AB
:10462E0048EC52E40E94082C0E94D12B6B017C01B5
:10463E0084E68C9DB0018D9D700D1124072E000C0B
:10464E00880B990B0E942B249B01AC01C501B40170
:10465E000E94CA2B20E030E040E752E40E94082C72
:10466E004B015C01B601DD0C880B990B0E942B24CB
:10467E009B01AC01C501B4010E94CB2BCB7FC3358E
:10468E0009F49058CF91FF90EF90DF90CF90BF90AC
:08469E00AF909F908F900895EA
:1046A6000F931F93CF93DF93DB01109719F48FEFCE
:1046B6009FEF3DC02D913C91119730FF25C0169676
:1046C6004D915C91179714962D913C911597421731
:1046D600530778F41296ED91FC9113978083129606
:1046E6002D913C9113972F5F3F4F12962D933C933C
:1046F600139716962D913C9117972F5F3F4F16965D
:104706002D933C93179713C01C96ED91FC911D9722
:10471600309769F2EB01092F182F0995892B39F685
:104726008E819F8101968E839F83812F902FDF91AB
:08473600CF911F910F9108952E
:10473E00CF93DF93DC011A968D919C911B97009776
:10474E00B9F001971A968D939C931B97FD01E80F74
:10475E00F91F808516962D913C9117972F5F3F4F2D
:10476E0016962D933C931797082E000C990B28C084
:10477E008D919C91119790FF10C01296ED91FC9126
:10478E0013978081082E000C990B0097B9F0319683
:10479E001296ED93FC9313970FC01E96ED91FC911C
:1047AE001F97309759F0ED01CD0109952E813F816C
:1047BE002F5F3F4F2E833F83992702C08FEF9FEFCE
:0647CE00DF91CF91089578
:1047D4000F931F93CF93DF93EC018B01892B31F45B
:1047E400C0913832D0913932209751F1B801CE01BD
:1047F4000E942729C80FD91F8881811105C01092F2
:104804003832109239321DC0B801CE010E940A29F3
:10481400FE01E80FF91FE0933832F09339328081BA
:10482400882341F0CF010196809338329093393236
:10483400108204C01092383210923932CE0102C074
:0E48440080E090E0DF91CF911F910F910895D9
:10485200E89409C097FB3EF4909580957095619518
:104862007F4F8F4F9F4F9923A9F0F92F96E9BB27CE
:104872009395F695879577956795B795F111F8CF4A
:10488200FAF4BB0F11F460FF1BC06F5F7F4F8F4FB5
:104892009F4F16C0882311F096E911C0772321F0AB
:1048A2009EE8872F762F05C0662371F096E8862F43
:1048B20070E060E02AF09A95660F771F881FDAF79A
:0A48C200880F9695879597F90895E1
:1048CC00A2E8B0E0ECE6F4E20C9498295C014A0111
:1048DC00CF57DF4F68837983C158D040C12CD12C7E
:1048EC00CF57DF4FE881F981C158D04080818823B0
:1048FC00E9F07401860120E830E0AE014F5F5F4FB4
:10490C00BE016F577F4FC5010E94820E8C0D9D1DFD
:10491C008C159D054CF48FE490E0809300309093BF
:10492C0001308FEF9FEF03C06C01DACFC601CE5779
:08493C00DF4FECE00C94F929B7
:10494400A0E1B0E0E8EAF4E20C949E29FB01BA018C
:10495400AE014F5F5F4F7A0140E1D7011D924A9546
:10496400E9F742E051E049835A838B839C83F7FF44
:1049740009C08FE490E080930030909301308FEF72
:104984009FEF14C0A9018C013197ED83FE83C70109
:104994000E94C3294F8158852D813E8142175307B8
:1049A40008F49A01F801E20FF31F10826096E6E022
:0449B4000C94FF2937
:1049B800A0E1B0E0E2EEF4E20C949E29FB01BA011A
:1049C800AE014F5F5F4F7A0140E1D7011D924A95D2
:1049D800E9F742E051E049835A838B839C83F7FFD0
:1049E80009C08FE490E080930030909301308FEFFE
:1049F8009FEF14C0A9018C013197ED83FE83C70195
:104A08000E94AB294F8158852D813E81421753075B
:104A180008F49A01F801E20FF31F10826096E6E0AD
:044A28000C94FF29C2
:104A2C00A0E0B0E0ECE1F5E20C9498296C015B019C
:104A3C007A01E901480181E08822992400FD03C034
:104A4C004217530750F0A701B501C6010E94ED288B
:104A5C00EC16FD0610F0C70117C08E010E191F09C8
:104A6C000115110541F0B60180E290E00E9453233C
:104A7C0001501109F5CF8114910429F4A701B50156
:104A8C00C6010E94ED28CE01CDB7DEB7ECE00C9448
:024A9C00F929F6
:104A9E00AC01FA0190814F5F5F4F9032D1F3292F15
:104AAE00092E000C330B295031092530310588F3BE
:104ABE009B3209F540E050E0319602C040E050E0F4
:104ACE0080E090E06AE02191022E000C330B20531F
:104ADE0031092A30310548F4689FD001699FB00D25
:104AEE001124CD01821B930BEECF452B49F49195EA
:104AFE008195910908959D3209F741E050E0DCCF90
:024B0E00089508
:104B1000CF93DF93CDB7DEB7C058D109CDBFDEBF8D
:104B20009E012B573F4FD9014D915D919D0160E84A
:104B300070E0CE0101960E94DC24AE014F5F5F4F12
:104B400020E030E0BA01E0E4F8E009C0848185FFAC
:104B5000FDCFDA018D91AD0182832F5F3F4FDB01E5
:104B60000D900020E9F71197A61BB70B2A173B07FA
:104B700068F3C058DF4FCDBFDEBFDF91CF910895FE
:104B8000CF93DF93DC01FA0161387105A9F0633836
:104B9000710521F06038710519F50EC0C081D18111
:104BA000CE010296808391838D919D910D90BC9151
:104BB000A02DE881F9810DC0C081D181CE0102967E
:104BC00080839183E881F9818D919D910D90BC91B5
:104BD000A02D80839183A283B38381E090E002C003
:0A4BE00080E090E0DF91CF9108958E
:104BEA0080913F32833020F580913632909137326E
:104BFA00019761F4E0E0F4E084818F7E848384810C
:104C0A008062848384818F7B848308958091363285
:104C1A00909137320297A9F4E0E0F4E08481806150
:104C2A00848384818F7D848384818F7B84830895A8
:104C3A0010923F32809140328E7F809340320E94A0
:044C4A000B2B089593
:104C4E000E94172888F09F5798F0B92F9927B751CF
:104C5E00B0F0E1F0660F771F881F991F1AF0BA9512
:104C6E00C9F714C0B13091F00E94E62BB1E008955F
:104C7E000C94E62B672F782F8827B85F39F0B93F51
:104C8E00CCF3869577956795B395D9F73EF49095C5
:0E4C9E008095709561957F4F8F4F9F4F0895C1
:104CAC00DC01ED91FC91119780818A3221F080E03A
:104CBC0090E03AE00EC03196ED93FC93DB01ED9160
:104CCC00FC911197CF0102968D939C9380819181D9
:104CDC000895ED91FC911197208120532A3068F4AE
:104CEC00389FA001399F500D1124CA01820F911DCC
:0C4CFC003196ED93FC931197ECCF0895D6
:104D08000F931F93CF938C01C62F80E10E94502BE5
:104D1800CC23E1F020E030E0E0EAF8E04C2F50E06E
:104D28004150510967E092E085818823ECF780853E
:104D3800D801A20FB31F8C932417350714F494835A
:104D480001C064832F5F3F4F2C1770F38C2FCF91D6
:064D58001F910F91089568
:104D5E00CF93DF93DB01ED91FC912081203259F04E
:104D6E00022E000C330B295031092530310518F075
:104D7E0080E090E015C0EB010E94EC27E881F981FC
:104D8E009F012F5F3F4F2883398321812032B1F35A
:104D9E00022E000C330B295031092530310570F3EA
:064DAE00DF91CF91089592
:104DB40080913F32833060F4E0E0F4E084818061EC
:104DC400848384818F7D8483848180648483089533
:104DD40080913F32833061F4E0E0F4E084818F7E9F
:104DE400848384818062848384818F7B8483089517
:104DF40010923F32809140328E7F809340320E94E5
:044E04000B2B0895D7
:104E080080913F32833060F4E0E0F4E084818F7E6B
:104E1800848384818062848384818F7B84830895E2
:104E280080913F32833061F4E0E0F4E08481806176
:104E3800848384818F7D84838481806484830895BE
:104E480010923F32809140328E7F809340320E9490
:044E58000B2B089583
:104E5C00A0E0B0E0E4E3F7E20C949A297C01FB01BA
:104E6C00EA01C901A280B380C480D5800081118180
:104E7C00209711F4C0E3D8E9009719F4CE010E94F1
:104E8C00D52AB7FC04C0A816B90608F4C5019601CA
:104E9C00AC01BE01C7010E941625CDB7DEB7EAE012
:044EAC000C94FB293E
:104EB0000F931F93CF93DF93EB01BA01FA010681A1
:104EC0001781A9010E94621F8F3FFFEF9F0789F0A2
:104ED0004AE050E060E070E0C8010E94102C288396
:104EE00039834A835B836C837D838E839F8380E0D9
:0C4EF00090E0DF91CF911F910F91089589
:104EFC000F931F93CF93DF93EB01BA01FA01068155
:104F0C001781A9010E94621F8F3FFFEF9F0789F055
:104F1C004AE050E060E070E0C8010E94142C288345
:104F2C0039834A835B836C837D838E839F8380E08C
:0C4F3C0090E0DF91CF911F910F9108953C
:104F4800990F0008550FAA0BE0E8FEEF1616170692
:104F5800E807F907C0F012161306E407F50798F0FA
:104F6800621B730B840B950B39F40A2661F0232B13
:104F7800242B252B21F408950A2609F4A140A6958F
:084F88008FEF811D811D0895CA
:104F9000CF93DF93FB014081042E000C550B41158C
:104FA0005105B9F0FC01CF012191222381F0022E9D
:104FB000000C330B42175307B1F7DB011196EF01D9
:104FC0002D91222331F039912317D1F3ECCF80E0DA
:084FD00090E0DF91CF910895FC
:104FD8000F931F93CF93DF938C01C0E0D0E0C801FB
:104FE8000E949F238F3F2FEF920779F0803291051F
:104FF80051F09C01295031092530310520F0B801C4
:105008000E94912802C02196EACFCE01DF91CF916C
:065018001F910F910895A5
:10501E0057FD9058440F551F59F05F3F71F047955B
:10502E00880F97FB991F61F09F3F79F08795089540
:10503E00121613061406551FF2CF4695F1DF08C05F
:10504E00161617061806991FF1CF8695710561057C
:04505E000894089515
:10506200A0E1B0E0E7E3F8E20C94A229CE010196B8
:1050720020E1FC0111922A95E9F722E031E029832F
:105082003A832D893E892B833C83AE01475E5F4F75
:105092006F89788D0E94DB296096E2E00C94032AE6
:1050A200CF93DF93EC0190E0E92FF0E0EE0FFF1FCA
:1050B200EC58F9468081811102C081810EC0A8811D
:1050C200B9812C91821305C091811196A883B9836D
:1050D20001C09F5F9B3040F3892FDF91CF910895EC
:1050E200FA0160387105CCF0623871051CF0633842
:1050F200710599F4A081B1819D012C5F3F4F2083FE
:1051020031834D915D916D917C91FC01408351837E
:105112006283738381E090E0089580E090E00895D7
:10512200FB018F3F2FEF9207B9F0228533852230A2
:10513200310594F4A9014F5F5F4F42875387DB012A
:10514200A20FB31F18968C93268137812150310903
:0E51520026833783992708958FEF9FEF0895E6
:10516000CF93DF9341155105A9F0DC01FB01EF015D
:105170008D91882351F09191992339F04130510557
:1051800021F041505109891791F390E02881821B49
:0E519000910902C080E090E0DF91CF91089578
:10519E0097FB10F8169400080F93083098F00850FB
:1051AE00232F342F452F562F672F782F892F902D91
:1051BE00F4CF05949795879577956795579547956D
:0C51CE00379527950A95AAF70F910895D0
:1051DA00A0E0B0E0E3EFF8E20C949C296C01EB014B
:1051EA008A017B01E40EF51ECE15DF0541F0899197
:1051FA00B601082E000C990B0E945323F5CFC80163
:0A520A00CDB7DEB7E8E00C94FD29F3
:10521400A0E0B0E0E0E1F9E20C949C298C016B0180
:10522400EC017E01E01AF10A6991662341F0062E31
:10523400000C770BC6010E94172B892B91F3C70131
:0A524400CDB7DEB7E8E00C94FD29B9
:10524E00A0E0B0E0EDE2F9E20C949C298C016B0138
:10525E00EC017E01E01AF10A6991662341F0062EF7
:10526E00000C770BC6010E94172B892B91F7C701F3
:0A527E00CDB7DEB7E8E00C94FD297F
:10528800E0E4F1E081818111FDCFE0E4F1E08FEF0E
:105298009FE38287938780914C0190914D01848789
:1052A800958781E88083178281E085838281816088
:0452B8008283089550
:1052BC000000803F000020410000C84200007A44FA
:1052CC0000401C460050C347002474498096184B7C
:1052DC0020BCBE4C286B6E4EF9021550EC78AD60BC
:0452EC00CAF2497148
:1052F000CF93DF93EB01FC014115510581F0415043
:105300005109DF01119629912083FD012111F4CF6C
:105310004A0F5B1F4A175B0711F01D92FBCFDF910D
:04532000CF9108958C
:105324002F923F924F925F926F927F928F929F92B1
:10533400AF92BF92CF92DF92EF92FF920F931F939F
:10534400CF93DF93CDB7DEB7CA1BDB0BCDBFDEBF78
:025354000994BA
:10535600A2E0B0E0E1EBF9E20C94A0298C014983CC
:105366005A83AE014F5F5F4F0E946624F801208189
:1053760024FF02C08FEF9FEF2296E4E00C94012AEF
:10538600A2E0B0E0E9ECF9E20C94A0298C01498393
:105396005A83AE014F5F5F4F0E946624F801208159
:1053A60024FF02C08FEF9FEF2296E4E00C94012ABF
:1053B600A2E0B0E0E1EEF9E20C94A0298C01498369
:1053C6005A83AE014F5F5F4F0E947500F80120813E
:1053D60024FF02C08FEF9FEF2296E4E00C94012A8F
:1053E6002A88398848885F846E847D848C849B846F
:1053F600AA84B984C884DF80EE80FD800C811B817D
:10540600AA81B981CE0FD11DCDBFDEBFED010895B2
:10541600A0E0B0E0E1E1FAE20C94A2299E01255F4A
:105426003F4F49855A856F8178858D819E810E947F
:08543600A224E2E00C94032A19
:10543E009C01205331092A30310558F08062815683
:10544E00910931E020E0069708F030E0832F922F8B
:08545E00089581E090E008953B
:105466009C012062215631092A31310550F09C01F8
:105476002053310981E090E02A30310520F080E0A8
:08548600089581E090E0089513
:10548E0097FB072E16F4009407D077FD09D00E94E3
:10549E005B2A07FC05D03EF4909581959F4F0895A9
:0854AE00709561957F4F089590
:1054B600AA1BBB1B51E107C0AA1FBB1FA617B70734
:1054C60010F0A61BB70B881F991F5A95A9F7809550
:0854D6009095BC01CD01089581
:1054DE0090913B3280913A32981748F4E92FF0E0E0
:1054EE00E050FE4C20819F5F90933B3202C02FEF25
:0654FE003FEF822F08952C
:10550400E0E4F4E080818D7F80838081816080830A
:10551400E0E2F8E01086118680EC868383E08783DE
:0655240081E08387089579
:10552A00092E0394000C11F4882352F0BB0F40F4A7
:10553A00BF2B11F460FF04C06F5F7F4F8F4F9F4FE7
:02554A000895C2
:10554C00E0EAF4E081E0818382E08283E0E4F8E049
:10555C008DE695E0808791878681806486830895A7
:10556C0060957095809590953095409550952195C6
:10557C003F4F4F4F5F4F6F4F7F4F8F4F9F4F089550
:10558C00A29FB001B39FC001A39F700D811D112478
:0E559C00911DB29F700D811D1124911D089567
:1055AA00FC01AF014F5F5F4F2081222311F0FA0106
:0C55BA00F8CF9F01281B390BC901089590
:1055C600689401C0E8948F929F92CF93DF930E94D4
:0C55D6006622DF91CF919F908F90089586
:1055E2000E949A2BE0EAF8E084E0808381E08283E3
:0A55F20085839AE096838383089571
:1055FC00696E66696E69747900494E46494E495424
:0A560C0059006E616E004E414E0021
:10561600E0E0F4E084818F7E848384818F7D8483BF
:0856260084818F7B84830895C9
:10562E00FC012E2F9F2F8191861721F08111F9CF2A
:08563E0090E00895822F089509
:105646000024A7FD00942A17300540055005600583
:08565600700580059005089520
:10565E00EC010E942A2C0E94292CCE010E942B2C98
:06566E00CE010E94272C72
:1056740068076C094C836A9074A07AC000806888BB
:0656840000846C8200812D
:10568A000E94C62AA59F900DB49F900DA49F800DDD
:06569A00911D112408958A
:1056A000880F81608093A708E0EAF8E0858188236D
:0456B000ECF7089576
:1056B400682F80E092E30E94842610923B3280930C
:0456C4003A320895D9
:1056C80010923D3210923C320E94F12A0E94A62A82
:0256D800089533
:1056DA00FC01480F591FE417F50711F06193FBCF3E
:0256EA00089521
:1056EC009C01215631092A31310510F48F75992707
:0256FC0008950F
:1056FE000E94C62A460F571FC81FD91F08F431969D
:02570E000895FC
:105710002A0D3B1D4C1D5D1D6E1D7F1D801F911FA1
:025720000895EA
:105722002A153B054C055D056E057F05800791072F
:025732000895D8
:10573400E0E0F4E08CE0828388E0828B838B089540
:10574400E0E2F8E084818823ECF780912008089552
:10575400494E4600696E66004E414E006E616E0011
:10576400FC01DB012D91BD0121932111FACF089594
:105774009C01215431092A31310508F480620895CD
:10578400494E4600696E66004E414E006E616E00E1
:0E5794005058BB27AA270E949F200C94952AEC
:0E57A2000E9427266894B1110C94E72B0895FD
:0E57B00000240A941616170618060906089516
:0E57BE0000240A941216130614060506089518
:0E57CC00E894BB2766277727CB0197F908954D
:0C57DA0097F99F6780E870E060E0089598
:0C57E600696E66006E616E00E697EA973F
:0A57F2000E94A42708F481E0089546
:0A57FC000E94A42708F48FEF08951F
:0A58060060E070E00E942C04089599
:085810000E941D1E0C94952A54
:085818000E94F81E0C94952A71
:0858200021E00E9486100895AA
:0858280020E00E9486100895A3
:07583000286E756C6C290065
:065838009FEF80EC0895D3
:06583E000E942C040895F5
:06584400286E696C2900CA
:04584A000C940000BA
:04584E000E94730041
:025852000895B7
:025854000895B5
:025856000895B3
:00000001FF
