:100000000C944B000C94AD2A0C94AD2A0C94CD2288
:100010000C94AD2A0C94AD2A0C94AD2A0C94AD2A04
:100020000C94AD2A0C94AD2A0C94AD2A0C94AD2AF4
:100030000C94AD2A0C94AD2A0C94AD2A0C94AD2AE4
:100040000C94AD2A0C94AD2A0C94AD2A0C94AD2AD4
:100050000C94AD2A0C94AD2A0C94AD2A0C94AD2AC4
:100060000C94AD2A0C94AD2A0C94AD2A0C94AD2AB4
:100070000C94AD2A0C94AD2A0C94AD2A0C94AD2AA4
:100080000C94AD2A0C94AD2A0C94AD2A0C94AD2A94
:100090003000323D800011241FBECFEFCDBFDFE323
:1000A000DEBFE0E9F0E040E017C0B591A5913591E1
:1000B0002591059107FD0CC095918591EF01F92FD0
:1000C000E82F05900D92A217B307D9F7FE0104C0DF
:1000D0001D92A217B307E1F7E539F40731F70E9443
:0A00E0007C2A0C94C329F894FFCF8A
:1000EA00A1E9B1E0EBE7F0E00C9439287C015A0170
:1000FA00C257DE4F68837983CE58D140C457DE4F4A
:10010A0018821982CC58D140612C712C6E012EE7CD
:10011A00C21A2EEFD20A8EE891E08C0F9D1F029729
:10012A00C057DE4F88839983C059D140C257DE4FEA
:10013A00E881F981CE58D1408081882309F481C3AE
:10014A008AE0D6011D928A95E9F782E091E08C0F48
:10015A009D1FF60186839783A0E8B0E0A087B18748
:10016A00BE0162577E4FC7010E94AA258C01C25761
:10017A00DE4FE881F981CE58D1408081811113C0C8
:10018A00C457DE4F88819981CC58D140080F191F76
:10019A00C457DE4F08831983CC58D14080818532F9
:1001AA0009F038C33FC0853259F3C7010E94822241
:1001BA004C010196A1F0C257DE4FE881F981CE5871
:1001CA00D1408081082E000C990B8816990639F0C7
:1001DA00B701C4010E9438278EEF9FEF26C3C45788
:1001EA00DE4F88819981CC58D1400196C457DE4FA1
:1001FA0088839983CC58D140C257DE4F8881998130
:10020A00CE58D1400196C257DE4F88839983CE5883
:10021A00D140BE0162577E4FC7010E94AA25080F2E
:10022A00191FA5CFCF010196C257DE4F8883998344
:10023A00CE58D140D60114961D921C9215978181F1
:10024A008A3251F43296C257DE4FE883F983CE5888
:10025A00D14001E010E002C000E010E0C257DE4FDA
:10026A0088819981CE58D1400E947C24F6018483EA
:10027A009583C257DE4FE881F981CE58D1408081FB
:10028A00082E000C990BC0970A9740F43196C25772
:10029A00DE4FE883F983CE58D140EBCFCE018257A7
:1002AA009E4F0E94F826582EC257DE4FE881F981E8
:1002BA00CE58D1408081082E000C990B0E943D2A0D
:1002CA00883691052CF5853691050CF0EEC08136FD
:1002DA00910509F4EAC04CF48532910509F465C127
:1002EA008B35910509F48DC188C28336910509F4CD
:1002FA0001C18436910509F080C29E0124573E4F00
:10030A00A601BE016F5F7F4FC7010E94FF2524C06F
:10031A008037910509F472C0A4F48E36910509F468
:10032A0094C0F4F58936910509F067C29E012457F5
:10033A003E4FA601BE016F5F7F4FC7010E9425177E
:10034A000BC08537910509F188379105A1F18337EB
:10035A00910509F052C200C197FD67C2C257DE4F2C
:10036A0088819981CE58D1400196C257DE4F888341
:10037A009983CE58D1400115110509F03FC1652D69
:10038A0070E0950141E050E05BC09E0124573E4F6A
:10039A00A601BE016F5F7F4FC7010E94252615C0C7
:1003AA009E0124573E4FA601BE016F5F7F4FC701D2
:1003BA000E94521F0AC09E0124573E4FA601BE0149
:1003CA006F5F7F4FC7010E94EA1A97FD2EC2C2577C
:1003DA00DE4F88819981CE58D1400196C257DE4FAF
:1003EA0088839983CE58D1400115110509F006C1B9
:1003FA00652D70E0950140E050E022C09E0124572F
:10040A003E4FA601BE016F5F7F4FC7010E94EA1AE5
:10041A0097FD0BC2C257DE4F88819981CE58D140D1
:10042A000196C257DE4F88839983CE58D140011571
:10043A00110509F0E3C0950140E050E060EF70E07B
:10044A00CE0101960E94911BF0C1C257DE4F8881EE
:10045A009981CE58D1400196C257DE4F888399833D
:10046A00CE58D140C357DE4F9881CD58D140C4579A
:10047A00DE4F2881CC58D140892F880F880B2983D9
:10048A009A838B838C838D838E838F8388870115D0
:10049A00110509F0B3C0652D70E0950140E050E008
:1004AA00CE0101960E94911BA9C09E0124573E4F7E
:1004BA00A601BE016F5F7F4FC7010E94491297FDD7
:1004CA00B4C1C257DE4F88819981CE58D140019676
:1004DA00C257DE4F88839983CE58D1400115110542
:1004EA0009F08CC0652D70E0A501CE0101960E942D
:1004FA00ED249BC1F0E85F1280C1D60114968D915C
:10050A009C911597892B31F481E090E014968D9394
:10051A009C931597C257DE4F88819981CE58D14056
:10052A000196C257DE4F88839983CE58D140012B5A
:10053A0059F4D501ED91FC911197CF0102968D9353
:10054A009C930081118102C000E010E09E012457B3
:10055A003E4F40E050E024C0B0E85B124EC1C257A3
:10056A00DE4F88819981CE58D1400196C257DE4F1D
:10057A0088839983CE58D140012B59F4D501ED9146
:10058A00FC911197CF0102968D939C930081118162
:10059A0002C000E010E09E0124573E4F41E050E0C7
:1005AA00B601C7010E948C2040C1B0E85B1225C188
:1005BA00C257DE4F88819981CE58D1400196C257E1
:1005CA00DE4F88839983CE58D140C7010E94822288
:1005DA008532910581F4C457DE4F88819981CC58C0
:1005EA00D1400196C457DE4F88839983CC58D140B5
:1005FA0081E090E01AC1B7010E94382780E090E0BC
:10060A0014C1E0E85E12F9C0012B59F4D501ED914D
:10061A00FC911197CF0102968D939C9300811181D1
:10062A0002C000E010E0C257DE4FE881F981CE58DF
:10063A00D140CF010196C257DE4F88839983CE58A5
:10064A00D14081818E3551F43296C257DE4FE8830C
:10065A00F983CE58D1409924939401C0912C41E05A
:10066A0051E0692D70E0CE0101960E94F8291982A5
:10067A00C257DE4FE881F981CE58D14080818D3250
:10068A0069F43196C257DE4FE883F983CE58D140D8
:10069A0081E089198FA741E049192AC08D35D9F718
:1006AA003196C257DE4FE883F983CE58D14081E0B4
:1006BA008919A0968FAFA097EECF882309F44DC071
:1006CA008D3201F1C257DE4FE881F981CE58D1400F
:1006DA008191A2E0B0E0AC0FBD1FA80FB11D87FD4C
:1006EA00BA954C93C257DE4FE883F983CE58D1406E
:1006FA00C257DE4FE881F981CE58D14080818D35CD
:10070A00E1F62BC0C057DE4FA881B981C059D1404C
:10071A008C918823B9F28D35A9F2CF010196C2577F
:10072A00DE4F88839983CE58D1408D919C91DC010C
:10073A008C91082E000C990B2181022E000C330B90
:10074A00821793070CF0BECF0196A1E0B0E0AC0F80
:10075A00BD1FA80FB91F4C93EFCF0115110511F159
:10076A0018012101401A510AC7010E9482224C0134
:10077A00E2E0F0E0EC0FFD1FE80FF91F808188230B
:10078A0071F1F10181921F01C457DE4F888199816D
:10079A00CC58D1400196C457DE4F88839983CC58F0
:1007AA00D140DFCFC7010E9482224C01E2E0F0E093
:1007BA00EC0FFD1FE80FF91F8081882371F0C457E1
:1007CA00DE4F88819981CC58D1400196C457DE4FBB
:1007DA0088839983CC58D140E5CF412C512CB7015D
:1007EA00C4010E9438274114510439F0011511053A
:1007FA0021F0F801E40DF51D1082C257DE4F888101
:10080A009981CE58D1400196C257DE4F8883998389
:10081A00CE58D14081E090E0FFEF8F169F0611F08D
:10082A0080E090E091958195910997FD03C0680E4B
:10083A00791E7CCC8F3F2FEF920719F46114710453
:0E084A0009F0C301CF56DE4FE2E10C949A286C
:10085800A8E0B0E0E2E3F4E00C943928FB0130971B
:1008680011F0808391839C012F833887D9018C9163
:100878002F5F3F4F082E000C990B80329105A1F392
:10088800AC01495051094530510570F38D3291053D
:1008980029F42F8338875524539405C08B9711F476
:1008A8002F833887512C80E0282F082E000C330B1B
:1008B800AF81B885A20FB31F9C91992371F0D9011C
:1008C800AC5DBC464C91941302C08F5FEDCFD9014B
:1008D800A35DBC462C919217C1F3833010F430E02D
:1008E80017C0309709F43AC3883009F083E02F81A4
:1008F8003885280F311D87FD3A95208331832EC313
:10090800AC014A5C5C46DA014C9124130EC03F5F8F
:10091800832F032E000C990B6F817885680F791F40
:10092800DB012C912111ECCF06C0865C9C46DC01D2
:100938008C91281761F3333011F0412C1BC030978C
:1009480009F413C3283299F420E0822F022E000CF8
:10095800990B8B01080F191FD8013C91332339F0EB
:10096800393211F02F5FF1CF0196680F791F60833C
:100978007183FBC2242D042C000C330B29833A838A
:10098800D9014F815885A40FB51F8C91803311F47C
:100998004394F0CF3F01442019F08F7D883541F012
:1009A80060E070E0CB01E12CF12C00E010E0ABC17D
:1009B80009811A810F5F1F4F8F819885080F191FB2
:1009C800D8018C91082E000C990B0E94C628892BFF
:1009D80029F4F80180818E3209F02AC12224239457
:1009E800240CEF81F885E20DF11D27FCFA95808132
:1009F800803311F42394F5CF812C912C5401E12CF0
:100A0800F12C00E010E0322C3E0C232D032C000CBE
:100A1800330B2B833C8369014F815885C40ED51E47
:100A2800D6018C91982F9F7D903509F49AC08E320B
:100A380039F4B52DB0615B2EDD24D394D30C3CC0C2
:100A4800082E000C990B0E94C628892B09F4E9C0CE
:100A5800F6014081842F042E000C990B9C01205331
:100A680031092A30310518F480ED840F03C00E9443
:100A7800012A8753F8E0EF16F10494F490E0A0E01F
:100A8800B0E02CE130E0201B310B04C0880F991F27
:100A9800AA1FBB1F2A95D2F7882A992AAA2ABB2AF5
:100AA8002FEFE21AF20A0C5F1F4FADCFE114F104E9
:100AB80089F404501109D3942D2C0D2C000C330803
:100AC8004F815885420D531D4D835E83DA018C9109
:100AD800803361F3082E000C990B0E94C628892BDD
:100AE80089F1AD81BE814C91842F042E000C990BA5
:100AF8009C01205331092A30310518F480ED840F08
:100B080003C00E94012A8753B8E0EB16F104B4F43D
:100B180090E0A0E0B0E027E030E02E193F09220F76
:100B2800331F220F331F04C0880F991FAA1FBB1F32
:100B38002A95D2F7882A992AAA2ABB2AEFEFEE1A11
:100B4800FE0AB9CF8B819C8101962816390651F48B
:100B580089819A8101962B813C812817390711F4E4
:100B680063C0D32CEF81F885ED0DF11DD7FCFA9504
:100B7800EF83F88780818F7D803509F054C08181AB
:100B88008B3229F08D3229F4F52DF8605F2E82E042
:100B980001C081E0EF81F885E80FF11D8081082E02
:100BA800000C990BC097412C0A9708F03DC0DF0153
:100BB800A40DB11D47FCBA958C91803311F4439470
:100BC800F6CF80E090E06AE0DF01A40DB11D47FC9C
:100BD800BA952C91022E000C330BA90140535109F0
:100BE8004A30510570F4442031F0AC01649FC001D3
:100BF800659F900D112420533109820F931F439450
:100C0800E3CF411004C060E070E0CB01C4C153FEE3
:100C180003C0919581959109080F191FEF83F887F3
:100C280003C0432C01C0412C6114710449F411C064
:100C38006114710441F3812C912C540100E010E0FF
:100C4800EF81F885E40DF11D47FCFA95D301ED938A
:100C5800FC9381149104A104B104A9F2F0E8F815F9
:100C680020F42FEF921AA20AB20AB7FC07C0880C28
:100C7800991CAA1CBB1C01501109F7CF03383FEF80
:100C880013079CF402384FEF140761F081149104A4
:100C9800A104B10439F00F5F1F4FB694A79497943D
:100CA8008794F0CF01E81FEF0BC0015011090038FD
:100CB80011050CF46BC1812C912C540100E810E053
:100CC80001581F4F012E000C220B330BF7E1000FC8
:100CD800111F221F331FFA95D1F7A9E0B694A794E4
:100CE80097948794AA95D1F7802A912AA22AB32AA1
:100CF80042C1EE3289F4B52DB0615B2EEF81F885E3
:100D08003196EF83F8873F812885AF81B885EC91CC
:100D1800F52DF07154FEEDCF4E2F0E2E000C550B15
:100D2800405351094A30510518F5252D2260522E9D
:100D380039E0E316F104B9F0FF2311F0015011096D
:100D48004FEFE41AF40AAAE0B0E09B01AC010E945C
:100D5800D929E053DC01CB018E0F911DA11DB11DD6
:100D6800BC01CD01CBCFF111C9CF0F5F1F4FC6CF4B
:100D7800EF7DE53409F04EC0EF81F88521812D32F1
:100D880031F4F52DF8605F2EEF81F88506C0EF810C
:100D9800F8852B3211F0319601C03296E983FA8337
:100DA80049815A814F5F5F4FA981BA812C912033C5
:100DB80019F449835A83F4CFE12CF12C40E0AAE0DE
:100DC80039812A81E981FA815191E983FA83E52FF2
:100DD800052E000CFF0BF0973A9768F44330A1F00A
:100DE800AE9D9001AF9D300D112450537901E50E51
:100DF800F11C4F5FE5CF411107C0E32FF22F42915D
:100E0800403311F03E2F2F2F53FE06C0F194E1948A
:100E1800F10802C0E12CF12C6114710431F051FE8B
:100E280004C0D3013C9311962C930E9456234B0186
:100E38005C0120E030E0A9010E94812A882309F49E
:100E4800E2CEC8018E0D9F1DB52DB170B98397FFF5
:100E580041C09195819591098A309105DCF06AE04D
:100E680070E00E94EE28182F9B83660F771F660F8D
:100E7800771FFB01E25DFF4620813181428153816A
:100E8800C501B4010E94902A4B015C01812F9B810E
:100E9800009789F0880F991F880F991FFC01E65F5A
:100EA800FF462081318142815381C501B4010E94EE
:100EB800902A4B015C0120E030E040E850E0C50199
:100EC800B4010E94812A87FF56C0E981EE2309F404
:100ED80058C03FC0009709F44EC08A309105DCF035
:100EE8006AE070E00E94EE28182F9B83660F771F38
:100EF800660F771FFB01E25DFF4620813181428149
:100F08005381C501B4010E94942A4B015C01812FD1
:100F18009B81009789F0880F991F880F991FFC0102
:100F2800E65FFF462081318142815381C501B401CA
:100F38000E94942A4B015C012FEF3FEF4FE75FE7D8
:100F4800C501B4010E94862A1816ACF4F981FF2362
:100F5800C1F060E070E080E890E81DC0812C912C21
:100F680020E8A22E2FE7B22E06C0812C912C90ECFF
:100F7800A92E9FE7B92EC501B40150FE0CC09058A8
:100F88000AC060E070E080E890E005C0880C991C19
:0E0F9800AA1CBB1C95CE2896E2E10C949A2868
:100FA600A6E2B0E0E9EDF7E00C9439288F8F98A31C
:100FB6006E8B7F8B288FFB010190F081E02DE987F6
:100FC600FA87FB0102811381248135812A8B3B8BB1
:100FD6008085918589A39AA326803780FA0180802F
:100FE6009180A280B38020E030E0A901C501B40160
:100FF6000E94812A87FF06C0B7FAB094B7F8B0946A
:101006008DE204C0598552FF47C38BE2F10180830C
:101016002A893B89215031092B833C8341E050E0EA
:10102600488B598B06C08A899B898B839C83188A37
:10103600198AD501C401BF770097E0E8AE07EFE74C
:10104600BE0799F4F88D2F2FFF0F330B215431096A
:1010560088899989820D931D2A31310518F46AE52C
:1010660074E919C06EE574E916C00197A048BF4738
:10107600A8F0488D242F440F330B21543109888959
:101086009989820D931D2A31310518F462E674E9B7
:1010960002C066E674E90E94352AEDC220E030E01F
:1010A600A901C501B4010E94812AC12CD12C20E8D6
:1010B600E22E2FE3F22E19821A82882309F48CC0BD
:1010C6008D829E82AF82B88620E030E040E251E415
:1010D600C701B6010E94942A2B013C01D501C40127
:1010E60084199509A609B709B7FF07C0B095A09559
:1010F600909581959F4FAF4FBF4F0297A105B105C0
:1011060044F489819A81019689839A8373016201E5
:10111600DBCFA5019401C301B2010E94812A87FD9C
:10112600F0CF8D819E81AF81B8858C199D09AE095E
:10113600BF090196A11DB11D0397A105B10508F4CC
:1011460049C01D821E82A5019401C701B6010E94F5
:10115600862A18160CF040C0E981FA81E43DFE4F5C
:10116600E4F44D815E81452BC1F420E030E040E897
:101176005AE5C501B4010E94942A4B015C0120E0A6
:1011860030E040E85AE5C701B6010E94942A6B0197
:101196007C0181E090E08D839E8320E030E040E298
:1011A60051E4C701B6010E94902A6B017C01E981D6
:1011B600FA813197E983FA83D501C4018C199D0917
:1011C600AE09BF090196A11DB11D0397A105B10581
:1011D60008F0B9CF46015701288D022E000C330BBB
:1011E600288F398FC9010E943D2A8A8F17FD03C0B7
:1011F6000D831E8304C046E050E04D835E835A8D06
:10120600573641F4012B09F04CC281E090E08D8302
:101216009E8347C24A8D4F8706C029813A8137FF90
:1012260052C256E65F878D819E8101968D839E838D
:101236009F859636B9F4E981FA81F7FF08C0C12C7B
:10124600D12C90E8E92E9FE3F92E19821A82FA8DA5
:10125600F73641F02D813E8149815A81240F351F91
:101266002D833E831C2DDDA2EBA20F2D8B869C8643
:10127600AD86BE861C8A1D8A8C899D89ED81FE817C
:101286008E179F07DCF5212F3DA14BA1502F6B85B3
:101296007C858D859E850E94902A0E94301D2B019B
:1012A6003C010E94542A6B8FA3019201612F7DA1FC
:1012B6008BA1902F0E94942A2B853C854D855E85B7
:1012C6000E944D2A9B01AC0150582B873C874D87C5
:1012D6005E8720E030E040E251E4612F7DA18BA1E2
:1012E600902F0E94902A162F7DA38BA3092F4C893D
:1012F6005D894F5F5F4F4C8B5D8BBECF20E030E04A
:1013060040EA50E4612F7DA18BA1902F0E94942A80
:101316002B013C019B01AC016B857C858D859E85EF
:101326000E94812A87FD0DC0A30192016B857C85F1
:101336008D859E850E94812A811106C0FB8DF0FD58
:1013460003C0412C512C3201A5019401C301B20105
:101356000E944E2A4B015C0120E030E040E251E45D
:10136600C701B6010E94942A6B877C8B182F092F20
:101376009B01482F592FC501B4010E94862A87FD7B
:1013860014C029813A812F5F3F4F29833A833F85D5
:10139600363679F44D815E814F5F5F4F4D835E83B4
:1013A6005B855DA38C898EA30BC0CB86DC8A1E2D44
:1013B6000F2D9F85953639F0EB85EDA3FC89FEA3AD
:1013C600E980FA8006C02B852DA33C893EA3E12C3B
:1013D600F12C48885988C12CD12C1C8A1D8A1B8661
:1013E6001C8649855A85407155274BA35CA32B85DE
:1013F6003C854D815E812417350734F08C899D89A3
:10140600892B09F494C09FC03201EE89FF8980853B
:10141600918505974816590688F72DA13EA1412FBB
:10142600502FC501B4010E94902A0E94301D6B8F77
:101436007C8F8D8F9E8F0E94542A6A30710514F01E
:1014460069E070E08BA19CA1892B69F46115710597
:1014560051F49A8D973639F4F7FE05C03601EFEF51
:101466006E1A7E0A38C02C893D89232B99F4F7FE23
:1014760011C03FEF431A530AF101E60DF71D4EE284
:1014860040838B819C8101978B839C83E1E0F0E014
:10149600EC8BFD8BF101E40DF51D36016114710431
:1014A60031F020E3219331E0631A7108F7CFC601CA
:1014B600840D951D2B813C812C193D092C014FEF84
:1014C600441A540AF101E80FF91F605D6083C901EF
:1014D60001978B839C832B8D3C8D4D8D5E8D6DA1ED
:1014E6007EA1812F902F0E94942AA50194010E942B
:1014F6004D2A4B015C01B7FAB094B7F8B09420E0DE
:1015060030E040E251E46DA17EA1812F902F0E9430
:10151600902A6DA37EA3182F092F91E0E91AF108EE
:10152600EB85FC853196EB87FC87630160CFF985F7
:10153600F4FF09C0F101E40DF51D8EE280839201EE
:101546002F5F3F4F2901A101440D551D4D835E8339
:10155600FA011082FF85F53609F061C0E9A1FAA10A
:10156600E20DF31D3197108229813A8137FF08C0B9
:1015760031952195310929833A8301E010E002C0B3
:1015860000E010E0E9A1FAA13197E20DF31D22E097
:1015960030E08AE0E82EF12CCF01821993094981C7
:1015A6005A81452B91F089819A81B7010E94EE28D4
:1015B600805D829369837A83215031094B815C81F6
:1015C600415051094B835C83E7CF121613065CF337
:1015D600FC013197E20DF31D012B11F42BE201C042
:1015E6002DE220830297B101680F791F288D398D6E
:1015F600215431092A31310510F025E601C025E4D0
:10160600FB0120832B813C81225031092B833C83B3
:101616004816590624F48D819E810E94352A398503
:1016260031FF29C030FD27C04B815C811416150699
:1016360014F5C1010E946929820D931D9C0122198E
:10164600330948895989241735074CF0FC01208154
:10165600EB81FC81E80FF91F20830197EFCF4B81C7
:101666005C8160E370E088899989820D931D0E94F0
:10167600F8291A8A1B8AC1010E94692909851A85D7
:101686002A893B89AC01B1018F8D98A10E94432420
:10169600A696E2E10C949A28598553FFC4CC80E2C1
:1016A600B5CC89819A818C3F9F4F54F0E981FA81AC
:1016B6002D813E81E217F3070CF4AFCD35E604C069
:0C16C600F5E6FF87CFCD36E63F87CCCDA0
:1016D200A0E2B0E0EFE6FBE00C943928888F998F06
:1016E200FB01298320812F8331813A8F828193816B
:1016F200888B998B248135812C873D8780859185C4
:101702008B8F9C8F66807780FA01C080D180E280C7
:10171200F38020E030E0A901C701B6010E94812ACE
:1017220087FF06C0F7FAF094F7F8F0948DE204C050
:101732005F8152FFE1C28BE2F30180832C853D85FC
:10174200215031092E873F8741E050E04D835E836F
:1017520006C08C859D858E879F871D821E82B7015C
:10176200A6017F77E9810E2E000CFF0BEA87FB872B
:1017720041155105F0E86F07FFE77F07A9F42A85B5
:101782003B85215431098D819E81860D971D2A3119
:10179200310518F46AE874E902C06EE874E90E943F
:1017A200352A8EE894E998C28D819E81860D971D17
:1017B2004130510560487F4788F02A853B85215496
:1017C20031092A31310518F462E974E902C066E987
:1017D20074E90E94352A86E994E97EC220E3FC017D
:1017E2002083ED81FE813196E60DF71D2D813E812C
:1017F2002E5F3F4F2D833E834A855B8541545109BD
:101802004E8B5F8B4A31510510F088E701C088E5A5
:10181200808320E030E0A901C701B6010E94812A3D
:101822001B821C821F8E1982882309F469C050E82A
:1018320058A38FE38A832F8D398148A15A816F8DF6
:10184200798188A19A810E944E2A5B018C01A701AD
:1018520096010E94862A18160CF447C0EB81FC817F
:101862003196EB83FC83AF8EB98208A31A83E3CF50
:1018720020E030E040E05FE36F8D798188A19A81BA
:101882000E94942A20E030E0A9010E94812A81115D
:1018920018C020E030E040E85AE56F8D798188A1D8
:1018A2009A810E94942A6F8F798388A39A8320E079
:1018B20030E040E85AE5C701B6010E94942A6B0164
:1018C2007C0120E030E040E05FE36F8D798188A108
:1018D2009A810E94942A6F8F798388A39A832B819D
:1018E2003C81215031092B833C832F8D398148A1C2
:1018F2005A81C701B6010E94812A87FDB9CF04C06F
:1019020030E838A34FE34A838889998997FF02C058
:1019120088E190E0FC013196E887F9878F8C998005
:10192200A8A0BA8016018701412C512C9401A5016F
:10193200B101C8010E94902A0E94301D6A8B7B8BE4
:101942008C8B9D8B9401A5010E94942A9B01AC0172
:10195200B101C8010E944D2A1B018C0120E030E038
:1019620040E85DE3B401C5010E94942A4B015C0189
:10197200FFEF4F1A5F0A2889398937FF09C020E033
:1019820030E0A901B101C8010E94812A882331F007
:1019920048855985441655064CF202C04886598638
:1019A20020E030E040E051E4B401C5010E94942AF5
:1019B2004B015C019B01AC01B101C8010E94812A6B
:1019C20087FD12C0A5019401B101C8010E94812ABC
:1019D20081110DC06A897B898C899D890E94542A54
:1019E20061707727672B19F4812C912C5401A50182
:1019F2009401C701B6010E944E2A6B017C01DC01F1
:101A0200CB01BF770097A048BF4709F4B8CE2E8418
:101A12003F8482E0281A3108E885F985F195E1953D
:101A2200F109EA8BFB8B0D811E81412C512C1E8604
:101A32001F86188619862B8D3C8D255031092D8FD6
:101A42003E8F0A871B87ED8DFE8D0E171F0708F04C
:101A520093C02F8D398148A15A81C701B6010E94D6
:101A6200902A0E94301D4B015C010E94542AAB0156
:101A72006115710541F4E885F985EF2B21F0FFEF3F
:101A82004F1A5F0A4FC02E853F85232B99F4E885B4
:101A9200F985EF2B79F00F5F1F4FEA85FB85E60D85
:101AA200F71D2EE2208331E0231A3108E1E0F0E055
:101AB200EE87FF87F301E00FF11F92012115310537
:101AC20029F0A0E3A19321503109F8CFF801E40DE8
:101AD200F51DEA87FB87241835084A3051051CF4A6
:101AE200605D7F4F02C0695A7F4F2E893F892A313C
:101AF200310550F4CB018062815691094A9720F456
:101B0200CB010E94012ABC010A851B850F5F1F4F72
:101B1200EA85FB85E60DF71D608331E0231A310863
:101B2200412C512C2F8D398148A15A81C501B40114
:101B32000E94942A9B01AC01C701B6010E944D2A62
:101B42006B017C0120E030E040E85DE36F8D79813C
:101B520088A19A810E94942A6F8F798388A39A839D
:101B62004885598541505109488759878A899B89F7
:101B72008417950709F065CF2E853F85232B49F5FC
:101B8200F301E00FF11F41145104E1F04889598932
:101B920014161506BCF45F8150FD14C08EE28083DA
:101BA200F8013196E60DF71DC20120E3219301975A
:101BB200E9F7040D151D0F5F1F4F40945094240C3C
:101BC200351C07C08F8184FF04C08EE280830F5FC3
:101BD2001F4FF301E00FF11FE887F9871082EB8DA9
:101BE200FC8D3197E60DF71D10822B813C8137FF6A
:101BF20009C03195219531092B833C83EE24E3946E
:101C0200F12C02C0E12CF12C21E030E08AE0C82E58
:101C1200D12CCF01861997094B815C81452B79F034
:101C22008B819C81B6010E94EE28805D82936B833A
:101C32007C832150310941E0241A3108EACF213056
:101C4200310571F3FC013197E60DF71DE114F10442
:101C520011F42BE201C02DE220830297B301680F39
:101C6200791FEE89FF897A9710F020E701C020E5FD
:101C7200FB0120830817190724F4888599850E949F
:101C8200352AFF81F1FF27C0F0FD25C022E0221A8C
:101C9200310812141304FCF4C3010E946929860D51
:101CA200971D9C01261937094D815E81241735073E
:101CB2003CF0FC012081E20DF31D20830197F1CF5E
:101CC200A10160E370E08D819E81860D971D0E94C7
:101CD200F8291C861D86C3010E9469290F811A8D6D
:101CE2002C853D85AC01B301888D998D0E944324DA
:101CF200A096E2E10C949A285F8153FF2ACD80E2FC
:021D02001BCDF7
:101D0400A2E1B0E0E8E8FEE00C943C284C016B0151
:101D140019821A828FEF9FEF8B839C831D821E8210
:101D24004F83588729873A87A12CB12CD6016D900F
:101D34007C90F301EA0DFB1D808181110FC0D60157
:101D4400ED93FC938081853209F0D9C13F01BFEF47
:101D54006B1A7B0AF6016082718219C0853279F3AD
:101D6400B401082E000C990B0E9436224FEFA41ADE
:101D7400B40ADCCF8C32ACF08D32F9F489819A81CB
:101D8400816089839A833196D601ED93FC93D601C1
:101D9400ED91FC9180818B3269F789819A8184600D
:101DA400F0CF803221F489819A818860EACF83322E
:101DB40051F489819A818061E4CF803321F489814F
:101DC4009A818260DECFB701C6010E9451258D83BE
:101DD4009E8397FF0BC029813A81B1E02B27298389
:101DE4003A839195819591098D839E8389819A8106
:101DF40080FF03C08D7F89839A83D601ED91FC9186
:101E0400119780818E3249F43196ED93FC93B7019A
:101E1400C6010E9451258B839C83C6010E94F8262B
:101E2400582ED601ED91FC918081082E000C990B5F
:101E34000E943D2A893609F443C084F4833609F4A8
:101E440008C134F4853209F42DC18136E1F036C17C
:101E54008436B1F188360CF4DFC030C1803709F420
:101E64009AC03CF48E3609F4C2C08F3609F461C0BE
:101E740025C1853709F440C0883709F476C0833713
:101E840009F01CC1F9C0652D70E0A701CE010B96C5
:101E94000E941827892B09F42CC1D601ED91FC91DD
:101EA4001197CF0101968D939C932081AE01455FDC
:101EB4005F4FBE016F5F7F4FC4010E94690B16C163
:101EC400652D70E0970141E050E0CE010B960E9431
:101ED400D718892B09F40DC1F601808191810196EF
:101EE40080839183AE01455F5F4FBE016F5F7F4F7B
:101EF400C4010E941818FAC0652D70E0970140E0F3
:101F040050E0CE010B960E94D718892B09F4F1C03A
:101F1400D6018D919C91119701968D939C93AE015E
:101F2400455F5F4FBE016F5F7F4FC4010E94F22087
:101F3400DDC0652D70E0970140E050E0CE010B96C6
:101F44000E94D718892B09F4D4C0F60180819181AD
:101F5400019680839183AE01455F5F4FBE016F5F41
:101F64007F4FC4010E94BC1FC1C0652D70E0970162
:101F740040E050E0CE010B960E94D718892B09F45B
:101F8400B8C0D601ED91FC911197CF0101968D93C4
:101F94009C93208122C0D701ED91FC911197CF0130
:101FA40002968D939C93008111810B871C871D865B
:101FB4001E861F86188A198A1A8AF60180819181E1
:101FC4000196808391838B859C85892B29F420E05D
:101FD40030E044E555E984C028E7AE01455F5F4F32
:101FE400BE016F5F7F4FC4010E94EA137FC0A50149
:101FF400400F511F652D70E09701CE010B960E9492
:10200400121E892B09F475C0D6018D919C911197EC
:1020140001968D939C9373C0652D70E0A701CE014A
:102024000B960E941827892B09F463C0D601ED9101
:10203400FC911197CF0101968D939C932081AE0161
:10204400455F5F4FBE016F5F7F4FC4010E94D3079E
:102054004DC0B0E85B124DC0F601808191810196BC
:1020640080839183D701ED91FC911197CF01029662
:102074008D939C93808120C0B0E85B123AC0F60136
:1020840080819181019680839183D701ED91FC91A8
:102094001197CF0102968D939C934081518120E04A
:1020A40030E01EC0B0E85B1224C0F601208131810B
:1020B4002F5F3F4F208331838B870DC085E28B8751
:1020C400D6016D927C9219821A821D821E828FEF34
:1020D4009FEF8B839C8321E030E0AE01455F5F4F2F
:1020E400BE016F5F7F4FC4010E94D5258A0D9B1DE1
:1020F40007C0F60180819181019680839183C50197
:082104006296EFE00C949D28A7
:10210C00ABE1B0E0ECE8F0E10C9439288C839D83D2
:10211C006C877D8749835A832E8B453251051CF47D
:10212C004130510539F486E190E080930030909372
:10213C00013079C12C813D812115310509F473C120
:10214C00F9011081112309F46EC11901103239F013
:10215C00812F012E000C990B0997059730F43FEF56
:10216C00231A330AF1011081F1CF1D3249F4F10128
:10217C00118191012F5F3F4F190131E03A8709C05E
:10218C001B3231F4F101118191012F5F3F4F190185
:10219C001A86103309F044C0C10101968F8B988FB9
:1021AC00F101118189819A818F7E892BD9F5812F3B
:1021BC008F7D883561F51281812F8062082E000C8D
:1021CC00990B81569109812E012E000C99084A9782
:1021DC0030F0C4010E94DA28892B39F038C1C401CF
:1021EC000E94012A87538031A4F32F89388D2C83C8
:1021FC003D838C859D85892B09F01AC1612C712C2E
:10220C00812C912C198E1F8A412C512C33C1E981C0
:10221C00FA81EF2B09F426C12F88388C01E00DC010
:10222C0000E003C02F88388C01E029813A81232BF0
:10223C0021F48AE090E089839A839E89992399F00E
:10224C00EA85E1111FC0FFEFFE872FEF2F873FEFCD
:10225C00388B8FEF898B9FEF9A8BEFEFEB8BFC8B8F
:10226C002FE72D8B18C03FEF3E878FEF8F879FEFA7
:10227C00988BEFEFE98BFFEFFA8B2FEF2B8B3C8BCF
:10228C008D8B09C01E861F86188A198A1A8A1B8A8A
:10229C001C8A90E89D8B1B86612C712C812C912CB7
:1022AC00198E1F8A412C512CEA81EE0FEE0BEE8316
:1022BC00212F2062022E000C330B21563109812F65
:1022CC00012E000C990B2A31310528F40E94012AA9
:1022DC0087538B8306C0C0970A9708F089C01053A8
:1022EC001B83FB818F2FFF0F990B29813A8182175A
:1022FC0093070CF07DC03B8531115DC05301640127
:10230C00E98CFF88820129813A814E81542F642FF8
:10231C00742F842F942F0E949A2159016A017B01FA
:10232C008C019B81990F990B2B81392F492F592F98
:10233C00692F792F892F0E94132A2B833F83B42F67
:10234C00A52F6A8F7B8F888799879301A401698D4C
:10235C007F89C201AB80BF80CB2EDA2EEA8CFB8C3E
:10236C00088519850E941C2A09F070F48E8988232F
:10237C0071F12E853F85488959896A897B898C89B9
:10238C009D890E941C2A18F5E2E2F0E0E0930030EF
:10239C00F0930130FE85FB832F852F83B889A989A3
:1023AC003A893A8F8B898B8F9C899887ED89E9873D
:1023BC00F1E0FB870CC06B827F82B82DA92D298D93
:1023CC002A8F3F893B8F4886598681E08B879FEF08
:1023DC00291A390AF101108101E06B807F808B2E64
:1023EC009A2EFA8DF98FEB8DEF8B4884598460CF40
:1023FC00FB85F1110FC02A85222361F09301A40102
:10240C00698D7F89C2010E944A2939014A01698F6D
:10241C007F8B2C018C859D85892B61F1002381F0AC
:10242C002C823D820DC02C853D85232B09F4E6CEF4
:10243C00612C712C812C912C198E1F8A412C512CC2
:10244C002C813D81EC85FD852083318313C0910166
:10245C002E5F3F4F2F8B388F00E080E190E0898317
:10246C009A8305C001E0E8E0F0E0E983FA832F8865
:10247C00388CE3CE9301A401698D7F89C2016B96E0
:06248C00E2E10C949A2825
:10249200A0E1B0E0EFE4F2E10C9439282C016F875F
:1024A200788BFA01390104811581A084B1842681D7
:1024B200378129873A870E949326F301208131814F
:1024C200820F931F80839183C50101970115110526
:1024D20009F48C015C01081719070CF45801E9840E
:1024E200FA84F1E0EF1AF10821E030E02F83388717
:1024F200212C312C1D821E82C12CD12C812C912C9D
:102502001B861C862D863E862A143B040CF036C19F
:10251200C2010E9482228C018F3F3FEF930739F460
:10252200121413040CF42AC18FEF9FEF4EC1C11491
:10253200D104D1F48B32910511F08D97A9F42114B5
:10254200310431F08214930419F0B201C80119C0A8
:10255200F7010183F3018081918101968083918348
:10256200CC24C394D12CFDC02B853C85232BD1F4E4
:102572000E321105B9F48114910431F0B2018EE2E8
:1025820090E00E943827FAC02EE2F7012183F3017E
:102592008081918101968083918321E030E02B87B5
:1025A2003C87DFC08114910451F58D819E81892B76
:1025B20039F0C8010E943D2A80379105A1F406C076
:1025C200C8010E943D2A8536910569F4F70101830D
:1025D200F30180819181019680839183C12CD12C5A
:1025E2008F809884BEC0C60101962816390639F438
:1025F200C8010E943D2A8837910509F4D5C08D8112
:102602009E81892B31F0C8010E94C628892B31F0A6
:10261200A0C0C801C0970A9708F49BC0B201C801C4
:102622000E9438272C143D0409F0A8C0E4EFF4E915
:1026320080819181A281B38189839A83AB83BC8398
:10264200F1013296ED83FE83EA15FB051CF080E072
:1026520090E06FC029853A85220D331D2F8338877C
:10266200C12CD12CAA24AA94BA2C7101EC0CFD1C09
:102672004701C2010E9482228C01019609F457C0CF
:102682008FEFA816B80671F4C8010E943D2A8C018A
:102692008936910501F18E36910579F5AA24A39424
:1026A200B12C1BC0C8010E943D2AF501EE0FFF1F8D
:1026B20021E030E02C0F3D1FE20FF31F0190F0816B
:1026C200E02DEC0DFD1D2081022E000C330B821734
:1026D200930719F012C0A12CB12CEF81F885019358
:1026E200EF83F887FFEFCF1ADF0A23E0C216D10487
:1026F20009F0BBCF83E090E01CC08D819E818E15D6
:102702009F05C4F3E985FA85EE0EFF1EF1E08F1AEC
:102712009108821493040CF49ACFF70182917F01FD
:10272200B201082E000C990B0E943827EFCF8FEFD1
:102732009FEF1816190614F59101280F391F2D87DE
:102742003E87F30120813181820F931F8083918321
:1027520015C0F7010183F301808191810196808385
:102762009183FFEF2F1A3F0A2F8138852F5F3F4F4A
:102772002F8338873FEFE31AF30AC4CEE985FA853F
:102782008D859E85E80FF91F108260E070E08985D3
:102792009A850E94A72AEF85F889608371838283D4
:1027A200938380E090E011C0F7018081803309F0CB
:1027B20026CF0183F30180819181019680839183E9
:1027C20021E030E02D833E83CCCF6096E2E10C9491
:0227D2009A2843
:1027D400A4E1B0E0E0EFF3E10C9439288F8398870B
:1027E40069837A834B8B5C8B122FDB011296ED91FC
:1027F400FC91139714962D913C9115972D833E834C
:10280400CD90DC90119716962D903C901797F7FD7C
:1028140003C0E894C1F802C0E1E0F0E0C6018071B1
:10282400992789879A87C4FE1FC0AB89BC892C91DC
:1028340011963C91119712964C91129713965C91B4
:10284400139714966C91149715967C911597169678
:102854008C91169717969C91A0E00E94B72921F0BD
:102864008D819E81029702C08D819E819601287080
:1028740033272B873C87C3FC0197AB89BC894C90D9
:1028840011965C90119712966C90129713967C9007
:10289400139714968C90149715969C9015971696EA
:1028A400AC9016971796BC90A981BA811896ED90B2
:1028B400FC901997B1E0EB1AF108D101AE0DBF1DE0
:1028C4001C928B839C839F01281B390B2D873E8789
:1028D400C601827099278F87988B812F012E000C57
:1028E400990BDC01A154B109A98BBA8B32E0E31630
:1028F400F10430F489859A85892B09F04CC073C0A2
:102904009201A301B401C501A0E00E94B72981F19D
:10291400B1E0EB1AF108C2018F7099278A30910552
:1029240014F4C09602C0895A9F4FE989FA897A97AC
:1029340048F49C012062215631092A31310510F4F2
:102944000E94012AF101EE0DFF1D80832B813C8141
:10295400215031092B833C839201A301B401C501A9
:1029640004E00E94782729013A014B015C01BECFA3
:102974008D859E85AB81BC818A0F9B1F1816190615
:102984003CF21A161B060CF0B5CFEF85F889EF2B35
:1029940009F0BECFAFCFAB89BC892C9111963C9185
:1029A400119712964C91129713965C911397149663
:1029B4006C91149715967C91159716968C91169791
:1029C40017969C91A0E00E94B72969F0F101EE0DE1
:1029D400FF1D31971083B2E0EB1AF108F101EE0DFF
:1029E400FF1D80E38083EB85FC85EF2B41F0F1E054
:1029F400EF1AF108F101EE0DFF1D80E28083A98139
:102A0400BA8118964D915C911997415051094E190C
:102A14005F09B1016E0D7F1D86012D813E818F817D
:102A240098850E9443249C01EF81F88580819181DF
:102A340090FF09C0A981BA8112968D919C91139738
:102A4400821793070CF4C9016496E2E10C949A2866
:102A5400496E76616C69642074696D6520666F7275
:102A64006D617400496E76616C69642074696D658A
:102A74002076616C756573002532642532642566A1
:102A840000253032643A253032643A252E3366000C
:102A940043757272656E74206C61743A20252E3809
:102AA400662C2063757272656E74206C6F6E3A20AA
:102AB400252E38660D0A0044657374696E61746965
:102AC4006F6E206C61743A20252E38662C20646564
:102AD4007374696E6174696F6E206C6F6E3A202531
:102AE4002E38660D0A005363616C65642063757249
:102AF40072656E74206C61743A20252E38662C2021
:102B040063757272656E74206C6F6E3A20252E3870
:102B1400660D0A005363616C6564206465737469AF
:102B24006E6174696F6E206C61743A20252E38666C
:102B34002C2064657374696E6174696F6E206C6FA8
:102B44006E3A20252E38660D0A004C61746974753E
:102B54006465207468726573686F6C643A20252E0E
:102B640038660D0A004C6F6E67697475646520746D
:102B740068726573686F6C643A20252E38660D0A96
:102B8400004C6174697475646520646966663A20F2
:102B9400252E38660D0A004C6F6E6769747564657E
:102BA40020646966663A20252E38660D0A00596F3E
:102BB400752068617665206172726976656420614A
:102BC4007420796F75722064657374696E617469B9
:102BD4006F6E210D0A004E6F742079657420617444
:102BE400207468652064657374696E6174696F6EBE
:102BF4002E204B65657020676F696E672E0D0A0085
:102C040024474E474741002C0054696D653A2025FE
:102C1400730D0A004C617469747564653A20252E3D
:102C240036662025630D0A004C6F6E6769747564FF
:102C3400653A20252E36662025630D0A00474E4747
:102C44004741000A00466F756E6420474E4747416E
:0F2C54002073656E74656E63653A2025730A0000
:102C64008F929F92AF92BF92CF92DF92EF92FF9298
:102C7400C62ED72EE82EF92E822E932EA42EB52EF4
:102C84005F934F933F932F939F938F937F936F9370
:102C940084E99AE69F938F930E94B52482EC8F93E4
:102CA4008AEB8F9380E78F9382E08F9382E48F93F4
:102CB40083E38F9384EE8F9381EF8F938BEB9AE66C
:102CC4009F938F930E94B52420E034E244E759E4B3
:102CD4006C2D7D2D8E2D9F2D0E94942AC62ED72ECD
:102CE400E82EF92E20E034E244E759E4682D792DEA
:102CF4008A2D9B2D0E94942A862E972EA82EB92EBB
:102D04009F938F937F936F93FF92EF92DF92CF9273
:102D14008AEE9AE69F938F930E94B5248CEC8F934E
:102D240091EB9F938F938AEF8F938CE48F938BE235
:102D34008F938FE88F9382E88F9388E19BE69F932C
:102D44008F930E94B5248DB79EB788968DBF9EBF82
:102D540084E48F938FEA8F931F921F928EE49BE6F5
:102D64009F938F930E94B52481E48F9380E28F9385
:102D74001F921F9289E69BE69F938F930E94B5242E
:102D840022E83FE84BE25CE46C2D7D2D8E2D9F2DD7
:102D94000E944D2A6B017C01E894F7F82AEF3CEC81
:102DA40041EB5CE4682D792D8A2D9B2D0E944E2ADF
:102DB4004B015C01E894B7F8FF92EF92DF92CF9257
:102DC40085E89BE69F938F930E94B524BF92AF92B0
:102DD4009F928F928BE99BE69F938F930E94B524D9
:102DE4008DB79EB748968DBF9EBF20E030E04FEA76
:102DF40054E4C701B6010E94812A181654F420E055
:102E040030E040E251E4C501B4010E94812A181661
:102E14004CF082EB9BE69F938F930E94B5240F9016
:102E24000F9008C08AED9BE69F938F930E94B52470
:102E34000F900F90FF90EF90DF90CF90BF90AF90E6
:062E44009F908F9008959D
:102E4A00A8E0B0E0EBE2F7E10C9439284C016F837B
:102E5A007887FA0159018481958189839A83E0846C
:102E6A00F18446805780C4010E949326F50120818F
:102E7A003181820F931F8083918389819A81892B63
:102E8A0021F4F7013197E983FA834AE0C42ED12C61
:102E9A00612C712C00E010E0C70101978D839E839D
:102EAA0089819A81081719070CF097C0ED81FE8174
:102EBA000E171F070CF091C0C4010E9482227C01E8
:102ECA009FEFE916F90639F4101611060CF485C0BD
:102EDA008FEF9FEFA4C001151105B1F4EBE2EE16D6
:102EEA00F10421F0FDE2EF16F10471F4F201E0823F
:102EFA00F501808191810196808391836624639490
:102F0A00712C01E010E0CCCFC201800F911F8B839E
:102F1A009C8306151705C1F538019FEF691A790ACE
:102F2A00EAE0CE16D10441F4F0E3EF16F10451F5CC
:102F3A0028E0C22ED12C28C088E0C816D10411F589
:102F4A00C701806288379105E9F4C4010E94822290
:102F5A001C01B4010E943827C1010E94C628892B8E
:102F6A0071F0EB81FC81E0828301F501808191811E
:102F7A0001968083918390E1C92ED12C91CFB4011F
:102F8A00C10111C0612C712CC701C0970A9770F05A
:102F9A00F0E1CF16D10429F4C7010E94C628892B73
:102FAA0081F4B401C7010E94382717C088E0C81607
:102FBA00D10439F498E3E916F1041CF08AE0C82E2A
:102FCA00D12CEB81FC81E0820F5F1F4FF5018081DC
:102FDA00918101968083918363CFF201E00FF11F03
:102FEA001082FAE0CF16D10441F44AE050E060E0E2
:102FFA0070E0C2010E94982A06C0A60160E070E053
:10300A00C2010E949C2AEF81F88520833183428382
:10301A005383648375838683978380E090E0289640
:06302A00E2E10C949A287B
:10303000ADE0B0E0EEE1F8E10C94392889879A8799
:103040006B837C83FA01DB011296CD90DC901397A1
:1030500014968D919C9115978D839E83ED90FC9095
:103060001197E982FA8216960D90BC91A02DAF833C
:10307000B88720803180428053806480758086804C
:1030800097808101B42DF52DE62D7B868C869D865B
:103090009101A201B301C401A0E00E94B7294CF440
:1030A0000E944A298901B42FF52FE62F7B878C8750
:1030B0009D87D7FC04C0E894E1F8E982FA82910187
:1030C000A201B301C401A0E0ED80FE800E94B729F7
:1030D0001CF0898182FF04C081E0E81AF10805C074
:1030E00083FF03C091E0E91AF108CE0101965C016B
:1030F0008AE0C82ED12C2B2F3F2F4E2F5B856C855D
:103100007D858B819C810E943E1AFC019101A20168
:10311000B301C401A0E00E94B7291CF0898182FF9D
:1031200012C031970F8118850E0F1F1F9101A20148
:10313000B301C401A0E00E94B72914F08BE201C0E2
:103140008DE2D80108C083FF07C03197AF81B885F1
:10315000AE0FBF1F80E28C9309811A81AB81BC81C5
:1031600018964D915C911997415051094E1B5F0B78
:103170006F8178856E0F7F1F2D813E8189859A85AD
:103180000E9443249C01E985FA858081918190FF0A
:1031900009C0AB81BC8112968D919C9113978217C7
:0E31A00093070CF4C9012D96E2E10C949A28D5
:1031AE000F931F93CF93DF93FC01D90168387105FC
:1031BE0031F194F461387105B1F12CF46038710578
:1031CE0009F478C09FC06238710509F459C064389B
:1031DE00710509F46FC096C0603A710509F448C0D4
:1031EE002CF46039710509F44BC08CC0603C71053C
:1031FE0009F476C0603F710509F472C083C0CD91A9
:10320E00DC911197CE0102968D939C93452B39F04C
:10321E009881892F880F880B908381835BC088816A
:10322E008083118268C0CD91DC911197CE010496F6
:10323E008D939C93452B99F088819981AA81BB81AE
:10324E00AC01BD01770F440B542FBA0180839183DB
:10325E00A283B383448345834683478328C0088172
:10326E0019812A813B81008311832283338345C0D8
:10327E00CD91DC911197CE0102968D939C9323C034
:10328E00CD91DC911197CE0108968D939C93788108
:10329E0069815A814B813C812D819E818F81708302
:1032AE00618352834383348325839683878381E0AE
:1032BE0090E02AC0CD91DC911197CE0102968D93AC
:1032CE009C93452BA1F099812881892F880F880B1B
:1032DE002083918382838383848385838683E6CF51
:1032EE00CD91DC911197CE0102968D939C9308811E
:1032FE001981008311831282138214821582168221
:10330E001782D5CF80E090E0DF91CF911F910F9182
:02331E00089510
:103320004F925F926F927F928F929F92AF92BF92D5
:10333000CF92DF92EF92FF920F931F93CF93DF9381
:10334000CDB7DEB7C456D109CDBFDEBF8C0146E094
:1033500050E064E07CE60E945727892B09F079C091
:1033600044E650E0B801CE0101960E941F28A596C0
:103370001FAEA5976BE07CE6CE0101960E94172355
:103380006BE07CE680E090E00E9417238C016BE00C
:103390007CE680E090E00E9417235C016BE07CE615
:1033A00080E090E00E9417237C016BE07CE680E0E7
:1033B00090E00E9417234C016BE07CE680E090E0F7
:1033C0000E9417236C01F7016081C5010E94EA2168
:1033D000662E772EB82EA92EF6016081C4010E94B8
:1033E000EA21462E572E882E992E762F272F352DFF
:1033F000482D592D662D772D8B2D9A2D0E94321632
:10340000C8010E942C1C9F938F938DE09CE69F9394
:103410008F930E94B524F70180811F928F93AF9202
:10342000BF927F926F9288E19CE69F938F930E9458
:10343000B524F60180811F928F939F928F925F92A5
:103440004F928CE29CE69F938F930E94B524CDBF50
:10345000DEBFCC59DF4FCDBFDEBFDF91CF911F91D3
:103460000F91FF90EF90DF90CF90BF90AF909F9023
:0C3470008F907F906F905F904F900895B8
:10347C00A2E1B0E0E4E4FAE10C943928FC010A8BF7
:10348C00912E822E732E642E552E462E7D83CC8645
:10349C00DA86A886B986268137812E833F83D501AB
:1034AC008D919C91228133810084F185E02D31979F
:1034BC0037FF02C021E030E04E815F81E40FF51F41
:1034CC001082EB83FC831701A1E0B0E0A983BA83DF
:1034DC00F901EE19FF09ED87FE879C012270332755
:1034EC002F87388B3A85330F330B398BEB81FC816B
:1034FC002E813F81E21BF30B4B815C8142175307FA
:10350C0009F44FC02A89392D482D572D662D752D5C
:10351C00842D9D81A0E00E94B72999F14C854B87A1
:10352C00A42EBA84C988DC2CEC2CFC2C0C2D1C2D64
:10353C002A89392D482D572D662D752D842D9D8169
:10354C000E947729C90129839A83805DAB81BC8154
:10355C008E93AB83BC83B1E02B1A31082A89392DA9
:10356C00482D572D662D752D842D9D810E9479290E
:10357C002A8B932E842E752E662E572E482E9D83C5
:10358C00B5CF8D859E85820D931D1816190634F2C4
:10359C001214130444F48F859889892B09F0BECF3B
:1035AC0002C0E0E0F0E0A981BA81AB2B41F4A88520
:1035BC00B9858D919C9111978F7E8D939C93CF01A2
:0835CC006296E2E10C949A28DA
:1035D400A4E0B0E0E0EFFAE10C9439287C016B83BD
:1035E4007C83FA01590144805580C084D18466806B
:1035F40077800E949326F50120813181820F931FE9
:10360400808391834114510421F42601F1E04F1A7F
:103614005108130100E010E0C601019789839A83E1
:10362400041515050CF042C089819A810817190701
:10363400ECF5C7010E9482226C019FEFC916D906DE
:1036440031F41016110694F18FEF9FEF64C0C60198
:103654000E94C628892BF1F401301105B1F4C6018A
:103664000E943D2A8837910581F4F30180818033DB
:1036740061F4C7010E9482224C01B7010E943827DD
:10368400C4010E94C628892B29F4B701C6010E94EF
:1036940038270CC0F101C1921F010F5F1F4FF501C4
:1036A40080819181019680839183BACFD301A00F49
:1036B400B11F1C92033011053CF4EB81FC81108294
:1036C40011821282138221C0F301329600E010E0CD
:1036D4009801819190ED980F9A3018F0806299EAE0
:1036E400980F84E0000F111F221F331F8A95D1F712
:1036F400090F111D211D311DAE17BF0751F7EB81B5
:10370400FC81008311832283338314821582168201
:0E371400178280E090E02496E2E10C949A285F
:10372200CF93DF93FC01D9016838710521F18CF444
:103732006138710561F12CF46038710509F476C0C5
:1037420085C062387105B1F16438710509F46EC043
:103752007DC0603A710509F469C024F460397105CD
:1037620049F174C0603C710509F460C0603F7105A5
:1037720009F45CC06BC0CD91DC911197CE01029629
:103782008D939C93A881B98180818C935CC0CD91EB
:10379200DC911197CE0102968D939C93A881B981F9
:1037A20040815181628173814D935D936D937C93CE
:1037B200139749C0CD91DC911197CE0102968D935A
:1037C2009C93452B99F070816181528143813481B0
:1037D200258196818781E881F98170836183528393
:1037E200438334832583968387832DC0A881B9813F
:1037F20070816181528143813481258196818781E3
:103802007C9311966C93119712965C931297139670
:103812004C93139714963C93149715962C931597E3
:1038220016969C93169717968C930DC0CD91DC91AA
:103832001197CE0102968D939C93A881B9818081C4
:1038420091818D939C9381E090E002C080E090E0B2
:06385200DF91CF91089503
:10385800AF92BF92CF92DF92EF92FF920F931F9396
:10386800CF93DF93CDB7DEB72897CDBFDEBF9E01DC
:103878002B5F3F4F3F932F93225031093F932F9354
:10388800225031093F932F932CE73AE63F932F9329
:103898009F938F930E94D826CDBFDEBF039709F070
:1038A80040C009811A8108311105F0F5EB80FC80D0
:1038B8003CE3E316F104D8F5DD80CE80BF80A88410
:1038C80020E030E0A9016D2D7C2D8B2D9A2D0E94D2
:1038D800812A88237CF120E030E040E752E46D2D16
:1038E8007C2D8B2D9A2D0E94862A882334F5AF9241
:1038F800BF92CF92DF92FF92EF921F930F9385E8CA
:103908009AE69F938F931F9284E18F9380E292E3CC
:103918009F938F930E94B228CDBFDEBF80E292E3CF
:103928000EC084E59AE60BC088E69AE608C088E6E9
:103938009AE605C088E69AE602C088E69AE62896DE
:10394800CDBFDEBFDF91CF911F910F91FF90EF9018
:0A395800DF90CF90BF90AF9008956C
:10396200DF92EF92FF920F931F93CF93DF93809199
:103972003C32811155C06BC0E0913A3281E08E0F2A
:1039820080933A32F0E0EF5FFE4C408190913A3200
:1039920081E09F3F08F480E0890F80933A324432FD
:1039A20039F4E0923432F0923532D092023043C090
:1039B2002E3F310508F043C0F9013196E0933432CD
:1039C200F0933532D901AE5FBF4C4C934A3011F0BF
:1039D2004D3089F5EE5FFF4C108261E47CE682E0B7
:1039E20090E30E946F26892BB1F01F930F930E94E0
:1039F200B52482E090E39F938F93DF93CF930E944D
:103A0200B52482E090E30E9490190F900F900F90DE
:103A12000F900F900F9010923432109235320BC0EB
:103A220007E41CE6C9E4DCE6EE24E394F12C0F2E55
:103A3200F4E2DF2EF02D2091343230913532909124
:103A42003A3280913B32981397CF10923C32DF91F9
:0E3A5200CF911F910F91FF90EF90DF9008959C
:103A60008F929F92AF92BF92CF92DF92EF92FF928E
:103A70000F931F938B019C0157E13695279517955E
:103A800007955A95D1F71127A8014F57510947318A
:103A900051050CF045C057FD2DC00FEF1FEF2FE76C
:103AA00030E004C035952795179507954A95D2F7CC
:103AB0004801590186229722A822B92289288A28FA
:103AC0008B2871F197FF07C0DC01CB01800F911F9C
:103AD000A21FB31F02C0DC01CB01009510952095F9
:103AE000309580239123A223B323482F392F2A2FE7
:103AF0005B2F1AC097FF0FC08B019C01000F111F95
:103B0000221F331F012B022B032B51F040E030E02A
:103B100020E85FEB09C040E030E020E050E004C066
:103B2000462F372F282F592F642F732F822F952F31
:103B30001F910F91FF90EF90DF90CF90BF90AF90CB
:063B40009F908F90089594
:103B460010C00E94622A58F00E945B2A40F029F4B5
:103B56005F3F29F00C94702A51110C946A2A0C9438
:103B6600A42A0E94B62668F39923B1F3552391F34C
:103B7600951B550BBB27AA2762177307840738F0D6
:103B86009F5F5F4F220F331F441FAA1FA9F335D033
:103B96000E2E3AF0E0E832D091505040E695001CE7
:103BA600CAF72BD0FE2F29D0660F771F881FBB1FA1
:103BB600261737074807AB07B0E809F0BB0B802D7F
:103BC600BF01FF2793585F4F3AF09E3F510578F0AB
:103BD6000C94702A0C946A2A5F3FE4F3983ED4F35F
:103BE600869577956795B795F7959F5FC9F7880F7F
:103BF600911D9695879597F90895E1E0660F771FD1
:103C0600881FBB1F621773078407BA0720F0621B61
:0E3C1600730B840BBA0BEE1F88F7E095089530
:103C2400CF93DF93DC01F90164387105D9F164F4B1
:103C34006138710521F16238710509F440C06038BA
:103C4400710509F054C02EC060397105C1F184F4C6
:103C54006838710509F04BC0C081D181CE0102964C
:103C640080839183E881F981ED93FC9340833CC088
:103C7400603A7105B9F0603C7105A1F038C0C081AB
:103C8400D181CE01029680839183E881F981ED93FD
:103C9400FC93052E000C660B770B408351836283E3
:103CA400738322C0C081D181CE0102968083918327
:103CB400E881F981ED93FC934083518315C0C08161
:103CC400D181CE01029680839183E881F981ED93BD
:103CD400FC9340835183852F880F880B82838383D1
:103CE400848385838683878381E090E002C080E0BB
:083CF40090E0DF91CF910895EB
:103CFC000FC00E945B2A38F00E94622A20F09523A4
:103D0C0011F00C94702A0C94A42A11240C946A2A95
:103D1C000E94B62670F3959FC1F3950F50E0551F86
:103D2C00629FF001729FBB27F00DB11D639FAA2704
:103D3C00F00DB11DAA1F649F6627B00DA11D661F53
:103D4C00829F2227B00DA11D621F739FB00DA11D74
:103D5C00621F839FA00D611D221F749F3327A00D2E
:103D6C00611D231F849F600D211D822F762F6A2FCA
:103D7C0011249F5750409AF0F1F088234AF0EE0F2F
:103D8C00FF1FBB1F661F771F881F91505040A9F75C
:103D9C009E3F510580F00C94702A0C946A2A5F3F68
:103DAC00E4F3983ED4F3869577956795B795F79598
:103DBC00E7959F5FC1F7FE2B880F911D9695879510
:043DCC0097F90895C6
:103DD000A0E0B0E0EEEEFEE10C943F285C01FB01B8
:103DE0004A01C480D58000851185E680F7800E9455
:103DF0009326F40120813181820F931F8083918368
:103E0000C114D10421F46801F1E0CF1AD108C0E057
:103E1000D0E001501109CC15DD05BCF5C017D10764
:103E2000A4F5C5010E9482228F3F2FEF920721F453
:103E30001C161D0654F12FC0209789F48B32910572
:103E400019F08D32910559F4F7018083F4018081D6
:103E50009181019680839183C1E0D0E0DCCF9C0109
:103E6000205331092A30310520F0B5010E9438274E
:103E70000CC0F701EC0FFD1F80832196F4018081B7
:103E80009181019680839183C6CFCE0DDF1D18826C
:103E900080E090E002C08FEF9FEFCDB7DEB7ECE09F
:043EA0000C94A028B6
:103EA400A0E0B0E0E8E5FFE10C943B284C01EB0115
:103EB400FA017901A480B58060847184C680D780BA
:103EC4000E949326F70120813181820F931F808302
:103ED4009183A114B10421F45301F1E0AF1AB108A4
:103EE400260100E010E021E0621A71080A151B05A2
:103EF40024F5061517050CF5C4010E9482228F3F94
:103F0400EFEF9E0721F410161106BCF02CC09C01A3
:103F1400205331092830310520F0B4010E9438279C
:103F24000CC0F20181932F010F5F1F4FF7018081B5
:103F34009181019680839183D9CFF601E00FF11F1F
:103F4400108248E050E060E070E0C6010E949C2AC4
:103F5400288339834A835B836C837D838E839F8329
:103F640080E090E002C08FEF9FEFCDB7DEB7E0E1D5
:043F74000C949C28E5
:103F7800A2E0B0E0E2ECFFE10C9439281C014B010F
:103F8800FA01DB0112962D913C91139714964D90EE
:103F98005C9015978D919C91119789839A831696B9
:103FA8006D907C90179737FD03C08D7F89839A8326
:103FB8000081118122813381448155816681778115
:103FC800FE0131965F0188E0C82ED12C7201C40130
:103FD8000E943E1A298124FF06C00197F301E80FC9
:103FE800F91F20E32083298123FF06C00197F301ED
:103FF800E80FF91F20E2208309811A81D40118965D
:104008004D915C91199741505109481B590BB301C7
:10401800680F791F9201C1010E9443249C01F1019C
:104028008081918190FF08C0D40112968D919C9156
:104038001397821793070CF4C9012296E2E10C94B6
:024048009A28B4
:10404A0011C00E945B2A38F00E94622A20F039F4DB
:10405A009F3F19F426F40C94A42A0EF4E095E7FB8A
:10406A000C94702AE92F0E94B62658F3BA176207F1
:10407A0073078407950720F079F4A6F50C94692A4A
:10408A000EF4E0950B2EBA2FA02D0B01B901900169
:10409A000C01CA01A0011124FF27591B99F0593FAD
:1040AA0050F4503E68F11A16F040A22F232F342FF5
:1040BA004427585FF3CF469537952795A795F04043
:1040CA005395C9F77EF41F16BA0B620B730B840B58
:1040DA00BAF09150A1F0FF0FBB1F661F771F881F10
:1040EA00C2F70EC0BA0F621F731F841F48F4879568
:1040FA0077956795B795F7959E3F08F0B0CF93955A
:0E410A00880F08F09927EE0F97958795089576
:10411800A0E0B0E0E2E9F0E20C943D286C01EB018C
:104128005A017901452B49F00E949326F701208115
:104138003181820F931F808391836C807D80480139
:10414800C0E0D0E06114710449F5C6010E948222E2
:104158008F3FFFEF9F0731F4209789F10115110573
:1041680009F527C0A114B10449F08032910551F135
:104178009C01295031092530310520F1011511051F
:1041880011F0F40180832196F701808191810196D5
:1041980080839183FFEF8F1A9F0AD4CFC615D70566
:1041A800A4F2DCCFA114B10421F0F801EC0FFD1F3B
:1041B800108281E090E0CD2B61F480E00AC08FEF9F
:1041C8009FEF07C0B6010E9438270115110589F332
:0C41D800ECCFCDB7DEB7EEE00C949E28D3
:1041E400A2E0B0E0E8EFF0E20C9439283C014B0186
:1041F400FA01DB0112962D913C91139714964D9080
:104204005C9015978D919C91119789839A8316964A
:104214002D903C90179737FD03C08D7F89839A8337
:1042240000811181228133814481558166817781A6
:10423400FE0131965F018AE0C82ED12C7201C401BF
:104244000E943E1A09811A81D40118964D915C91FD
:10425400199741505109481B590BB101680F791F37
:104264009201C3010E9443249C01F3018081918146
:1042740090FF08C0D40112968D919C9113978217D8
:0E42840093070CF4C9012296E2E10C949A28EB
:1042920088249924F401E401B0E49F93AA279A1593
:1042A2008B049C04ED05FE05CF05D007A10798F409
:1042B200AD2FDC2FCF2FFE2FE92D982C892E982F92
:1042C200872F762F652F542F432F322F2227B85056
:1042D20031F7BF9127C01B2EBF91BB27220F331F7F
:1042E200441F551F661F771F881F991F881C991C22
:1042F200EE1FFF1FCC1FDD1FAA1FBB1F8A149B04CA
:10430200EC05FD05CE05DF05A007B10748F08A18C8
:104312009B08EC09FD09CE09DF09A00BB10B216056
:104322001A94E1F62EF49401AF01BE01CD01000C06
:024332000895EC
:10433400DF93CF931F930F939A9DF02D219FF00D40
:104344008B9DF00D8A9DE02DF10D039FF00D029FD2
:10435400E00DF11D4E9DE00DF11D5E9DF00D4F9D94
:10436400F00D7F936F93BF92AF925F934F93D501FC
:104374000E945A298B01AC01D7010E945A29EB01F2
:10438400E80FF91FD6010E940A2A2F913F91D60106
:104394000E945A29C60FD71FE81FF91FAF91BF917A
:1043A4000E940A2A2F913F910E945A29C60FD71FB3
:1043B400E81FF91FD6010E945A29E60FF71F98013A
:1043C400BE01CF0111240F911F91CF91DF91089568
:1043D4008F929F92AF92BF92CF92DF92EF92FF9211
:1043E400CF93C62F0E948B2A4B015C0120E030E062
:1043F40048EC52E40E94902A0E94542A6B017C01EA
:1044040084E68C9DB0018D9D700D1124072E000C47
:10441400880B990B0E9458239B01AC01C501B40180
:104424000E944D2A20E030E040E752E40E94902AA6
:104434004B015C01B601DD0C880B990B0E945823DB
:104444009B01AC01C501B4010E944E2ACB7FC33548
:1044540009F49058CF91FF90EF90DF90CF90BF90E8
:08446400AF909F908F90089526
:10446C000F931F93CF93DF93DB01109719F48FEF0A
:10447C009FEF3DC02D913C91119730FF25C01696B2
:10448C004D915C91179714962D913C91159742176D
:10449C00530778F41296ED91FC9113978083129642
:1044AC002D913C9113972F5F3F4F12962D933C9378
:1044BC00139716962D913C9117972F5F3F4F169699
:1044CC002D933C93179713C01C96ED91FC911D975F
:1044DC00309769F2EB01092F182F0995892B39F6C2
:1044EC008E819F8101968E839F83812F902FDF91E8
:0844FC00CF911F910F9108956B
:10450400CF93DF93DC011A968D919C911B970097B2
:10451400B9F001971A968D939C931B97FD01E80FB0
:10452400F91F808516962D913C9117972F5F3F4F69
:1045340016962D933C931797082E000C990B28C0C0
:104544008D919C91119790FF10C01296ED91FC9162
:1045540013978081082E000C990B0097B9F03196BF
:104564001296ED93FC9313970FC01E96ED91FC9158
:104574001F97309759F0ED01CD0109952E813F81A8
:104584002F5F3F4F2E833F83992702C08FEF9FEF0A
:06459400DF91CF910895B4
:10459A001F920F920FB60F9211242F933F934F93AE
:1045AA005F936F937F938F939F93AF93BF93CF93B1
:1045BA00EF93FF93C0E08C2F8F7119F480E20E9471
:1045CA00EE290E9416298A3099F0E0913B3291E057
:1045DA009E0F90933B32F0E0EF5FFE4C8083909108
:1045EA003B3281E09F3F08F480E0890F80933B32A1
:1045FA00CF5FCF3F01F781E080933C328093430144
:10460A00FF91EF91CF91BF91AF919F918F917F9140
:10461A006F915F914F913F912F910F900FBE0F9025
:04462A001F90189530
:10462E000F931F93CF93DF93EC018B01892B31F402
:10463E00C0913632D0913732209751F1B801CE0168
:10464E000E94CE27C80FD91F8881811105C01092F4
:10465E003632109237321DC0B801CE010E94B127FA
:10466E00FE01E80FF91FE0933632F0933732808166
:10467E00882341F0CF0101968093363290933732E2
:10468E00108204C01092363210923732CE0102C020
:0E469E0080E090E0DF91CF911F910F91089581
:1046AC00E89409C097FB3EF49095809570956195C0
:1046BC007F4F8F4F9F4F9923A9F0F92F96E9BB2776
:1046CC009395F695879577956795B795F111F8CFF2
:1046DC00FAF4BB0F11F460FF1BC06F5F7F4F8F4F5D
:1046EC009F4F16C0882311F096E911C0772321F053
:1046FC009EE8872F762F05C0662371F096E8862FEB
:10470C0070E060E02AF09A95660F771F881FDAF741
:0A471C00880F9695879597F9089588
:10472600A2E8B0E0E9E9F3E20C943F285C014A0113
:10473600CF57DF4F68837983C158D040C12CD12C25
:10474600CF57DF4FE881F981C158D0408081882357
:10475600E9F07401860120E830E0AE014F5F5F4F5B
:10476600BE016F577F4FC5010E94820E8C0D9D1DA5
:104776008C159D054CF48FE490E080930030909367
:1047860001308FEF9FEF03C06C01DACFC601CE5721
:08479600DF4FECE00C94A028B9
:10479E00A0E1B0E0E5EDF3E20C944528FB01BA018F
:1047AE00AE014F5F5F4F7A0140E1D7011D924A95EE
:1047BE00E9F742E051E049835A838B839C83F7FFEC
:1047CE0009C08FE490E080930030909301308FEF1A
:1047DE009FEF14C0A9018C013197ED83FE83C701B1
:1047EE000E946A284F8158852D813E8142175307BA
:1047FE0008F49A01F801E20FF31F10826096E6E0CA
:04480E000C94A62838
:10481200A0E1B0E0EFE0F4E20C944528FB01BA011C
:10482200AE014F5F5F4F7A0140E1D7011D924A9579
:10483200E9F742E051E049835A838B839C83F7FF77
:1048420009C08FE490E080930030909301308FEFA5
:104852009FEF14C0A9018C013197ED83FE83C7013C
:104862000E9452284F8158852D813E81421753075D
:1048720008F49A01F801E20FF31F10826096E6E055
:044882000C94A628C4
:10488600A0E0B0E0E9E4F4E20C943F286C015B019F
:104896007A01E901480181E08822992400FD03C0DC
:1048A6004217530750F0A701B501C6010E9494278D
:1048B600EC16FD0610F0C70117C08E010E191F0970
:1048C6000115110541F0B60180E290E00E94362202
:1048D60001501109F5CF8114910429F4A701B501FE
:1048E600C6010E949427CE01CDB7DEB7ECE00C944A
:0248F600A028F8
:1048F800AC01FA0190814F5F5F4F9032D1F3292FBD
:10490800092E000C330B295031092530310588F365
:104918009B3209F540E050E0319602C040E050E09B
:1049280080E090E06AE02191022E000C330B2053C6
:1049380031092A30310548F4689FD001699FB00DCC
:104948001124CD01821B930BEECF452B49F4919591
:104958008195910908959D3209F741E050E0DCCF37
:024968000895B0
:10496A00CF93DF93CDB7DEB7C058D109CDBFDEBF35
:10497A009E012B573F4FD9014D915D919D0160E8F2
:10498A0070E0CE0101960E940924AE014F5F5F4F8D
:10499A0020E030E0BA01E0E4F8E009C0848185FF54
:1049AA00FDCFDA018D91AD0182832F5F3F4FDB018D
:1049BA000D900020E9F71197A61BB70B2A173B07A2
:1049CA0068F3C058DF4FCDBFDEBFDF91CF910895A6
:1049DA00CF93DF93DC01FA0161387105A9F06338DE
:1049EA00710521F06038710519F50EC0C081D181B9
:1049FA00CE010296808391838D919D910D90BC91F9
:104A0A00A02DE881F9810DC0C081D181CE01029625
:104A1A0080839183E881F9818D919D910D90BC915C
:104A2A00A02D80839183A283B38381E090E002C0AA
:0A4A3A0080E090E0DF91CF91089535
:104A44000E94BE2688F09F5798F0B92F9927B75136
:104A5400B0F0E1F0660F771F881F991F1AF0BA951E
:104A6400C9F714C0B13091F00E94692AB1E00895E9
:104A74000C94692A672F782F8827B85F39F0B93FDB
:104A8400CCF3869577956795B395D9F73EF49095D1
:0E4A94008095709561957F4F8F4F9F4F0895CD
:104AA200DC01ED91FC91119780818A3221F080E046
:104AB20090E03AE00EC03196ED93FC93DB01ED916C
:104AC200FC911197CF0102968D939C9380819181E5
:104AD2000895ED91FC911197208120532A3068F4BA
:104AE200389FA001399F500D1124CA01820F911DD8
:0C4AF2003196ED93FC931197ECCF0895E2
:104AFE000F931F93CF938C01C62F80E10E94E42960
:104B0E00CC23E1F020E030E0E0EAF8E04C2F50E07A
:104B1E004150510967E092E085818823ECF780854A
:104B2E00D801A20FB31F8C932417350714F4948366
:104B3E0001C064832F5F3F4F2C1770F38C2FCF91E2
:064B4E001F910F91089574
:104B5400CF93DF93DB01ED91FC912081203259F05A
:104B6400022E000C330B295031092530310518F081
:104B740080E090E015C0EB010E949326E881F98162
:104B84009F012F5F3F4F2883398321812032B1F366
:104B9400022E000C330B295031092530310570F3F6
:064BA400DF91CF9108959E
:104BAA00A0E0B0E0EBEDF5E20C9441287C01FB01BA
:104BBA00EA01C901A280B380C480D5800081118135
:104BCA00209711F4C0E4D5E9009719F4CE010E94A8
:104BDA006929B7FC04C0A816B90608F4C5019601EC
:104BEA00AC01BE01C7010E944324CDB7DEB7EAE09B
:044BFA000C94A2284D
:104BFE000F931F93CF93DF93EB01BA01FA01068156
:104C0E001781A9010E94E81E8F3FFFEF9F0789F0D1
:104C1E004AE050E060E070E0C8010E94982A2883C4
:104C2E0039834A835B836C837D838E839F8380E08D
:0C4C3E0090E0DF91CF911F910F9108953D
:104C4A000F931F93CF93DF93EB01BA01FA01068109
:104C5A001781A9010E94E81E8F3FFFEF9F0789F085
:104C6A004AE050E060E070E0C8010E949C2A288374
:104C7A0039834A835B836C837D838E839F8380E041
:0C4C8A0090E0DF91CF911F910F910895F1
:104C9600990F0008550FAA0BE0E8FEEF1616170647
:104CA600E807F907C0F012161306E407F50798F0AF
:104CB600621B730B840B950B39F40A2661F0232BC8
:104CC600242B252B21F408950A2609F4A140A69544
:084CD6008FEF811D811D08957F
:104CDE00CF93DF93FB014081042E000C550B411541
:104CEE005105B9F0FC01CF012191222381F0022E52
:104CFE00000C330B42175307B1F7DB011196EF018E
:104D0E002D91222331F039912317D1F3ECCF80E08E
:084D1E0090E0DF91CF910895B0
:104D26000F931F93CF93DF938C01C0E0D0E0C801AF
:104D36000E9482228F3F2FEF920779F080329105F1
:104D460051F09C01295031092530310520F0B80178
:104D56000E94382702C02196EACFCE01DF91CF917B
:064D66001F910F9108955A
:104D6C0057FD9058440F551F59F05F3F71F0479510
:104D7C00880F97FB991F61F09F3F79F087950895F5
:104D8C00121613061406551FF2CF4695F1DF08C014
:104D9C00161617061806991FF1CF86957105610531
:044DAC0008940895CA
:104DB000A0E1B0E0EEEDF6E20C944928CE010196B8
:104DC00020E1FC0111922A95E9F722E031E02983E4
:104DD0003A832D893E892B833C83AE01475E5F4F2A
:104DE0006F89788D0E9482286096E2E00C94AA2850
:104DF000CF93DF93EC0190E0E92FF0E0EE0FFF1F7F
:104E0000E456FC468081811102C081810EC0A881D8
:104E1000B9812C91821305C091811196A883B98321
:104E200001C09F5F9B3040F3892FDF91CF910895A0
:104E3000FA0160387105CCF0623871051CF06338F6
:104E4000710599F4A081B1819D012C5F3F4F2083B2
:104E500031834D915D916D917C91FC014083518333
:104E60006283738381E090E0089580E090E008958C
:104E7000FB018F3F2FEF9207B9F022853385223057
:104E8000310594F4A9014F5F5F4F42875387DB01DF
:104E9000A20FB31F18968C932681378121503109B8
:0E4EA00026833783992708958FEF9FEF08959B
:104EAE00CF93DF9341155105A9F0DC01FB01EF0112
:104EBE008D91882351F09191992339F0413051050C
:104ECE0021F041505109891791F390E02881821BFE
:0E4EDE00910902C080E090E0DF91CF9108952D
:104EEC0097FB10F8169400080F93083098F00850B0
:104EFC00232F342F452F562F672F782F892F902D46
:104F0C00F4CF059497958795779567955795479521
:0C4F1C00379527950A95AAF70F91089584
:104F2800A0E0B0E0EAE9F7E20C9443286C01EB0159
:104F38008A017B01E40EF51ECE15DF0541F089914B
:104F4800B601082E000C990B0E943622F5CFC80135
:0A4F5800CDB7DEB7E8E00C94A42802
:104F6200A0E0B0E0E7EBF7E20C9443288C016B0180
:104F7200EC017E01E01AF10A6991662341F0062EE6
:104F8200000C770BC6010E94AB29892B91F3C70154
:0A4F9200CDB7DEB7E8E00C94A428C8
:104F9C00A0E0B0E0E4EDF7E20C9443288C016B0147
:104FAC00EC017E01E01AF10A6991662341F0062EAC
:104FBC00000C770BC6010E94AB29892B91F7C70116
:0A4FCC00CDB7DEB7E8E00C94A4288E
:104FD600E0E4F1E081818111FDCFE0E4F1E08FEFC3
:104FE6009FE38287938780914C0190914D0184873E
:104FF600958781E88083178281E08583828181603D
:045006008283089504
:10500A000000803F000020410000C84200007A44AE
:10501A0000401C460050C347002474498096184B30
:10502A0020BCBE4C286B6E4EF9021550EC78AD6070
:04503A00CAF24971FC
:10503E00CF93DF93EB01FC014115510581F04150F7
:10504E005109DF01119629912083FD012111F4CF21
:10505E004A0F5B1F4A175B0711F01D92FBCFDF91C2
:04506E00CF91089541
:105072002F923F924F925F926F927F928F929F9266
:10508200AF92BF92CF92DF92EF92FF920F931F9354
:10509200CF93DF93CDB7DEB7CA1BDB0BCDBFDEBF2D
:0250A20009946F
:1050A400A2E0B0E0E8E5F8E20C9447288C014983DB
:1050B4005A83AE014F5F5F4F0E949323F801208112
:1050C40024FF02C08FEF9FEF2296E4E00C94A828FF
:1050D400A2E0B0E0E0E7F8E20C9447288C014983B1
:1050E4005A83AE014F5F5F4F0E949323F8012081E2
:1050F40024FF02C08FEF9FEF2296E4E00C94A828CF
:10510400A2E0B0E0E8E8F8E20C9447288C01498377
:105114005A83AE014F5F5F4F0E947500F8012081F2
:1051240024FF02C08FEF9FEF2296E4E00C94A8289E
:105134002A88398848885F846E847D848C849B8423
:10514400AA84B984C884DF80EE80FD800C811B8131
:10515400AA81B981CE0FD11DCDBFDEBFED01089567
:10516400A0E0B0E0E8EBF8E20C9449289E01255F4A
:105174003F4F49855A856F8178858D819E810E9434
:08518400CF23E2E00C94AA28FD
:10518C009C01205331092A30310558F08062815638
:10519C00910931E020E0069708F030E0832F922F40
:0851AC00089581E090E00895F0
:1051B4009C012062215631092A31310550F09C01AD
:1051C4002053310981E090E02A30310520F080E05D
:0851D400089581E090E00895C8
:1051DC0097FB072E16F4009407D077FD09D00E9498
:1051EC00022907FC05D03EF4909581959F4F0895B8
:0851FC00709561957F4F089545
:10520400AA1BBB1B51E107C0AA1FBB1FA617B707E8
:1052140010F0A61BB70B881F991F5A95A9F7809504
:085224009095BC01CD01089535
:10522C009091393280913832981748F4E92FF0E098
:10523C00E050FE4C20819F5F9093393202C02FEFDB
:06524C003FEF822F0895E0
:10525200092E0394000C11F4882352F0BB0F40F482
:10526200BF2B11F460FF04C06F5F7F4F8F4F9F4FC2
:0252720008959D
:10527400E0EAF4E081E0818382E08283E0E4F8E024
:105284008DE695E080879187868180648683089582
:1052940060957095809590953095409550952195A1
:1052A4003F4F4F4F5F4F6F4F7F4F8F4F9F4F08952B
:1052B400A29FB001B39FC001A39F700D811D112453
:0E52C400911DB29F700D811D1124911D089542
:1052D200FC01AF014F5F5F4F2081222311F0FA01E1
:0C52E200F8CF9F01281B390BC90108956B
:1052EE00689401C0E8948F929F92CF93DF930E94AF
:0C52FE004921DF91CF919F908F9008957F
:10530A000E94252AE0EAF8E084E0808381E0828333
:0A531A0085839AE09683838308954B
:10532400696E66696E69747900494E46494E4954FE
:0A53340059006E616E004E414E00FC
:10533E0010923B3210923A320E9485290E943A29ED
:08534E000E94EB2778940895FA
:10535600FC012E2F9F2F8191861721F08111F9CF05
:0853660090E00895822F0895E4
:10536E000024A7FD00942A1730054005500560055E
:08537E007005800590050895FB
:10538600EC010E94B22A0E94B12ACE010E94B32AE1
:06539600CE010E94AF2AC7
:10539C0068076C094C836A9074A07AC00080688896
:0653AC0000846C82008108
:1053B2000E945A29A59F900DB49F900DA49F800D25
:0653C200911D1124089565
:1053C800880F81608093A708E0EAF8E08581882348
:0453D800ECF7089551
:1053DC00682F80E092E30E947F25109239328093EF
:0453EC0038320895B6
:1053F000FC01480F591FE417F50711F06193FBCF2B
:0254000008950D
:105402009C01215631092A31310510F48F759927F3
:025412000895FB
:105414000E945A29460F571FC81FD91F08F43196F6
:025424000895E9
:105426002A0D3B1D4C1D5D1D6E1D7F1D801F911F8E
:025436000895D7
:105438002A153B054C055D056E057F05800791071C
:025448000895C5
:10544A00E0E0F4E08CE0828388E0828B838B08952D
:10545A00494E4600696E66004E414E006E616E000E
:10546A00FC01DB012D91BD0121932111FACF089591
:10547A009C01215431092A31310508F480620895CA
:10548A00494E4600696E66004E414E006E616E00DE
:0E549A005058BB27AA270E9425200C942929D0
:0E54A8000E9422256894B1110C946A2A08957E
:0E54B60000240A941616170618060906089513
:0E54C40000240A941216130614060506089515
:0E54D200E894BB2766277727CB0197F908954A
:0C54E00097F99F6780E870E060E0089595
:0C54EC00696E66006E616E00EC94F09436
:0A54F8000E949F290E94B11CFDCF05
:0A5502000E944B2608F481E0089592
:0A550C000E944B2608F48FEF08956B
:0A55160060E070E00E942C0408958C
:085520000E94A31D0C9429292F
:085528000E947E1E0C9429294B
:0855300021E00E94861008959D
:0855380020E00E948610089596
:07554000286E756C6C290058
:065548009FEF80EC0895C6
:06554E000E942C040895E8
:06555400286E696C2900BD
:04555A000C940000AD
:04555E000E94730034
:025562000895AA
:025564000895A8
:025566000895A6
:00000001FF
