:100000000C944B000C941B2B0C941B2B0C941B2B53
:100010000C941B2B0C941B2B0C941B2B0C941B2B48
:100020000C941B2B0C941B2B0C941B2B0C941B2B38
:100030000C941B2B0C941B2B0C941B2B0C941B2B28
:100040000C941B2B0C941B2B0C941B2B0C941B2B18
:100050000C941B2B0C941B2B0C941B2B0C941B2B08
:100060000C941B2B0C941B2B0C941B2B0C941B2BF8
:100070000C941B2B0C941B2B0C941B2B0C941B2BE8
:100080000C941B2B0C941B2B0C941B2B0C941B2BD8
:100090003000323C800011241FBECFEFCDBFDFE324
:1000A000DEBFE0E9F0E040E017C0B591A5913591E1
:1000B0002591059107FD0CC095918591EF01F92FD0
:1000C000E82F05900D92A217B307D9F7FE0104C0DF
:1000D0001D92A217B307E1F7E539F40731F70E9443
:0A00E000262A0C943C2AF894FFCF66
:1000EA00A1E9B1E0EBE7F0E00C94A8287C015A0101
:1000FA00C257DE4F68837983CE58D140C457DE4F4A
:10010A0018821982CC58D140612C712C6E012EE7CD
:10011A00C21A2EEFD20A8EE891E08C0F9D1F029729
:10012A00C057DE4F88839983C059D140C257DE4FEA
:10013A00E881F981CE58D1408081882309F481C3AE
:10014A008AE0D6011D928A95E9F782E091E08C0F48
:10015A009D1FF60186839783A0E8B0E0A087B18748
:10016A00BE0162577E4FC7010E94B4258C01C25757
:10017A00DE4FE881F981CE58D1408081811113C0C8
:10018A00C457DE4F88819981CC58D140080F191F76
:10019A00C457DE4F08831983CC58D14080818532F9
:1001AA0009F038C33FC0853259F3C7010E94D622ED
:1001BA004C010196A1F0C257DE4FE881F981CE5871
:1001CA00D1408081082E000C990B8816990639F0C7
:1001DA00B701C4010E94A8278EEF9FEF26C3C45718
:1001EA00DE4F88819981CC58D1400196C457DE4FA1
:1001FA0088839983CC58D140C257DE4F8881998130
:10020A00CE58D1400196C257DE4F88839983CE5883
:10021A00D140BE0162577E4FC7010E94B425080F24
:10022A00191FA5CFCF010196C257DE4F8883998344
:10023A00CE58D140D60114961D921C9215978181F1
:10024A008A3251F43296C257DE4FE883F983CE5888
:10025A00D14001E010E002C000E010E0C257DE4FDA
:10026A0088819981CE58D1400E948624F6018483E0
:10027A009583C257DE4FE881F981CE58D1408081FB
:10028A00082E000C990BC0970A9740F43196C25772
:10029A00DE4FE883F983CE58D140EBCFCE018257A7
:1002AA009E4F0E944927582EC257DE4FE881F98196
:1002BA00CE58D1408081082E000C990B0E94AB2A9F
:1002CA00883691052CF5853691050CF0EEC08136FD
:1002DA00910509F4EAC04CF48532910509F465C127
:1002EA008B35910509F48DC188C28336910509F4CD
:1002FA0001C18436910509F080C29E0124573E4F00
:10030A00A601BE016F5F7F4FC7010E94092624C064
:10031A008037910509F472C0A4F48E36910509F468
:10032A0094C0F4F58936910509F067C29E012457F5
:10033A003E4FA601BE016F5F7F4FC7010E947F1724
:10034A000BC08537910509F188379105A1F18337EB
:10035A00910509F052C200C197FD67C2C257DE4F2C
:10036A0088819981CE58D1400196C257DE4F888341
:10037A009983CE58D1400115110509F03FC1652D69
:10038A0070E0950141E050E05BC09E0124573E4F6A
:10039A00A601BE016F5F7F4FC7010E942F2615C0BD
:1003AA009E0124573E4FA601BE016F5F7F4FC701D2
:1003BA000E94A61F0AC09E0124573E4FA601BE01F5
:1003CA006F5F7F4FC7010E94441B97FD2EC2C25721
:1003DA00DE4F88819981CE58D1400196C257DE4FAF
:1003EA0088839983CE58D1400115110509F006C1B9
:1003FA00652D70E0950140E050E022C09E0124572F
:10040A003E4FA601BE016F5F7F4FC7010E94441B8A
:10041A0097FD0BC2C257DE4F88819981CE58D140D1
:10042A000196C257DE4F88839983CE58D140011571
:10043A00110509F0E3C0950140E050E060EF70E07B
:10044A00CE0101960E94EB1BF0C1C257DE4F888194
:10045A009981CE58D1400196C257DE4F888399833D
:10046A00CE58D140C357DE4F9881CD58D140C4579A
:10047A00DE4F2881CC58D140892F880F880B2983D9
:10048A009A838B838C838D838E838F8388870115D0
:10049A00110509F0B3C0652D70E0950140E050E008
:1004AA00CE0101960E94EB1BA9C09E0124573E4F24
:1004BA00A601BE016F5F7F4FC7010E94491297FDD7
:1004CA00B4C1C257DE4F88819981CE58D140019676
:1004DA00C257DE4F88839983CE58D1400115110542
:1004EA0009F08CC0652D70E0A501CE0101960E942D
:1004FA00F7249BC1F0E85F1280C1D60114968D9152
:10050A009C911597892B31F481E090E014968D9394
:10051A009C931597C257DE4F88819981CE58D14056
:10052A000196C257DE4F88839983CE58D140012B5A
:10053A0059F4D501ED91FC911197CF0102968D9353
:10054A009C930081118102C000E010E09E012457B3
:10055A003E4F40E050E024C0B0E85B124EC1C257A3
:10056A00DE4F88819981CE58D1400196C257DE4F1D
:10057A0088839983CE58D140012B59F4D501ED9146
:10058A00FC911197CF0102968D939C930081118162
:10059A0002C000E010E09E0124573E4F41E050E0C7
:1005AA00B601C7010E94E02040C1B0E85B1225C134
:1005BA00C257DE4F88819981CE58D1400196C257E1
:1005CA00DE4F88839983CE58D140C7010E94D62234
:1005DA008532910581F4C457DE4F88819981CC58C0
:1005EA00D1400196C457DE4F88839983CC58D140B5
:1005FA0081E090E01AC1B7010E94A82780E090E04C
:10060A0014C1E0E85E12F9C0012B59F4D501ED914D
:10061A00FC911197CF0102968D939C9300811181D1
:10062A0002C000E010E0C257DE4FE881F981CE58DF
:10063A00D140CF010196C257DE4F88839983CE58A5
:10064A00D14081818E3551F43296C257DE4FE8830C
:10065A00F983CE58D1409924939401C0912C41E05A
:10066A0051E0692D70E0CE0101960E946F2A19822D
:10067A00C257DE4FE881F981CE58D14080818D3250
:10068A0069F43196C257DE4FE883F983CE58D140D8
:10069A0081E089198FA741E049192AC08D35D9F718
:1006AA003196C257DE4FE883F983CE58D14081E0B4
:1006BA008919A0968FAFA097EECF882309F44DC071
:1006CA008D3201F1C257DE4FE881F981CE58D1400F
:1006DA008191A2E0B0E0AC0FBD1FA80FB11D87FD4C
:1006EA00BA954C93C257DE4FE883F983CE58D1406E
:1006FA00C257DE4FE881F981CE58D14080818D35CD
:10070A00E1F62BC0C057DE4FA881B981C059D1404C
:10071A008C918823B9F28D35A9F2CF010196C2577F
:10072A00DE4F88839983CE58D1408D919C91DC010C
:10073A008C91082E000C990B2181022E000C330B90
:10074A00821793070CF0BECF0196A1E0B0E0AC0F80
:10075A00BD1FA80FB91F4C93EFCF0115110511F159
:10076A0018012101401A510AC7010E94D6224C01E0
:10077A00E2E0F0E0EC0FFD1FE80FF91F808188230B
:10078A0071F1F10181921F01C457DE4F888199816D
:10079A00CC58D1400196C457DE4F88839983CC58F0
:1007AA00D140DFCFC7010E94D6224C01E2E0F0E03F
:1007BA00EC0FFD1FE80FF91F8081882371F0C457E1
:1007CA00DE4F88819981CC58D1400196C457DE4FBB
:1007DA0088839983CC58D140E5CF412C512CB7015D
:1007EA00C4010E94A8274114510439F001151105CA
:1007FA0021F0F801E40DF51D1082C257DE4F888101
:10080A009981CE58D1400196C257DE4F8883998389
:10081A00CE58D14081E090E0FFEF8F169F0611F08D
:10082A0080E090E091958195910997FD03C0680E4B
:10083A00791E7CCC8F3F2FEF920719F46114710453
:0E084A0009F0C301CF56DE4FE2E10C940929FC
:10085800A8E0B0E0E2E3F4E00C94A828FB013097AC
:1008680011F0808391839C012F833887D9018C9163
:100878002F5F3F4F082E000C990B80329105A1F392
:10088800AC01495051094530510570F38D3291053D
:1008980029F42F8338875524539405C08B9711F476
:1008A8002F833887512C80E0282F082E000C330B1B
:1008B800AF81B885A20FB31F9C91992371F0D9011C
:1008C800AE5FBB464C91941302C08F5FEDCFD90148
:1008D800A55FBB462C919217C1F3833010F430E02A
:1008E80017C0309709F43AC3883009F083E02F81A4
:1008F8003885280F311D87FD3A95208331832EC313
:10090800AC014C5E5B46DA014C9124130EC03F5F8C
:10091800832F032E000C990B6F817885680F791F40
:10092800DB012C912111ECCF06C0885E9B46DC01CF
:100938008C91281761F3333011F0412C1BC030978C
:1009480009F413C3283299F420E0822F022E000CF8
:10095800990B8B01080F191FD8013C91332339F0EB
:10096800393211F02F5FF1CF0196680F791F60833C
:100978007183FBC2242D042C000C330B29833A838A
:10098800D9014F815885A40FB51F8C91803311F47C
:100998004394F0CF3F01442019F08F7D883541F012
:1009A80060E070E0CB01E12CF12C00E010E0ABC17D
:1009B80009811A810F5F1F4F8F819885080F191FB2
:1009C800D8018C91082E000C990B0E944929892B7B
:1009D80029F4F80180818E3209F02AC12224239457
:1009E800240CEF81F885E20DF11D27FCFA95808132
:1009F800803311F42394F5CF812C912C5401E12CF0
:100A0800F12C00E010E0322C3E0C232D032C000CBE
:100A1800330B2B833C8369014F815885C40ED51E47
:100A2800D6018C91982F9F7D903509F49AC08E320B
:100A380039F4B52DB0615B2EDD24D394D30C3CC0C2
:100A4800082E000C990B0E944929892B09F4E9C04A
:100A5800F6014081842F042E000C990B9C01205331
:100A680031092A30310518F480ED840F03C00E9443
:100A7800782A8753F8E0EF16F10494F490E0A0E0A8
:100A8800B0E02CE130E0201B310B04C0880F991F27
:100A9800AA1FBB1F2A95D2F7882A992AAA2ABB2AF5
:100AA8002FEFE21AF20A0C5F1F4FADCFE114F104E9
:100AB80089F404501109D3942D2C0D2C000C330803
:100AC8004F815885420D531D4D835E83DA018C9109
:100AD800803361F3082E000C990B0E944929892B59
:100AE80089F1AD81BE814C91842F042E000C990BA5
:100AF8009C01205331092A30310518F480ED840F08
:100B080003C00E94782A8753B8E0EB16F104B4F4C6
:100B180090E0A0E0B0E027E030E02E193F09220F76
:100B2800331F220F331F04C0880F991FAA1FBB1F32
:100B38002A95D2F7882A992AAA2ABB2AEFEFEE1A11
:100B4800FE0AB9CF8B819C8101962816390651F48B
:100B580089819A8101962B813C812817390711F4E4
:100B680063C0D32CEF81F885ED0DF11DD7FCFA9504
:100B7800EF83F88780818F7D803509F054C08181AB
:100B88008B3229F08D3229F4F52DF8605F2E82E042
:100B980001C081E0EF81F885E80FF11D8081082E02
:100BA800000C990BC097412C0A9708F03DC0DF0153
:100BB800A40DB11D47FCBA958C91803311F4439470
:100BC800F6CF80E090E06AE0DF01A40DB11D47FC9C
:100BD800BA952C91022E000C330BA90140535109F0
:100BE8004A30510570F4442031F0AC01649FC001D3
:100BF800659F900D112420533109820F931F439450
:100C0800E3CF411004C060E070E0CB01C4C153FEE3
:100C180003C0919581959109080F191FEF83F887F3
:100C280003C0432C01C0412C6114710449F411C064
:100C38006114710441F3812C912C540100E010E0FF
:100C4800EF81F885E40DF11D47FCFA95D301ED938A
:100C5800FC9381149104A104B104A9F2F0E8F815F9
:100C680020F42FEF921AA20AB20AB7FC07C0880C28
:100C7800991CAA1CBB1C01501109F7CF03383FEF80
:100C880013079CF402384FEF140761F081149104A4
:100C9800A104B10439F00F5F1F4FB694A79497943D
:100CA8008794F0CF01E81FEF0BC0015011090038FD
:100CB80011050CF46BC1812C912C540100E810E053
:100CC80001581F4F012E000C220B330BF7E1000FC8
:100CD800111F221F331FFA95D1F7A9E0B694A794E4
:100CE80097948794AA95D1F7802A912AA22AB32AA1
:100CF80042C1EE3289F4B52DB0615B2EEF81F885E3
:100D08003196EF83F8873F812885AF81B885EC91CC
:100D1800F52DF07154FEEDCF4E2F0E2E000C550B15
:100D2800405351094A30510518F5252D2260522E9D
:100D380039E0E316F104B9F0FF2311F0015011096D
:100D48004FEFE41AF40AAAE0B0E09B01AC010E945C
:100D5800312AE053DC01CB018E0F911DA11DB11D7D
:100D6800BC01CD01CBCFF111C9CF0F5F1F4FC6CF4B
:100D7800EF7DE53409F04EC0EF81F88521812D32F1
:100D880031F4F52DF8605F2EEF81F88506C0EF810C
:100D9800F8852B3211F0319601C03296E983FA8337
:100DA80049815A814F5F5F4FA981BA812C912033C5
:100DB80019F449835A83F4CFE12CF12C40E0AAE0DE
:100DC80039812A81E981FA815191E983FA83E52FF2
:100DD800052E000CFF0BF0973A9768F44330A1F00A
:100DE800AE9D9001AF9D300D112450537901E50E51
:100DF800F11C4F5FE5CF411107C0E32FF22F42915D
:100E0800403311F03E2F2F2F53FE06C0F194E1948A
:100E1800F10802C0E12CF12C6114710431F051FE8B
:100E280004C0D3013C9311962C930E9460234B017C
:100E38005C0120E030E0A9010E94EF2A882309F430
:100E4800E2CEC8018E0D9F1DB52DB170B98397FFF5
:100E580041C09195819591098A309105DCF06AE04D
:100E680070E00E947129182F9B83660F771F660F09
:100E7800771FFB01E652FF46208131814281538171
:100E8800C501B4010E94FE2A4B015C01812F9B81A0
:100E9800009789F0880F991F880F991FFC01EA5461
:100EA800FF462081318142815381C501B4010E94EE
:100EB800FE2A4B015C0120E030E040E850E0C5012B
:100EC800B4010E94EF2A87FF56C0E981EE2309F496
:100ED80058C03FC0009709F44EC08A309105DCF035
:100EE8006AE070E00E947129182F9B83660F771FB4
:100EF800660F771FFB01E652FF4620813181428150
:100F08005381C501B4010E94022B4B015C01812F62
:100F18009B81009789F0880F991F880F991FFC0102
:100F2800EA54FF462081318142815381C501B401D1
:100F38000E94022B4B015C012FEF3FEF4FE75FE769
:100F4800C501B4010E94F42A1816ACF4F981FF23F4
:100F5800C1F060E070E080E890E81DC0812C912C21
:100F680020E8A22E2FE7B22E06C0812C912C90ECFF
:100F7800A92E9FE7B92EC501B40150FE0CC09058A8
:100F88000AC060E070E080E890E005C0880C991C19
:0E0F9800AA1CBB1C95CE2896E2E10C940929F8
:100FA600A6E2B0E0E9EDF7E00C94A8288F8F98A3AD
:100FB6006E8B7F8B288FFB010190F081E02DE987F6
:100FC600FA87FB0102811381248135812A8B3B8BB1
:100FD6008085918589A39AA326803780FA0180802F
:100FE6009180A280B38020E030E0A901C501B40160
:100FF6000E94EF2A87FF06C0B7FAB094B7F8B094FC
:101006008DE204C0598552FF47C38BE2F10180830C
:101016002A893B89215031092B833C8341E050E0EA
:10102600488B598B06C08A899B898B839C83188A37
:10103600198AD501C401BF770097E0E8AE07EFE74C
:10104600BE0799F4F88D2F2FFF0F330B215431096A
:1010560088899989820D931D2A31310518F466E332
:1010660075E919C06AE375E916C00197A048BF473C
:10107600A8F0488D242F440F330B21543109888959
:101086009989820D931D2A31310518F46EE375E9AD
:1010960002C062E475E90E94A32AEDC220E030E0B6
:1010A600A901C501B4010E94EF2AC12CD12C20E868
:1010B600E22E2FE3F22E19821A82882309F48CC0BD
:1010C6008D829E82AF82B88620E030E040E251E415
:1010D600C701B6010E94022B2B013C01D501C401B8
:1010E60084199509A609B709B7FF07C0B095A09559
:1010F600909581959F4FAF4FBF4F0297A105B105C0
:1011060044F489819A81019689839A8373016201E5
:10111600DBCFA5019401C301B2010E94EF2A87FD2E
:10112600F0CF8D819E81AF81B8858C199D09AE095E
:10113600BF090196A11DB11D0397A105B10508F4CC
:1011460049C01D821E82A5019401C701B6010E94F5
:10115600F42A18160CF040C0E981FA81E43DFE4FEE
:10116600E4F44D815E81452BC1F420E030E040E897
:101176005AE5C501B4010E94022B4B015C0120E037
:1011860030E040E85AE5C701B6010E94022B6B0128
:101196007C0181E090E08D839E8320E030E040E298
:1011A60051E4C701B6010E94FE2A6B017C01E98168
:1011B600FA813197E983FA83D501C4018C199D0917
:1011C600AE09BF090196A11DB11D0397A105B10581
:1011D60008F0B9CF46015701288D022E000C330BBB
:1011E600288F398FC9010E94AB2A8A8F17FD03C049
:1011F6000D831E8304C046E050E04D835E835A8D06
:10120600573641F4012B09F04CC281E090E08D8302
:101216009E8347C24A8D4F8706C029813A8137FF90
:1012260052C256E65F878D819E8101968D839E838D
:101236009F859636B9F4E981FA81F7FF08C0C12C7B
:10124600D12C90E8E92E9FE3F92E19821A82FA8DA5
:10125600F73641F02D813E8149815A81240F351F91
:101266002D833E831C2DDDA2EBA20F2D8B869C8643
:10127600AD86BE861C8A1D8A8C899D89ED81FE817C
:101286008E179F07DCF5212F3DA14BA1502F6B85B3
:101296007C858D859E850E94FE2A0E94841D2B01D9
:1012A6003C010E94C22A6B8FA3019201612F7DA18E
:1012B6008BA1902F0E94022B2B853C854D855E8548
:1012C6000E94BB2A9B01AC0150582B873C874D8757
:1012D6005E8720E030E040E251E4612F7DA18BA1E2
:1012E600902F0E94FE2A162F7DA38BA3092F4C89CF
:1012F6005D894F5F5F4F4C8B5D8BBECF20E030E04A
:1013060040EA50E4612F7DA18BA1902F0E94022B11
:101316002B013C019B01AC016B857C858D859E85EF
:101326000E94EF2A87FD0DC0A30192016B857C8583
:101336008D859E850E94EF2A811106C0FB8DF0FDEA
:1013460003C0412C512C3201A5019401C301B20105
:101356000E94BC2A4B015C0120E030E040E251E4EF
:10136600C701B6010E94022B6B877C8B182F092FB1
:101376009B01482F592FC501B4010E94F42A87FD0D
:1013860014C029813A812F5F3F4F29833A833F85D5
:10139600363679F44D815E814F5F5F4F4D835E83B4
:1013A6005B855DA38C898EA30BC0CB86DC8A1E2D44
:1013B6000F2D9F85953639F0EB85EDA3FC89FEA3AD
:1013C600E980FA8006C02B852DA33C893EA3E12C3B
:1013D600F12C48885988C12CD12C1C8A1D8A1B8661
:1013E6001C8649855A85407155274BA35CA32B85DE
:1013F6003C854D815E812417350734F08C899D89A3
:10140600892B09F494C09FC03201EE89FF8980853B
:10141600918505974816590688F72DA13EA1412FBB
:10142600502FC501B4010E94FE2A0E94841D6B8FB5
:101436007C8F8D8F9E8F0E94C22A6A30710514F0B0
:1014460069E070E08BA19CA1892B69F46115710597
:1014560051F49A8D973639F4F7FE05C03601EFEF51
:101466006E1A7E0A38C02C893D89232B99F4F7FE23
:1014760011C03FEF431A530AF101E60DF71D4EE284
:1014860040838B819C8101978B839C83E1E0F0E014
:10149600EC8BFD8BF101E40DF51D36016114710431
:1014A60031F020E3219331E0631A7108F7CFC601CA
:1014B600840D951D2B813C812C193D092C014FEF84
:1014C600441A540AF101E80FF91F605D6083C901EF
:1014D60001978B839C832B8D3C8D4D8D5E8D6DA1ED
:1014E6007EA1812F902F0E94022BA50194010E94BC
:1014F600BB2A4B015C01B7FAB094B7F8B09420E070
:1015060030E040E251E46DA17EA1812F902F0E9430
:10151600FE2A6DA37EA3182F092F91E0E91AF10880
:10152600EB85FC853196EB87FC87630160CFF985F7
:10153600F4FF09C0F101E40DF51D8EE280839201EE
:101546002F5F3F4F2901A101440D551D4D835E8339
:10155600FA011082FF85F53609F061C0E9A1FAA10A
:10156600E20DF31D3197108229813A8137FF08C0B9
:1015760031952195310929833A8301E010E002C0B3
:1015860000E010E0E9A1FAA13197E20DF31D22E097
:1015960030E08AE0E82EF12CCF01821993094981C7
:1015A6005A81452B91F089819A81B7010E94712950
:1015B600805D829369837A83215031094B815C81F6
:1015C600415051094B835C83E7CF121613065CF337
:1015D600FC013197E20DF31D012B11F42BE201C042
:1015E6002DE220830297B101680F791F288D398D6E
:1015F600215431092A31310510F025E601C025E4D0
:10160600FB0120832B813C81225031092B833C83B3
:101616004816590624F48D819E810E94A32A398595
:1016260031FF29C030FD27C04B815C811416150699
:1016360014F5C1010E94D829820D931D9C0122191F
:10164600330948895989241735074CF0FC01208154
:10165600EB81FC81E80FF91F20830197EFCF4B81C7
:101666005C8160E370E088899989820D931D0E94F0
:101676006F2A1A8A1B8AC1010E94D82909851A85F0
:101686002A893B89AC01B1018F8D98A10E944D2416
:10169600A696E2E10C940929598553FFC4CC80E251
:1016A600B5CC89819A818C3F9F4F54F0E981FA81AC
:1016B6002D813E81E217F3070CF4AFCD35E604C069
:0C16C600F5E6FF87CFCD36E63F87CCCDA0
:1016D200A0E2B0E0EFE6FBE00C94A828888F998F97
:1016E200FB01298320812F8331813A8F828193816B
:1016F200888B998B248135812C873D8780859185C4
:101702008B8F9C8F66807780FA01C080D180E280C7
:10171200F38020E030E0A901C701B6010E94EF2A60
:1017220087FF06C0F7FAF094F7F8F0948DE204C050
:101732005F8152FFE1C28BE2F30180832C853D85FC
:10174200215031092E873F8741E050E04D835E836F
:1017520006C08C859D858E879F871D821E82B7015C
:10176200A6017F77E9810E2E000CFF0BEA87FB872B
:1017720041155105F0E86F07FFE77F07A9F42A85B5
:101782003B85215431098D819E81860D971D2A3119
:10179200310518F466E675E902C06AE675E90E9449
:1017A200A32A8AE695E998C28D819E81860D971DAE
:1017B2004130510560487F4788F02A853B85215496
:1017C20031092A31310518F46EE675E902C062E783
:1017D20075E90E94A32A82E795E97EC220E3FC0113
:1017E2002083ED81FE813196E60DF71D2D813E812C
:1017F2002E5F3F4F2D833E834A855B8541545109BD
:101802004E8B5F8B4A31510510F088E701C088E5A5
:10181200808320E030E0A901C701B6010E94EF2ACF
:101822001B821C821F8E1982882309F469C050E82A
:1018320058A38FE38A832F8D398148A15A816F8DF6
:10184200798188A19A810E94BC2A5B018C01A7013F
:1018520096010E94F42A18160CF447C0EB81FC8111
:101862003196EB83FC83AF8EB98208A31A83E3CF50
:1018720020E030E040E05FE36F8D798188A19A81BA
:101882000E94022B20E030E0A9010E94EF2A811180
:1018920018C020E030E040E85AE56F8D798188A1D8
:1018A2009A810E94022B6F8F798388A39A8320E00A
:1018B20030E040E85AE5C701B6010E94022B6B01F5
:1018C2007C0120E030E040E05FE36F8D798188A108
:1018D2009A810E94022B6F8F798388A39A832B812E
:1018E2003C81215031092B833C832F8D398148A1C2
:1018F2005A81C701B6010E94EF2A87FDB9CF04C001
:1019020030E838A34FE34A838889998997FF02C058
:1019120088E190E0FC013196E887F9878F8C998005
:10192200A8A0BA8016018701412C512C9401A5016F
:10193200B101C8010E94FE2A0E94841D6A8B7B8B22
:101942008C8B9D8B9401A5010E94022B9B01AC0103
:10195200B101C8010E94BB2A1B018C0120E030E0CA
:1019620040E85DE3B401C5010E94022B4B015C011A
:10197200FFEF4F1A5F0A2889398937FF09C020E033
:1019820030E0A901B101C8010E94EF2A882331F099
:1019920048855985441655064CF202C04886598638
:1019A20020E030E040E051E4B401C5010E94022B86
:1019B2004B015C019B01AC01B101C8010E94EF2AFD
:1019C20087FD12C0A5019401B101C8010E94EF2A4E
:1019D20081110DC06A897B898C899D890E94C22AE6
:1019E20061707727672B19F4812C912C5401A50182
:1019F2009401C701B6010E94BC2A6B017C01DC0183
:101A0200CB01BF770097A048BF4709F4B8CE2E8418
:101A12003F8482E0281A3108E885F985F195E1953D
:101A2200F109EA8BFB8B0D811E81412C512C1E8604
:101A32001F86188619862B8D3C8D255031092D8FD6
:101A42003E8F0A871B87ED8DFE8D0E171F0708F04C
:101A520093C02F8D398148A15A81C701B6010E94D6
:101A6200FE2A0E94841D4B015C010E94C22AAB0126
:101A72006115710541F4E885F985EF2B21F0FFEF3F
:101A82004F1A5F0A4FC02E853F85232B99F4E885B4
:101A9200F985EF2B79F00F5F1F4FEA85FB85E60D85
:101AA200F71D2EE2208331E0231A3108E1E0F0E055
:101AB200EE87FF87F301E00FF11F92012115310537
:101AC20029F0A0E3A19321503109F8CFF801E40DE8
:101AD200F51DEA87FB87241835084A3051051CF4A6
:101AE200605D7F4F02C0695A7F4F2E893F892A313C
:101AF200310550F4CB018062815691094A9720F456
:101B0200CB010E94782ABC010A851B850F5F1F4FFB
:101B1200EA85FB85E60DF71D608331E0231A310863
:101B2200412C512C2F8D398148A15A81C501B40114
:101B32000E94022B9B01AC01C701B6010E94BB2A85
:101B42006B017C0120E030E040E85DE36F8D79813C
:101B520088A19A810E94022B6F8F798388A39A832E
:101B62004885598541505109488759878A899B89F7
:101B72008417950709F065CF2E853F85232B49F5FC
:101B8200F301E00FF11F41145104E1F04889598932
:101B920014161506BCF45F8150FD14C08EE28083DA
:101BA200F8013196E60DF71DC20120E3219301975A
:101BB200E9F7040D151D0F5F1F4F40945094240C3C
:101BC200351C07C08F8184FF04C08EE280830F5FC3
:101BD2001F4FF301E00FF11FE887F9871082EB8DA9
:101BE200FC8D3197E60DF71D10822B813C8137FF6A
:101BF20009C03195219531092B833C83EE24E3946E
:101C0200F12C02C0E12CF12C21E030E08AE0C82E58
:101C1200D12CCF01861997094B815C81452B79F034
:101C22008B819C81B6010E947129805D82936B83B6
:101C32007C832150310941E0241A3108EACF213056
:101C4200310571F3FC013197E60DF71DE114F10442
:101C520011F42BE201C02DE220830297B301680F39
:101C6200791FEE89FF897A9710F020E701C020E5FD
:101C7200FB0120830817190724F4888599850E949F
:101C8200A32AFF81F1FF27C0F0FD25C022E0221A1E
:101C9200310812141304FCF4C3010E94D829860DE2
:101CA200971D9C01261937094D815E81241735073E
:101CB2003CF0FC012081E20DF31D20830197F1CF5E
:101CC200A10160E370E08D819E81860D971D0E94C7
:101CD2006F2A1C861D86C3010E94D8290F811A8D86
:101CE2002C853D85AC01B301888D998D0E944D24D0
:101CF200A096E2E10C9409295F8153FF2ACD80E28C
:021D02001BCDF7
:101D0400A2E1B0E0E8E8FEE00C94AB284C016B01E2
:101D140019821A828FEF9FEF8B839C831D821E8210
:101D24004F83588729873A87A12CB12CD6016D900F
:101D34007C90F301EA0DFB1D808181110FC0D60157
:101D4400ED93FC938081853209F0D9C13F01BFEF47
:101D54006B1A7B0AF6016082718219C0853279F3AD
:101D6400B401082E000C990B0E948A224FEFA41A8A
:101D7400B40ADCCF8C32ACF08D32F9F489819A81CB
:101D8400816089839A833196D601ED93FC93D601C1
:101D9400ED91FC9180818B3269F789819A8184600D
:101DA400F0CF803221F489819A818860EACF83322E
:101DB40051F489819A818061E4CF803321F489814F
:101DC4009A818260DECFB701C6010E945B258D83B4
:101DD4009E8397FF0BC029813A81B1E02B27298389
:101DE4003A839195819591098D839E8389819A8106
:101DF40080FF03C08D7F89839A83D601ED91FC9186
:101E0400119780818E3249F43196ED93FC93B7019A
:101E1400C6010E945B258B839C83C6010E944927CF
:101E2400582ED601ED91FC918081082E000C990B5F
:101E34000E94AB2A893609F443C084F4833609F43A
:101E440008C134F4853209F42DC18136E1F036C17C
:101E54008436B1F188360CF4DFC030C1803709F420
:101E64009AC03CF48E3609F4C2C08F3609F461C0BE
:101E740025C1853709F440C0883709F476C0833713
:101E840009F01CC1F9C0652D70E0A701CE010B96C5
:101E94000E946927892B09F42CC1D601ED91FC918C
:101EA4001197CF0101968D939C932081AE01455FDC
:101EB4005F4FBE016F5F7F4FC4010E94690B16C163
:101EC400652D70E0970141E050E0CE010B960E9431
:101ED4003119892B09F40DC1F60180819181019694
:101EE40080839183AE01455F5F4FBE016F5F7F4F7B
:101EF400C4010E947218FAC0652D70E0970140E099
:101F040050E0CE010B960E943119892B09F4F1C0DF
:101F1400D6018D919C91119701968D939C93AE015E
:101F2400455F5F4FBE016F5F7F4FC4010E94462132
:101F3400DDC0652D70E0970140E050E0CE010B96C6
:101F44000E943119892B09F4D4C0F6018081918152
:101F5400019680839183AE01455F5F4FBE016F5F41
:101F64007F4FC4010E941020C1C0652D70E097010D
:101F740040E050E0CE010B960E943119892B09F400
:101F8400B8C0D601ED91FC911197CF0101968D93C4
:101F94009C93208122C0D701ED91FC911197CF0130
:101FA40002968D939C93008111810B871C871D865B
:101FB4001E861F86188A198A1A8AF60180819181E1
:101FC4000196808391838B859C85892B29F420E05D
:101FD40030E040E356E984C028E7AE01455F5F4F37
:101FE400BE016F5F7F4FC4010E944C157FC0A501E5
:101FF400400F511F652D70E09701CE010B960E9492
:10200400661E892B09F475C0D6018D919C91119798
:1020140001968D939C9373C0652D70E0A701CE014A
:102024000B960E946927892B09F463C0D601ED91B0
:10203400FC911197CF0101968D939C932081AE0161
:10204400455F5F4FBE016F5F7F4FC4010E94D3079E
:102054004DC0B0E85B124DC0F601808191810196BC
:1020640080839183D701ED91FC911197CF01029662
:102074008D939C93808120C0B0E85B123AC0F60136
:1020840080819181019680839183D701ED91FC91A8
:102094001197CF0102968D939C934081518120E04A
:1020A40030E01EC0B0E85B1224C0F601208131810B
:1020B4002F5F3F4F208331838B870DC085E28B8751
:1020C400D6016D927C9219821A821D821E828FEF34
:1020D4009FEF8B839C8321E030E0AE01455F5F4F2F
:1020E400BE016F5F7F4FC4010E94DF258A0D9B1DD7
:1020F40007C0F60180819181019680839183C50197
:082104006296EFE00C940C2937
:10210C00ABE1B0E0ECE8F0E10C94A8288C839D8363
:10211C006C877D8749835A832E8B453251051CF47D
:10212C004130510539F486E190E080930030909372
:10213C00013079C12C813D812115310509F473C120
:10214C00F9011081112309F46EC11901103239F013
:10215C00812F012E000C990B0997059730F43FEF56
:10216C00231A330AF1011081F1CF1D3249F4F10128
:10217C00118191012F5F3F4F190131E03A8709C05E
:10218C001B3231F4F101118191012F5F3F4F190185
:10219C001A86103309F044C0C10101968F8B988FB9
:1021AC00F101118189819A818F7E892BD9F5812F3B
:1021BC008F7D883561F51281812F8062082E000C8D
:1021CC00990B81569109812E012E000C99084A9782
:1021DC0030F0C4010E945D29892B39F038C1C4014B
:1021EC000E94782A87538031A4F32F89388D2C8351
:1021FC003D838C859D85892B09F01AC1612C712C2E
:10220C00812C912C198E1F8A412C512C33C1E981C0
:10221C00FA81EF2B09F426C12F88388C01E00DC010
:10222C0000E003C02F88388C01E029813A81232BF0
:10223C0021F48AE090E089839A839E89992399F00E
:10224C00EA85E1111FC0FFEFFE872FEF2F873FEFCD
:10225C00388B8FEF898B9FEF9A8BEFEFEB8BFC8B8F
:10226C002FE72D8B18C03FEF3E878FEF8F879FEFA7
:10227C00988BEFEFE98BFFEFFA8B2FEF2B8B3C8BCF
:10228C008D8B09C01E861F86188A198A1A8A1B8A8A
:10229C001C8A90E89D8B1B86612C712C812C912CB7
:1022AC00198E1F8A412C512CEA81EE0FEE0BEE8316
:1022BC00212F2062022E000C330B21563109812F65
:1022CC00012E000C990B2A31310528F40E94782A32
:1022DC0087538B8306C0C0970A9708F089C01053A8
:1022EC001B83FB818F2FFF0F990B29813A8182175A
:1022FC0093070CF07DC03B8531115DC05301640127
:10230C00E98CFF88820129813A814E81542F642FF8
:10231C00742F842F942F0E94EE2159016A017B01A6
:10232C008C019B81990F990B2B81392F492F592F98
:10233C00692F792F892F0E94812A2B833F83B42FF9
:10234C00A52F6A8F7B8F888799879301A401698D4C
:10235C007F89C201AB80BF80CB2EDA2EEA8CFB8C3E
:10236C00088519850E948A2A09F070F48E898823C1
:10237C0071F12E853F85488959896A897B898C89B9
:10238C009D890E948A2A18F5E2E2F0E0E093003081
:10239C00F0930130FE85FB832F852F83B889A989A3
:1023AC003A893A8F8B898B8F9C899887ED89E9873D
:1023BC00F1E0FB870CC06B827F82B82DA92D298D93
:1023CC002A8F3F893B8F4886598681E08B879FEF08
:1023DC00291A390AF101108101E06B807F808B2E64
:1023EC009A2EFA8DF98FEB8DEF8B4884598460CF40
:1023FC00FB85F1110FC02A85222361F09301A40102
:10240C00698D7F89C2010E94B92939014A01698FFE
:10241C007F8B2C018C859D85892B61F1002381F0AC
:10242C002C823D820DC02C853D85232B09F4E6CEF4
:10243C00612C712C812C912C198E1F8A412C512CC2
:10244C002C813D81EC85FD852083318313C0910166
:10245C002E5F3F4F2F8B388F00E080E190E0898317
:10246C009A8305C001E0E8E0F0E0E983FA832F8865
:10247C00388CE3CE9301A401698D7F89C2016B96E0
:06248C00E2E10C940929B5
:10249200A0E1B0E0EFE4F2E10C94A8282C016F87F0
:1024A200788BFA01390104811581A084B1842681D7
:1024B200378129873A870E94E426F30120813181FE
:1024C200820F931F80839183C50101970115110526
:1024D20009F48C015C01081719070CF45801E9840E
:1024E200FA84F1E0EF1AF10821E030E02F83388717
:1024F200212C312C1D821E82C12CD12C812C912C9D
:102502001B861C862D863E862A143B040CF036C19F
:10251200C2010E94D6228C018F3F3FEF930739F40C
:10252200121413040CF42AC18FEF9FEF4EC1C11491
:10253200D104D1F48B32910511F08D97A9F42114B5
:10254200310431F08214930419F0B201C80119C0A8
:10255200F7010183F3018081918101968083918348
:10256200CC24C394D12CFDC02B853C85232BD1F4E4
:102572000E321105B9F48114910431F0B2018EE2E8
:1025820090E00E94A827FAC02EE2F7012183F3010E
:102592008081918101968083918321E030E02B87B5
:1025A2003C87DFC08114910451F58D819E81892B76
:1025B20039F0C8010E94AB2A80379105A1F406C008
:1025C200C8010E94AB2A8536910569F4F70101839F
:1025D200F30180819181019680839183C12CD12C5A
:1025E2008F809884BEC0C60101962816390639F438
:1025F200C8010E94AB2A8837910509F4D5C08D81A4
:102602009E81892B31F0C8010E944929892B31F022
:10261200A0C0C801C0970A9708F49BC0B201C801C4
:102622000E94A8272C143D0409F0A8C0E0EDF5E9AA
:1026320080819181A281B38189839A83AB83BC8398
:10264200F1013296ED83FE83EA15FB051CF080E072
:1026520090E06FC029853A85220D331D2F8338877C
:10266200C12CD12CAA24AA94BA2C7101EC0CFD1C09
:102672004701C2010E94D6228C01019609F457C07B
:102682008FEFA816B80671F4C8010E94AB2A8C011C
:102692008936910501F18E36910579F5AA24A39424
:1026A200B12C1BC0C8010E94AB2AF501EE0FFF1F1F
:1026B20021E030E02C0F3D1FE20FF31F0190F0816B
:1026C200E02DEC0DFD1D2081022E000C330B821734
:1026D200930719F012C0A12CB12CEF81F885019358
:1026E200EF83F887FFEFCF1ADF0A23E0C216D10487
:1026F20009F0BBCF83E090E01CC08D819E818E15D6
:102702009F05C4F3E985FA85EE0EFF1EF1E08F1AEC
:102712009108821493040CF49ACFF70182917F01FD
:10272200B201082E000C990B0E94A827EFCF8FEF61
:102732009FEF1816190614F59101280F391F2D87DE
:102742003E87F30120813181820F931F8083918321
:1027520015C0F7010183F301808191810196808385
:102762009183FFEF2F1A3F0A2F8138852F5F3F4F4A
:102772002F8338873FEFE31AF30AC4CEE985FA853F
:102782008D859E85E80FF91F108260E070E08985D3
:102792009A850E94152BEF85F88960837183828365
:1027A200938380E090E011C0F7018081803309F0CB
:1027B20026CF0183F30180819181019680839183E9
:1027C20021E030E02D833E83CCCF6096E2E10C9491
:0227D2000929D3
:1027D4004E6F20636865636B73756D20666F756EED
:1027E400642E0A0025325800436865636B73756D67
:1027F4002065787472616374696F6E206661696CB8
:1028040065642E0A0053697A65206F6620636865E3
:10281400636B73756D3A20257A75206279746573DC
:102824000A0053697A65206F662070726F76696456
:1028340065645F636865636B73756D5F636861721C
:102844003A20257A752062797465730A00496E7698
:10285400616C69642074696D6520666F726D617462
:1028640000496E76616C69642074696D65207661D7
:102874006C75657300253264253264256600253045
:1028840032643A253032643A252E33660043757239
:1028940072656E74206C61743A20252E38662C2083
:1028A40063757272656E74206C6F6E3A20252E38D3
:1028B400660D0A0044657374696E6174696F6E20F5
:1028C4006C61743A20252E38662C20646573746913
:1028D4006E6174696F6E206C6F6E3A20252E3866B7
:1028E4000D0A005363616C65642063757272656ED2
:1028F40074206C61743A20252E38662C206375721E
:1029040072656E74206C6F6E3A20252E38660D0A3F
:10291400005363616C65642064657374696E6174EB
:10292400696F6E206C61743A20252E38662C206401
:10293400657374696E6174696F6E206C6F6E3A2092
:10294400252E38660D0A004C61746974756465201F
:102954007468726573686F6C643A20252E38660D4E
:102964000A004C6F6E6769747564652074687265DB
:1029740073686F6C643A20252E38660D0A004C612A
:1029840074697475646520646966663A20252E3816
:10299400660D0A004C6F6E6769747564652064691E
:1029A40066663A20252E38660D0A00596F75206830
:1029B400617665206172726976656420617420793C
:1029C4006F75722064657374696E6174696F6E21CA
:1029D4000D0A004E6F742079657420617420746848
:1029E400652064657374696E6174696F6E2E204B23
:1029F40065657020676F696E672E0D0A0024474E67
:102A0400474741002C0054696D653A2025730D0A2F
:102A1400004C617469747564653A20252E3666200D
:102A240025630D0A004C6F6E6769747564653A20FE
:102A3400252E36662025630D0A004E6F20646174CE
:102A44006120617661696C61626C652E2E2E2E0A9E
:102A5400000A00474E47474100466F756E642047A1
:102A64004E4747412073656E74656E63653A200076
:102A740025730A00427566666572206F7665726614
:102A84006C6F772C20726573657474696E672E2E73
:032A94002E0A0007
:102A9800A4E1B0E0E2E5F5E10C94A8288F839887DB
:102AA80069837A834B8B5C8B122FDB011296ED9135
:102AB800FC91139714962D913C9115972D833E8385
:102AC800CD90DC90119716962D903C901797F7FDB6
:102AD80003C0E894C1F802C0E1E0F0E0C6018071EB
:102AE800992789879A87C4FE1FC0AB89BC892C9116
:102AF80011963C91119712964C91129713965C91EE
:102B0800139714966C91149715967C9115971696B1
:102B18008C91169717969C91A0E00E941A2A21F092
:102B28008D819E81029702C08D819E8196012870B9
:102B380033272B873C87C3FC0197AB89BC894C9012
:102B480011965C90119712966C90129713967C9040
:102B5800139714968C90149715969C901597169623
:102B6800AC9016971796BC90A981BA811896ED90EB
:102B7800FC901997B1E0EB1AF108D101AE0DBF1D19
:102B88001C928B839C839F01281B390B2D873E87C2
:102B9800C601827099278F87988B812F012E000C90
:102BA800990BDC01A154B109A98BBA8B32E0E31669
:102BB800F10430F489859A85892B09F04CC073C0DB
:102BC8009201A301B401C501A0E00E941A2A81F173
:102BD800B1E0EB1AF108C2018F7099278A3091058C
:102BE80014F4C09602C0895A9F4FE989FA897A97E6
:102BF80048F49C012062215631092A31310510F42C
:102C08000E94782AF101EE0DFF1D80832B813C8103
:102C1800215031092B833C839201A301B401C501E2
:102C280004E00E94E82729013A014B015C01BECF6C
:102C38008D859E85AB81BC818A0F9B1F181619064E
:102C48003CF21A161B060CF0B5CFEF85F889EF2B6E
:102C580009F0BECFAFCFAB89BC892C9111963C91BE
:102C6800119712964C91129713965C91139714969C
:102C78006C91149715967C91159716968C911697CA
:102C880017969C91A0E00E941A2A69F0F101EE0DB6
:102C9800FF1D31971083B2E0EB1AF108F101EE0D38
:102CA800FF1D80E38083EB85FC85EF2B41F0F1E08D
:102CB800EF1AF108F101EE0DFF1D80E28083A98172
:102CC800BA8118964D915C911997415051094E1946
:102CD8005F09B1016E0D7F1D86012D813E818F81B7
:102CE80098850E944D249C01EF81F885808191810F
:102CF80090FF09C0A981BA8112968D919C91139772
:102D0800821793070CF4C9016496E2E10C9409292F
:102D18008F929F92AF92BF92CF92DF92EF92FF92E3
:102D2800C62ED72EE82EF92E822E932EA42EB52E3F
:102D38005F934F933F932F939F938F937F936F93BB
:102D480081E998E69F938F930E94BF2482EC8F932A
:102D58008AEB8F9380E78F9382E08F9382E48F933F
:102D680083E38F9384EE8F9381EF8F9388EB98E6BC
:102D78009F938F930E94BF2420E034E244E759E4F4
:102D88006C2D7D2D8E2D9F2D0E94022BC62ED72EA9
:102D9800E82EF92E20E034E244E759E4682D792D35
:102DA8008A2D9B2D0E94022B862E972EA82EB92E97
:102DB8009F938F937F936F93FF92EF92DF92CF92BF
:102DC80087EE98E69F938F930E94BF248CEC8F9395
:102DD80091EB9F938F938AEF8F938CE48F938BE281
:102DE8008F938FE88F9382E88F9385E199E69F937D
:102DF8008F930E94BF248DB79EB788968DBF9EBFC4
:102E080084E48F938FEA8F931F921F928BE499E645
:102E18009F938F930E94BF2481E48F9380E28F93C6
:102E28001F921F9286E699E69F938F930E94BF2474
:102E380022E83FE84BE25CE46C2D7D2D8E2D9F2D22
:102E48000E94BB2A6B017C01E894F7F82AEF3CEC5E
:102E580041EB5CE4682D792D8A2D9B2D0E94BC2ABC
:102E68004B015C01E894B7F8FF92EF92DF92CF92A2
:102E780082E899E69F938F930E94BF24BF92AF92F6
:102E88009F928F9288E999E69F938F930E94BF241F
:102E98008DB79EB748968DBF9EBF20E030E04FEAC1
:102EA80054E4C701B6010E94EF2A181654F420E032
:102EB80030E040E251E4C501B4010E94EF2A18163F
:102EC8004CF08FEA99E69F938F930E94BF240F904E
:102ED8000F9008C087ED99E69F938F930E94BF24B7
:102EE8000F900F90FF90EF90DF90CF90BF90AF9032
:062EF8009F908F900895E9
:102EFE00A8E0B0E0E5E8F7E10C94A8284C016F8358
:102F0E007887FA0159018481958189839A83E084B7
:102F1E00F18446805780C4010E94E426F501208189
:102F2E003181820F931F8083918389819A81892BAE
:102F3E0021F4F7013197E983FA834AE0C42ED12CAC
:102F4E00612C712C00E010E0C70101978D839E83E8
:102F5E0089819A81081719070CF097C0ED81FE81BF
:102F6E000E171F070CF091C0C4010E94D6227C01DF
:102F7E009FEFE916F90639F4101611060CF485C008
:102F8E008FEF9FEFA4C001151105B1F4EBE2EE1621
:102F9E00F10421F0FDE2EF16F10471F4F201E0828A
:102FAE00F5018081918101968083918366246394DB
:102FBE00712C01E010E0CCCFC201800F911F8B83EA
:102FCE009C8306151705C1F538019FEF691A790A1A
:102FDE00EAE0CE16D10441F4F0E3EF16F10451F518
:102FEE0028E0C22ED12C28C088E0C816D10411F5D5
:102FFE00C701806288379105E9F4C4010E94D62288
:10300E001C01B4010E94A827C1010E944929892BE5
:10301E0071F0EB81FC81E0828301F5018081918169
:10302E0001968083918390E1C92ED12C91CFB4016A
:10303E00C10111C0612C712CC701C0970A9770F0A5
:10304E00F0E1CF16D10429F4C7010E944929892B3A
:10305E0081F4B401C7010E94A82717C088E0C816E2
:10306E00D10439F498E3E916F1041CF08AE0C82E75
:10307E00D12CEB81FC81E0820F5F1F4FF501808127
:10308E00918101968083918363CFF201E00FF11F4E
:10309E001082FAE0CF16D10441F44AE050E060E02D
:1030AE0070E0C2010E94062B06C0A60160E070E02F
:1030BE00C2010E940A2BEF81F8852083318342835F
:1030CE005383648375838683978380E090E028968C
:0630DE00E2E10C94092957
:1030E400ADE0B0E0E8E7F8E10C94A82889879A8776
:1030F4006B837C83FA01DB011296CD90DC901397ED
:1031040014968D919C9115978D839E83ED90FC90E0
:103114001197E982FA8216960D90BC91A02DAF8387
:10312400B887208031804280538064807580868097
:1031340097808101B42DF52DE62D7B868C869D86A6
:103144009101A201B301C401A0E00E941A2A4CF427
:103154000E94B9298901B42FF52FE62F7B878C872C
:103164009D87D7FC04C0E894E1F8E982FA829101D2
:10317400A201B301C401A0E0ED80FE800E941A2ADE
:103184001CF0898182FF04C081E0E81AF10805C0BF
:1031940083FF03C091E0E91AF108CE0101965C01B6
:1031A4008AE0C82ED12C2B2F3F2F4E2F5B856C85A8
:1031B4007D858B819C810E94981AFC019101A2015A
:1031C400B301C401A0E00E941A2A1CF0898182FF85
:1031D40012C031970F8118850E0F1F1F9101A20194
:1031E400B301C401A0E00E941A2A14F08BE201C0CA
:1031F4008DE2D80108C083FF07C03197AF81B8853D
:10320400AE0FBF1F80E28C9309811A81AB81BC8110
:1032140018964D915C911997415051094E1B5F0BC3
:103224006F8178856E0F7F1F2D813E8189859A85F8
:103234000E944D249C01E985FA858081918190FF4B
:1032440009C0AB81BC8112968D919C911397821712
:0E32540093070CF4C9012D96E2E10C940929B0
:103262000F931F93CF93DF93FC01D9016838710547
:1032720031F194F461387105B1F12CF460387105C3
:1032820009F478C09FC06238710509F459C06438E6
:10329200710509F46FC096C0603A710509F448C01F
:1032A2002CF46039710509F44BC08CC0603C710587
:1032B20009F476C0603F710509F472C083C0CD91F4
:1032C200DC911197CE0102968D939C93452B39F098
:1032D2009881892F880F880B908381835BC08881B6
:1032E2008083118268C0CD91DC911197CE01049642
:1032F2008D939C93452B99F088819981AA81BB81FA
:10330200AC01BD01770F440B542FBA018083918326
:10331200A283B383448345834683478328C00881BD
:1033220019812A813B81008311832283338345C023
:10333200CD91DC911197CE0102968D939C9323C07F
:10334200CD91DC911197CE0108968D939C93788153
:1033520069815A814B813C812D819E818F8170834D
:10336200618352834383348325839683878381E0F9
:1033720090E02AC0CD91DC911197CE0102968D93F7
:103382009C93452BA1F099812881892F880F880B66
:103392002083918382838383848385838683E6CF9C
:1033A200CD91DC911197CE0102968D939C93088169
:1033B200198100831183128213821482158216826C
:1033C2001782D5CF80E090E0DF91CF911F910F91CE
:0233D20008955C
:1033D4004F925F926F927F928F929F92AF92BF9221
:1033E400CF92DF92EF92FF920F931F93CF93DF93CD
:1033F400CDB7DEB7C456D109CDBFDEBF8C0146E0E0
:1034040050E061E07AE60E94C727892B09F079C071
:1034140044E650E0B801CE0101960E947528A596B5
:103424001FAEA59768E07AE6CE0101960E9421239B
:1034340068E07AE680E090E00E9421238C0168E055
:103444007AE680E090E00E9421235C0168E07AE65D
:1034540080E090E00E9421237C0168E07AE680E02D
:1034640090E00E9421234C0168E07AE680E090E03D
:103474000E9421236C01F7016081C5010E943E2254
:10348400662E772EB82EA92EF6016081C4010E9403
:103494003E22462E572E882E992E762F272F352DF5
:1034A400482D592D662D772D8B2D9A2D0E948C1623
:1034B400C8010E94861C9F938F938AE09AE69F938B
:1034C4008F930E94BF24F70180811F928F93AF9244
:1034D400BF927F926F9285E19AE69F938F930E94A9
:1034E400BF24F60180811F928F939F928F925F92E7
:1034F4004F9289E29AE69F938F930E94BF24CDBF97
:10350400DEBFCC59DF4FCDBFDEBFDF91CF911F911E
:103514000F91FF90EF90DF90CF90BF90AF909F906E
:0C3524008F907F906F905F904F90089503
:10353000A2E1B0E0EEE9FAE10C94A828FC010A8BC4
:10354000912E822E732E642E552E462E7D83CC8690
:10355000DA86A886B986268137812E833F83D501F6
:103560008D919C91228133810084F185E02D3197EA
:1035700037FF02C021E030E04E815F81E40FF51F8C
:103580001082EB83FC831701A1E0B0E0A983BA832A
:10359000F901EE19FF09ED87FE879C0122703327A0
:1035A0002F87388B3A85330F330B398BEB81FC81B6
:1035B0002E813F81E21BF30B4B815C814217530745
:1035C00009F44FC02A89392D482D572D662D752DA8
:1035D000842D9D81A0E00E941A2A99F14C854B8789
:1035E000A42EBA84C988DC2CEC2CFC2C0C2D1C2DB0
:1035F0002A89392D482D572D662D752D842D9D81B5
:103600000E94E629C90129839A83805DAB81BC8130
:103610008E93AB83BC83B1E02B1A31082A89392DF4
:10362000482D572D662D752D842D9D810E94E829EA
:103630002A8B932E842E752E662E572E482E9D8310
:10364000B5CF8D859E85820D931D1816190634F20F
:103650001214130444F48F859889892B09F0BECF86
:1036600002C0E0E0F0E0A981BA81AB2B41F4A8856B
:10367000B9858D919C9111978F7E8D939C93CF01ED
:083680006296E2E10C940929B5
:10368800A4E0B0E0EAE4FBE10C94A8287C016B8399
:103698007C83FA01590144805580C084D1846680B6
:1036A80077800E94E426F50120813181820F931FE3
:1036B800808391834114510421F42601F1E04F1ACB
:1036C8005108130100E010E0C601019789839A832D
:1036D800041515050CF042C089819A81081719074D
:1036E800ECF5C7010E94D6226C019FEFC916D906D6
:1036F80031F41016110694F18FEF9FEF64C0C601E4
:103708000E944929892BF1F401301105B1F4C60151
:103718000E94AB2A8837910581F4F30180818033B8
:1037280061F4C7010E94D6224C01B7010E94A82764
:10373800C4010E944929892B29F4B701C6010E94B6
:10374800A8270CC0F101C1921F010F5F1F4FF5019F
:1037580080819181019680839183BACFD301A00F94
:10376800B11F1C92033011053CF4EB81FC811082DF
:1037780011821282138221C0F301329600E010E018
:103788009801819190ED980F9A3018F0806299EA2B
:10379800980F84E0000F111F221F331F8A95D1F75D
:1037A800090F111D211D311DAE17BF0751F7EB8100
:1037B800FC8100831183228333831482158216824D
:0E37C800178280E090E02496E2E10C9409293B
:1037D600CF93DF93FC01D9016838710521F18CF490
:1037E6006138710561F12CF46038710509F476C011
:1037F60085C062387105B1F16438710509F46EC08F
:103806007DC0603A710509F469C024F46039710518
:1038160049F174C0603C710509F460C0603F7105F0
:1038260009F45CC06BC0CD91DC911197CE01029674
:103836008D939C93A881B98180818C935CC0CD9136
:10384600DC911197CE0102968D939C93A881B98144
:1038560040815181628173814D935D936D937C9319
:10386600139749C0CD91DC911197CE0102968D93A5
:103876009C93452B99F070816181528143813481FB
:10388600258196818781E881F981708361835283DE
:10389600438334832583968387832DC0A881B9818A
:1038A600708161815281438134812581968187812E
:1038B6007C9311966C93119712965C9312971396BC
:1038C6004C93139714963C93149715962C9315972F
:1038D60016969C93169717968C930DC0CD91DC91F6
:1038E6001197CE0102968D939C93A881B981808110
:1038F60091818D939C9381E090E002C080E090E0FE
:06390600DF91CF9108954E
:10390C00AF92BF92CF92DF92EF92FF920F931F93E1
:10391C00CF93DF93CDB7DEB72897CDBFDEBF9E0127
:10392C002B5F3F4F3F932F93225031093F932F939F
:10393C00225031093F932F9329E738E63F932F9379
:10394C009F938F930E942927CDBFDEBF039709F069
:10395C0040C009811A8108311105F0F5EB80FC801B
:10396C003CE3E316F104D8F5DD80CE80BF80A8845B
:10397C0020E030E0A9016D2D7C2D8B2D9A2D0E941D
:10398C00EF2A88237CF120E030E040E752E46D2DF3
:10399C007C2D8B2D9A2D0E94F42A882334F5AF921E
:1039AC00BF92CF92DF92FF92EF921F930F9382E818
:1039BC0098E69F938F931F9284E18F9380E292E31A
:1039CC009F938F930E943529CDBFDEBF80E292E397
:1039DC000EC081E598E60BC085E698E608C085E642
:1039EC0098E605C085E698E602C085E698E6289636
:1039FC00CDBFDEBFDF91CF911F910F91FF90EF9064
:0A3A0C00DF90CF90BF90AF900895B7
:103A16001F93CF93DF930E94C12681115AC08EE374
:103A26009AE60E94892769C00E948F28843269F429
:103A360085E59AE60E948927809134329091353245
:103A46008E3F910508F44DC03BC020913432309131
:103A560035322E3F3105A0F5A9014F5F5F4F4093E8
:103A6600343250933532F901EE5FFF4C80838A3051
:103A760011F08D3089F5FA01EE5FFF4C108267E593
:103A86007AE682E090E30E949D26892BA1F08DE5DF
:103A96009AE60E94892782E090E39F938F93DF93B3
:103AA600CF930E94BF2482E090E30E94EA190F9010
:103AB6000F900F900F9010923432109235320CC046
:103AC60088E79AE60E94892710923432109235329E
:103AD60003C0C4E7DAE614E20E94C1268111A4CF2E
:103AE6000CC09C012F5F3F4F209334323093353208
:103AF600FC01EE5FFF4C1083EFCFDF91CF911F915A
:023B0600089520
:103B08008F929F92AF92BF92CF92DF92EF92FF92E5
:103B18000F931F938B019C0157E1369527951795B5
:103B280007955A95D1F71127A8014F5751094731E1
:103B380051050CF045C057FD2DC00FEF1FEF2FE7C3
:103B480030E004C035952795179507954A95D2F723
:103B58004801590186229722A822B92289288A2851
:103B68008B2871F197FF07C0DC01CB01800F911FF3
:103B7800A21FB31F02C0DC01CB0100951095209550
:103B8800309580239123A223B323482F392F2A2F3E
:103B98005B2F1AC097FF0FC08B019C01000F111FEC
:103BA800221F331F012B022B032B51F040E030E082
:103BB80020E85FEB09C040E030E020E050E004C0BE
:103BC800462F372F282F592F642F732F822F952F89
:103BD8001F910F91FF90EF90DF90CF90BF90AF9023
:063BE8009F908F900895EC
:103BEE0010C00E94D02A58F00E94C92A40F029F431
:103BFE005F3F29F00C94DE2A51110C94D82A0C94B4
:103C0E00122B0E94072768F39923B1F3552391F3E2
:103C1E00951B550BBB27AA2762177307840738F02D
:103C2E009F5F5F4F220F331F441FAA1FA9F335D08A
:103C3E000E2E3AF0E0E832D091505040E695001C3E
:103C4E00CAF72BD0FE2F29D0660F771F881FBB1FF8
:103C5E00261737074807AB07B0E809F0BB0B802DD6
:103C6E00BF01FF2793585F4F3AF09E3F510578F002
:103C7E000C94DE2A0C94D82A5F3FE4F3983ED4F3DA
:103C8E00869577956795B795F7959F5FC9F7880FD6
:103C9E00911D9695879597F90895E1E0660F771F28
:103CAE00881FBB1F621773078407BA0720F0621BB9
:0E3CBE00730B840BBA0BEE1F88F7E095089588
:103CCC00CF93DF93DC01F90164387105D9F164F409
:103CDC006138710521F16238710509F440C0603812
:103CEC00710509F054C02EC060397105C1F184F41E
:103CFC006838710509F04BC0C081D181CE010296A4
:103D0C0080839183E881F981ED93FC9340833CC0DF
:103D1C00603A7105B9F0603C7105A1F038C0C08102
:103D2C00D181CE01029680839183E881F981ED9354
:103D3C00FC93052E000C660B770B4083518362833A
:103D4C00738322C0C081D181CE010296808391837E
:103D5C00E881F981ED93FC934083518315C0C081B8
:103D6C00D181CE01029680839183E881F981ED9314
:103D7C00FC9340835183852F880F880B8283838328
:103D8C00848385838683878381E090E002C080E012
:083D9C0090E0DF91CF91089542
:103DA4000FC00E94C92A38F00E94D02A20F095231F
:103DB40011F00C94DE2A0C94122B11240C94D82AA2
:103DC4000E94072770F3959FC1F3950F50E0551F8C
:103DD400629FF001729FBB27F00DB11D639FAA275C
:103DE400F00DB11DAA1F649F6627B00DA11D661FAB
:103DF400829F2227B00DA11D621F739FB00DA11DCC
:103E0400621F839FA00D611D221F749F3327A00D85
:103E1400611D231F849F600D211D822F762F6A2F21
:103E240011249F5750409AF0F1F088234AF0EE0F86
:103E3400FF1FBB1F661F771F881F91505040A9F7B3
:103E44009E3F510580F00C94DE2A0C94D82A5F3FE3
:103E5400E4F3983ED4F3869577956795B795F795EF
:103E6400E7959F5FC1F7FE2B880F911D9695879567
:043E740097F908951D
:103E7800A0E0B0E0E2E4FFE10C94AE285C01FB01B5
:103E88004A01C480D58000851185E680F7800E94AC
:103E9800E426F40120813181820F931F808391836E
:103EA800C114D10421F46801F1E0CF1AD108C0E0AF
:103EB800D0E001501109CC15DD05BCF5C017D107BC
:103EC800A4F5C5010E94D6228F3F2FEF920721F457
:103ED8001C161D0654F12FC0209789F48B329105CA
:103EE80019F08D32910559F4F7018083F40180812E
:103EF8009181019680839183C1E0D0E0DCCF9C0161
:103F0800205331092A30310520F0B5010E94A82735
:103F18000CC0F701EC0FFD1F80832196F40180810E
:103F28009181019680839183C6CFCE0DDF1D1882C3
:103F380080E090E002C08FEF9FEFCDB7DEB7ECE0F6
:043F48000C940F299D
:103F4C00A0E0B0E0ECEAFFE10C94AA284C01EB01F4
:103F5C00FA017901A480B58060847184C680D78011
:103F6C000E94E426F70120813181820F931F808308
:103F7C009183A114B10421F45301F1E0AF1AB108FB
:103F8C00260100E010E021E0621A71080A151B05F9
:103F9C0024F5061517050CF5C4010E94D6228F3F97
:103FAC00EFEF9E0721F410161106BCF02CC09C01FB
:103FBC00205331092830310520F0B4010E94A82784
:103FCC000CC0F20181932F010F5F1F4FF70180810D
:103FDC009181019680839183D9CFF601E00FF11F77
:103FEC00108248E050E060E070E0C6010E940A2BAD
:103FFC00288339834A835B836C837D838E839F8381
:10400C0080E090E002C08FEF9FEFCDB7DEB7E0E12C
:04401C000C940B29CC
:10402000A2E0B0E0E6E1F0E20C94A8281C014B010C
:10403000FA01DB0112962D913C91139714964D9045
:104040005C9015978D919C91119789839A83169610
:104050006D907C90179737FD03C08D7F89839A837D
:10406000008111812281338144815581668177816C
:10407000FE0131965F0188E0C82ED12C7201C40187
:104080000E94981A298124FF06C00197F301E80FC6
:10409000F91F20E32083298123FF06C00197F30144
:1040A000E80FF91F20E2208309811A81D4011896B4
:1040B0004D915C91199741505109481B590BB3011F
:1040C000680F791F9201C1010E944D249C01F101EA
:1040D0008081918190FF08C0D40112968D919C91AE
:1040E0001397821793070CF4C9012296E2E10C940E
:0240F00009299C
:1040F20011C00E94C92A38F00E94D02A20F039F457
:104102009F3F19F426F40C94122B0EF4E095E7FB72
:104112000C94DE2AE92F0E94072758F3BA17620788
:1041220073078407950720F079F4A6F50C94D72A33
:104132000EF4E0950B2EBA2FA02D0B01B9019001C0
:104142000C01CA01A0011124FF27591B99F0593F04
:1041520050F4503E68F11A16F040A22F232F342F4C
:104162004427585FF3CF469537952795A795F0409A
:104172005395C9F77EF41F16BA0B620B730B840BAF
:10418200BAF09150A1F0FF0FBB1F661F771F881F67
:10419200C2F70EC0BA0F621F731F841F48F48795BF
:1041A20077956795B795F7959E3F08F0B0CF9395B1
:0E41B200880F08F09927EE0F979587950895CE
:1041C000A0E0B0E0E6EEF0E20C94AC286C01EB016C
:1041D0005A017901452B49F00E94E426F70120811C
:1041E0003181820F931F808391836C807D80480191
:1041F000C0E0D0E06114710449F5C6010E94D622E6
:104200008F3FFFEF9F0731F4209789F101151105CA
:1042100009F527C0A114B10449F08032910551F18C
:104220009C01295031092530310520F10115110576
:1042300011F0F40180832196F7018081918101962C
:1042400080839183FFEF8F1A9F0AD4CFC615D705BD
:10425000A4F2DCCFA114B10421F0F801EC0FFD1F92
:10426000108281E090E0CD2B61F480E00AC08FEFF6
:104270009FEF07C0B6010E94A8270115110589F319
:0C428000ECCFCDB7DEB7EEE00C940D29BA
:10428C00A2E0B0E0ECE4F1E20C94A8283C014B0174
:10429C00FA01DB0112962D913C91139714964D90D7
:1042AC005C9015978D919C91119789839A831696A2
:1042BC002D903C90179737FD03C08D7F89839A838F
:1042CC0000811181228133814481558166817781FE
:1042DC00FE0131965F018AE0C82ED12C7201C40117
:1042EC000E94981A09811A81D40118964D915C91FB
:1042FC00199741505109481B590BB101680F791F8F
:10430C009201C3010E944D249C01F3018081918193
:10431C0090FF08C0D40112968D919C91139782172F
:0E432C0093070CF4C9012296E2E10C940929D2
:10433A0088249924F401E401B0E49F93AA279A15EA
:10434A008B049C04ED05FE05CF05D007A10798F460
:10435A00AD2FDC2FCF2FFE2FE92D982C892E982FE9
:10436A00872F762F652F542F432F322F2227B850AD
:10437A0031F7BF9127C01B2EBF91BB27220F331FD6
:10438A00441F551F661F771F881F991F881C991C79
:10439A00EE1FFF1FCC1FDD1FAA1FBB1F8A149B0421
:1043AA00EC05FD05CE05DF05A007B10748F08A1820
:1043BA009B08EC09FD09CE09DF09A00BB10B2160AE
:1043CA001A94E1F62EF49401AF01BE01CD01000C5E
:0243DA00089544
:1043DC00DF93CF931F930F939A9DF02D219FF00D98
:1043EC008B9DF00D8A9DE02DF10D039FF00D029F2A
:1043FC00E00DF11D4E9DE00DF11D5E9DF00D4F9DEC
:10440C00F00D7F936F93BF92AF925F934F93D50153
:10441C000E94C9298B01AC01D7010E94C929EB016B
:10442C00E80FF91FD6010E94662A2F913F91D60101
:10443C000E94C929C60FD71FE81FF91FAF91BF9162
:10444C000E94662A2F913F910E94C929C60FD71F3F
:10445C00E81FF91FD6010E94C929E60FF71F980122
:10446C00BE01CF0111240F911F91CF91DF910895BF
:10447C008F929F92AF92BF92CF92DF92EF92FF9268
:10448C00CF93C62F0E94F92A4B015C0120E030E04B
:10449C0048EC52E40E94FE2A0E94C22A6B017C0165
:1044AC0084E68C9DB0018D9D700D1124072E000C9F
:1044BC00880B990B0E9462239B01AC01C501B401CE
:1044CC000E94BB2A20E030E040E752E40E94FE2A22
:1044DC004B015C01B601DD0C880B990B0E94622329
:1044EC009B01AC01C501B4010E94BC2ACB7FC33532
:1044FC0009F49058CF91FF90EF90DF90CF90BF9040
:08450C00AF909F908F9008957D
:104514000F931F93CF93DF93DB01109719F48FEF61
:104524009FEF3DC02D913C91119730FF25C0169609
:104534004D915C91179714962D913C9115974217C4
:10454400530778F41296ED91FC9113978083129699
:104554002D913C9113972F5F3F4F12962D933C93CF
:10456400139716962D913C9117972F5F3F4F1696F0
:104574002D933C93179713C01C96ED91FC911D97B6
:10458400309769F2EB01092F182F0995892B39F619
:104594008E819F8101968E839F83812F902FDF913F
:0845A400CF911F910F910895C2
:1045AC00CF93DF93DC011A968D919C911B9700970A
:1045BC00B9F001971A968D939C931B97FD01E80F08
:1045CC00F91F808516962D913C9117972F5F3F4FC1
:1045DC0016962D933C931797082E000C990B28C018
:1045EC008D919C91119790FF10C01296ED91FC91BA
:1045FC0013978081082E000C990B0097B9F0319617
:10460C001296ED93FC9313970FC01E96ED91FC91AF
:10461C001F97309759F0ED01CD0109952E813F81FF
:10462C002F5F3F4F2E833F83992702C08FEF9FEF61
:06463C00DF91CF9108950B
:104642000F931F93CF93DF93EC018B01892B31F4EE
:10465200C0913632D0913732209751F1B801CE0154
:104662000E943E28C80FD91F8881811105C010926F
:104672003632109237321DC0B801CE010E94212875
:10468200FE01E80FF91FE0933632F0933732808152
:10469200882341F0CF0101968093363290933732CE
:1046A200108204C01092363210923732CE0102C00C
:0E46B20080E090E0DF91CF911F910F9108956D
:1046C000E89409C097FB3EF49095809570956195AC
:1046D0007F4F8F4F9F4F9923A9F0F92F96E9BB2762
:1046E0009395F695879577956795B795F111F8CFDE
:1046F000FAF4BB0F11F460FF1BC06F5F7F4F8F4F49
:104700009F4F16C0882311F096E911C0772321F03E
:104710009EE8872F762F05C0662371F096E8862FD6
:1047200070E060E02AF09A95660F771F881FDAF72D
:0A473000880F9695879597F9089574
:10473A00A2E8B0E0E3EAF3E20C94AE285C014A0195
:10474A00CF57DF4F68837983C158D040C12CD12C11
:10475A00CF57DF4FE881F981C158D0408081882343
:10476A00E9F07401860120E830E0AE014F5F5F4F47
:10477A00BE016F577F4FC5010E94820E8C0D9D1D91
:10478A008C159D054CF48FE490E080930030909353
:10479A0001308FEF9FEF03C06C01DACFC601CE570D
:0847AA00DF4FECE00C940F2935
:1047B200A0E1B0E0EFEDF3E20C94B428FB01BA0102
:1047C200AE014F5F5F4F7A0140E1D7011D924A95DA
:1047D200E9F742E051E049835A838B839C83F7FFD8
:1047E20009C08FE490E080930030909301308FEF06
:1047F2009FEF14C0A9018C013197ED83FE83C7019D
:104802000E94D9284F8158852D813E814217530736
:1048120008F49A01F801E20FF31F10826096E6E0B5
:044822000C941529B4
:10482600A0E1B0E0E9E1F4E20C94B428FB01BA019E
:10483600AE014F5F5F4F7A0140E1D7011D924A9565
:10484600E9F742E051E049835A838B839C83F7FF63
:1048560009C08FE490E080930030909301308FEF91
:104866009FEF14C0A9018C013197ED83FE83C70128
:104876000E94C1284F8158852D813E8142175307DA
:1048860008F49A01F801E20FF31F10826096E6E041
:044896000C94152940
:10489A00A0E0B0E0E3E5F4E20C94AE286C015B0121
:1048AA007A01E901480181E08822992400FD03C0C8
:1048BA004217530750F0A701B501C6010E94042808
:1048CA00EC16FD0610F0C70117C08E010E191F095C
:1048DA000115110541F0B60180E290E00E948A229A
:1048EA0001501109F5CF8114910429F4A701B501EA
:1048FA00C6010E940428CE01CDB7DEB7ECE00C94C5
:02490A000F2973
:10490C00AC01FA0190814F5F5F4F9032D1F3292FA8
:10491C00092E000C330B295031092530310588F351
:10492C009B3209F540E050E0319602C040E050E087
:10493C0080E090E06AE02191022E000C330B2053B2
:10494C0031092A30310548F4689FD001699FB00DB8
:10495C001124CD01821B930BEECF452B49F491957D
:10496C008195910908959D3209F741E050E0DCCF23
:02497C0008959C
:10497E00CF93DF93CDB7DEB7C058D109CDBFDEBF21
:10498E009E012B573F4FD9014D915D919D0160E8DE
:10499E0070E0CE0101960E941324AE014F5F5F4F6F
:1049AE0020E030E0BA01E0E4F8E009C0848185FF40
:1049BE00FDCFDA018D91AD0182832F5F3F4FDB0179
:1049CE000D900020E9F71197A61BB70B2A173B078E
:1049DE0068F3C058DF4FCDBFDEBFDF91CF91089592
:1049EE00CF93DF93DC01FA0161387105A9F06338CA
:1049FE00710521F06038710519F50EC0C081D181A5
:104A0E00CE010296808391838D919D910D90BC91E4
:104A1E00A02DE881F9810DC0C081D181CE01029611
:104A2E0080839183E881F9818D919D910D90BC9148
:104A3E00A02D80839183A283B38381E090E002C096
:0A4A4E0080E090E0DF91CF91089521
:104A58000E940F2788F09F5798F0B92F9927B751D0
:104A6800B0F0E1F0660F771F881F991F1AF0BA950A
:104A7800C9F714C0B13091F00E94D72AB1E0089567
:104A88000C94D72A672F782F8827B85F39F0B93F59
:104A9800CCF3869577956795B395D9F73EF49095BD
:0E4AA8008095709561957F4F8F4F9F4F0895B9
:104AB600DC01ED91FC91119780818A3221F080E032
:104AC60090E03AE00EC03196ED93FC93DB01ED9158
:104AD600FC911197CF0102968D939C9380819181D1
:104AE6000895ED91FC911197208120532A3068F4A6
:104AF600389FA001399F500D1124CA01820F911DC4
:0C4B06003196ED93FC931197ECCF0895CD
:104B12000F931F93CF938C01C62F80E10E94522ADC
:104B2200CC23E1F020E030E0E0EAF8E04C2F50E066
:104B32004150510967E092E085818823ECF7808536
:104B4200D801A20FB31F8C932417350714F4948352
:104B520001C064832F5F3F4F2C1770F38C2FCF91CE
:064B62001F910F91089560
:104B6800CF93DF93DB01ED91FC912081203259F046
:104B7800022E000C330B295031092530310518F06D
:104B880080E090E015C0EB010E94E426E881F981FD
:104B98009F012F5F3F4F2883398321812032B1F352
:104BA800022E000C330B295031092530310570F3E2
:064BB800DF91CF9108958A
:104BBE00A0E0B0E0E5EEF5E20C94B0287C01FB013C
:104BCE00EA01C901A280B380C480D5800081118121
:104BDE00209711F4CCE1D6E9009719F4CE010E948A
:104BEE00D829B7FC04C0A816B90608F4C501960169
:104BFE00AC01BE01C7010E944D24CDB7DEB7EAE07D
:044C0E000C941129C8
:104C12000F931F93CF93DF93EB01BA01FA01068141
:104C22001781A9010E943C1F8F3FFFEF9F0789F068
:104C32004AE050E060E070E0C8010E94062B288341
:104C420039834A835B836C837D838E839F8380E079
:0C4C520090E0DF91CF911F910F91089529
:104C5E000F931F93CF93DF93EB01BA01FA010681F5
:104C6E001781A9010E943C1F8F3FFFEF9F0789F01C
:104C7E004AE050E060E070E0C8010E940A2B2883F1
:104C8E0039834A835B836C837D838E839F8380E02D
:0C4C9E0090E0DF91CF911F910F910895DD
:104CAA00CF93C0E08C2F8F7119F480E20E945C2AA6
:104CBA000E9485298A3099F0E091393291E09E0F5D
:104CCA0090933932F0E0EF5FFE4C80839091393255
:104CDA0081E09F3F08F480E0890F80933932CF5FEB
:084CEA00CF3F01F7CF910895BF
:104CF200990F0008550FAA0BE0E8FEEF16161706EB
:104D0200E807F907C0F012161306E407F50798F052
:104D1200621B730B840B950B39F40A2661F0232B6B
:104D2200242B252B21F408950A2609F4A140A695E7
:084D32008FEF811D811D089522
:104D3A00CF93DF93FB014081042E000C550B4115E4
:104D4A005105B9F0FC01CF012191222381F0022EF5
:104D5A00000C330B42175307B1F7DB011196EF0131
:104D6A002D91222331F039912317D1F3ECCF80E032
:084D7A0090E0DF91CF91089554
:104D82009091383280913932981302C00E94552690
:104D92009091393280913832891730F480913932CA
:104DA20090913832891B089590913832809139322E
:104DB200891738F480913932909138328150891BA9
:064DC200089580E0089551
:104DC8000F931F93CF93DF938C01C0E0D0E0C8010D
:104DD8000E94D6228F3F2FEF920779F080329105FB
:104DE80051F09C01295031092530310520F0B801D6
:104DF8000E94A82702C02196EACFCE01DF91CF9169
:064E08001F910F910895B7
:104E0E0057FD9058440F551F59F05F3F71F047956D
:104E1E00880F97FB991F61F09F3F79F08795089552
:104E2E00121613061406551FF2CF4695F1DF08C071
:104E3E00161617061806991FF1CF8695710561058E
:044E4E000894089527
:104E5200A0E1B0E0EFE2F7E20C94B828CE010196AF
:104E620020E1FC0111922A95E9F722E031E0298341
:104E72003A832D893E892B833C83AE01475E5F4F87
:104E82006F89788D0E94F1286096E2E00C941929CE
:104E9200CF93DF93EC0190E0E92FF0E0EE0FFF1FDC
:104EA200E257FB468081811102C081810EC0A88138
:104EB200B9812C91821305C091811196A883B9837F
:104EC20001C09F5F9B3040F3892FDF91CF910895FE
:104ED200FA0160387105CCF0623871051CF0633854
:104EE200710599F4A081B1819D012C5F3F4F208310
:104EF20031834D915D916D917C91FC014083518391
:104F02006283738381E090E0089580E090E00895E9
:104F1200CF93DF93EC01AC0120E030E0E0E4F8E075
:104F220009C0948195FFFDCFDA018D91AD01828395
:104F32002F5F3F4FDE010D900020E9F71197AC1B68
:0E4F4200BD0B2A173B0768F3DF91CF9108954E
:104F5000FB018F3F2FEF9207B9F022853385223076
:104F6000310594F4A9014F5F5F4F42875387DB01FE
:104F7000A20FB31F18968C932681378121503109D7
:0E4F800026833783992708958FEF9FEF0895BA
:104F8E00CF93DF9341155105A9F0DC01FB01EF0131
:104F9E008D91882351F09191992339F0413051052B
:104FAE0021F041505109891791F390E02881821B1D
:0E4FBE00910902C080E090E0DF91CF9108954C
:104FCC0097FB10F8169400080F93083098F00850CF
:104FDC00232F342F452F562F672F782F892F902D65
:104FEC00F4CF059497958795779567955795479541
:0C4FFC00379527950A95AAF70F910895A4
:10500800A0E0B0E0EAE0F8E20C94B2286C01EB0111
:105018008A017B01E40EF51ECE15DF0541F089916A
:10502800B601082E000C990B0E948A22F5CFC80100
:0A503800CDB7DEB7E8E00C941329B1
:10504200A0E0B0E0E7E2F8E20C94B2288C016B0138
:10505200EC017E01E01AF10A6991662341F0062E05
:10506200000C770BC6010E940E2A892B91F3C7010F
:0A507200CDB7DEB7E8E00C94132977
:10507C00A0E0B0E0E4E4F8E20C94B2288C016B01FF
:10508C00EC017E01E01AF10A6991662341F0062ECB
:10509C00000C770BC6010E940E2A892B91F7C701D1
:0A50AC00CDB7DEB7E8E00C9413293D
:1050B6000000803F000020410000C84200007A4402
:1050C60000401C460050C347002474498096184B84
:1050D60020BCBE4C286B6E4EF9021550EC78AD60C4
:0450E600CAF2497150
:1050EA00CF93DF93EB01FC014115510581F041504B
:1050FA005109DF01119629912083FD012111F4CF75
:10510A004A0F5B1F4A175B0711F01D92FBCFDF9115
:04511A00CF91089594
:10511E009091383280913932981789F0E091383277
:10512E0081E08E0F80933832F0E0EF5FFE4C80818D
:10513E00909138329F3F21F410923832089580E0DA
:02514E000895C2
:105150002F923F924F925F926F927F928F929F9287
:10516000AF92BF92CF92DF92EF92FF920F931F9375
:10517000CF93DF93CDB7DEB7CA1BDB0BCDBFDEBF4E
:02518000099490
:10518200A2E0B0E0E7ECF8E20C94B6288C01498387
:105192005A83AE014F5F5F4F0E949D23F801208129
:1051A20024FF02C08FEF9FEF2296E4E00C941729B0
:1051B200A2E0B0E0EFEDF8E20C94B6288C0149834E
:1051C2005A83AE014F5F5F4F0E949D23F8012081F9
:1051D20024FF02C08FEF9FEF2296E4E00C94172980
:1051E200A2E0B0E0E7EFF8E20C94B6288C01498324
:1051F2005A83AE014F5F5F4F0E947500F801208114
:1052020024FF02C08FEF9FEF2296E4E00C9417294F
:105212002A88398848885F846E847D848C849B8444
:10522200AA84B984C884DF80EE80FD800C811B8152
:10523200AA81B981CE0FD11DCDBFDEBFED01089588
:10524200AA1BBB1B51E107C0AA1FBB1FA617B707AA
:1052520010F0A61BB70B881F991F5A95A9F78095C6
:085262009095BC01CD010895F7
:10526A00A0E0B0E0EBE3F9E20C94B8289E01255FD8
:10527A003F4F49855A856F8178858D819E810E942D
:08528A00D923E2E00C9419297C
:105292009C01205331092A30310558F08062815631
:1052A200910931E020E0069708F030E0832F922F39
:0852B200089581E090E00895E9
:1052BA009C012062215631092A31310550F09C01A6
:1052CA002053310981E090E02A30310520F080E056
:0852DA00089581E090E00895C1
:1052E20097FB072E16F4009407D077FD09D00E9491
:1052F200212907FC05D03EF4909581959F4F089592
:08530200709561957F4F08953D
:10530A0090913B3280913A32981748F4E92FF0E0B5
:10531A00E050FE4C20819F5F90933B3202C02FEFFA
:06532A003FEF822F089501
:10533000092E0394000C11F4882352F0BB0F40F4A3
:10534000BF2B11F460FF04C06F5F7F4F8F4F9F4FE3
:025350000895BE
:10535200E0EAF4E081E0818382E08283E0E4F8E045
:105362008DE695E0808791878681806486830895A3
:1053720060957095809590953095409550952195C2
:105382003F4F4F4F5F4F6F4F7F4F8F4F9F4F08954C
:10539200A29FB001B39FC001A39F700D811D112474
:0E53A200911DB29F700D811D1124911D089563
:1053B000FC01AF014F5F5F4F2081222311F0FA0102
:0C53C000F8CF9F01281B390BC90108958C
:1053CC00689401C0E8948F929F92CF93DF930E94D0
:0C53DC009D21DF91CF919F908F9008954C
:1053E8000E94932AE0EAF8E084E0808381E08283E7
:0A53F80085839AE09683838308956D
:10540200696E66696E69747900494E46494E49541F
:0A54120059006E616E004E414E001D
:10541C00FC012E2F9F2F8191861721F08111F9CF3E
:08542C0090E00895822F08951D
:105434000024A7FD00942A17300540055005600597
:08544400700580059005089534
:10544C000E94EA2A0E94F4290E94A9290E940B1D9D
:06545C0080E090E00895DD
:105462000E94C929A59F900DB49F900DA49F800D05
:06547200911D11240895B4
:10547800EC010E94202B0E941F2BCE010E94212BA1
:06548800CE010E941D2B65
:10548E0068076C094C836A9074A07AC000806888A3
:06549E0000846C82008115
:1054A400880F81608093A708E0EAF8E0858188236B
:0454B400ECF7089574
:1054B800682F80E092E30E94892510923B32809306
:0454C8003A320895D7
:1054CC000E94C929460F571FC81FD91F08F43196CF
:0254DC00089531
:1054DE00FC01480F591FE417F50711F06193FBCF3C
:0254EE0008951F
:1054F0009C01215631092A31310510F48F75992705
:0255000008950C
:105502002A0D3B1D4C1D5D1D6E1D7F1D801F911FB1
:025512000895FA
:105514002A153B054C055D056E057F05800791073F
:025524000895E8
:10552600E0E0F4E08CE0828388E0828B838B089550
:10553600494E4600696E66004E414E006E616E0031
:10554600FC01DB012D91BD0121932111FACF0895B4
:105556009C01215431092A31310508F480620895ED
:10556600494E4600696E66004E414E006E616E0001
:0E5576005058BB27AA270E9479200C94982930
:0E5584000E942C256894B1110C94D82A089529
:0E55920000240A941616170618060906089536
:0E55A00000240A941216130614060506089538
:0E55AE00E894BB2766277727CB0197F908956D
:0C55BC0097F99F6780E870E060E00895B8
:0C55C800696E66006E616E00C895CC959F
:0A55D4001092393210923832089517
:0A55DE000E94792608F481E0089588
:0A55E8000E94792608F48FEF089561
:0A55F20060E070E00E942C040895B0
:0855FC000E94F71D0C94982990
:085604000E94D21E0C949829AB
:08560C0021E00E9486100895C0
:0856140020E00E9486100895B9
:07561C00286E756C6C29007B
:065624009FEF80EC0895E9
:06562A000E942C0408950B
:06563000286E696C2900E0
:045636000C940000D0
:04563A000E94730057
:02563E000895CD
:025640000895CB
:025642000895C9
:00000001FF
