:100000000C9451000C9463340C9463340C941A22B5
:100010000C9463340C9463340C9463340C94633404
:100020000C9463340C9463340C9463340C946334F4
:100030000C9463340C9463340C9463340C946334E4
:100040000C9463340C9463340C9463340C946334D4
:100050000C9463340C9463340C9463340C946334C4
:100060000C9463340C9463340C9463340C946334B4
:100070000C9463340C9463340C9463340C946334A4
:100080000C9463340C9463340C9463340C94633494
:100090003000323480323432380068D83238324658
:1000A000800011241FBECFEFCDBFDFE3DEBFE0E94C
:1000B000F0E040E017C0B591A591359125910591EB
:1000C00007FD0CC095918591EF01F92FE82F059060
:1000D0000D92A217B307D9F7FE0104C01D92A21713
:1000E000B307E1F7E13AF40731F70E9477250C9462
:0600F0005D33F894FFCF20
:1000F600A1E9B1E0E1E8F0E00C94BE317C015A01DF
:10010600C257DE4F68837983CE58D140C457DE4F3D
:1001160018821982CC58D140612C712C6E012EE7C1
:10012600C21A2EEFD20A8EE891E08C0F9D1F02971D
:10013600C057DE4F88839983C059D140C257DE4FDE
:10014600E881F981CE58D1408081882309F481C3A2
:100156008AE0D6011D928A95E9F782E091E08C0F3C
:100166009D1FF60186839783A0E8B0E0A087B1873C
:10017600BE0162577E4FC7010E949C2E8C01C2575A
:10018600DE4FE881F981CE58D1408081811113C0BC
:10019600C457DE4F88819981CC58D140080F191F6A
:1001A600C457DE4F08831983CC58D14080818532ED
:1001B60009F038C33FC0853259F3C7010E94122B9C
:1001C6004C010196A1F0C257DE4FE881F981CE5865
:1001D600D1408081082E000C990B8816990639F0BB
:1001E600B701C4010E94BD308EEF9FEF26C3C457EE
:1001F600DE4F88819981CC58D1400196C457DE4F95
:1002060088839983CC58D140C257DE4F8881998123
:10021600CE58D1400196C257DE4F88839983CE5877
:10022600D140BE0162577E4FC7010E949C2E080F27
:10023600191FA5CFCF010196C257DE4F8883998338
:10024600CE58D140D60114961D921C9215978181E5
:100256008A3251F43296C257DE4FE883F983CE587C
:10026600D14001E010E002C000E010E0C257DE4FCE
:1002760088819981CE58D1400E940A2DF601848347
:100286009583C257DE4FE881F981CE58D1408081EF
:10029600082E000C990BC0970A9740F43196C25766
:1002A600DE4FE883F983CE58D140EBCFCE0182579B
:1002B6009E4F0E943E30582EC257DE4FE881F9818C
:1002C600CE58D1408081082E000C990B0E94F8333D
:1002D600883691052CF5853691050CF0EEC08136F1
:1002E600910509F4EAC04CF48532910509F465C11B
:1002F6008B35910509F48DC188C28336910509F4C1
:1003060001C18436910509F080C29E0124573E4FF3
:10031600A601BE016F5F7F4FC7010E94452F24C013
:100326008037910509F472C0A4F48E36910509F45C
:1003360094C0F4F58936910509F067C29E012457E9
:100346003E4FA601BE016F5F7F4FC7010E94081A8C
:100356000BC08537910509F188379105A1F18337DF
:10036600910509F052C200C197FD67C2C257DE4F20
:1003760088819981CE58D1400196C257DE4F888335
:100386009983CE58D1400115110509F03FC1652D5D
:1003960070E0950141E050E05BC09E0124573E4F5E
:1003A600A601BE016F5F7F4FC7010E946B2F15C06C
:1003B6009E0124573E4FA601BE016F5F7F4FC701C6
:1003C6000E9490270AC09E0124573E4FA601BE01F7
:1003D6006F5F7F4FC7010E94D82097FD2EC2C2577C
:1003E600DE4F88819981CE58D1400196C257DE4FA3
:1003F60088839983CE58D1400115110509F006C1AD
:10040600652D70E0950140E050E022C09E01245722
:100416003E4FA601BE016F5F7F4FC7010E94D820E5
:1004260097FD0BC2C257DE4F88819981CE58D140C5
:100436000196C257DE4F88839983CE58D140011565
:10044600110509F0E3C0950140E050E060EF70E06F
:10045600CE0101960E947F21F0C1C257DE4F8881EE
:100466009981CE58D1400196C257DE4F8883998331
:10047600CE58D140C357DE4F9881CD58D140C4578E
:10048600DE4F2881CC58D140892F880F880B2983CD
:100496009A838B838C838D838E838F8388870115C4
:1004A600110509F0B3C0652D70E0950140E050E0FC
:1004B600CE0101960E947F21A9C09E0124573E4F7E
:1004C600A601BE016F5F7F4FC7010E944F1297FDC5
:1004D600B4C1C257DE4F88819981CE58D14001966A
:1004E600C257DE4F88839983CE58D1400115110536
:1004F60009F08CC0652D70E0A501CE0101960E9421
:100506007B2D9BC1F0E85F1280C1D60114968D91B8
:100516009C911597892B31F481E090E014968D9388
:100526009C931597C257DE4F88819981CE58D1404A
:100536000196C257DE4F88839983CE58D140012B4E
:1005460059F4D501ED91FC911197CF0102968D9347
:100556009C930081118102C000E010E09E012457A7
:100566003E4F40E050E024C0B0E85B124EC1C25797
:10057600DE4F88819981CE58D1400196C257DE4F11
:1005860088839983CE58D140012B59F4D501ED913A
:10059600FC911197CF0102968D939C930081118156
:1005A60002C000E010E09E0124573E4F41E050E0BB
:1005B600B601C7010E94CA2840C1B0E85B1225C136
:1005C600C257DE4F88819981CE58D1400196C257D5
:1005D600DE4F88839983CE58D140C7010E94122BE3
:1005E6008532910581F4C457DE4F88819981CC58B4
:1005F600D1400196C457DE4F88839983CC58D140A9
:1006060081E090E01AC1B7010E94BD3080E090E021
:1006160014C1E0E85E12F9C0012B59F4D501ED9141
:10062600FC911197CF0102968D939C9300811181C5
:1006360002C000E010E0C257DE4FE881F981CE58D3
:10064600D140CF010196C257DE4F88839983CE5899
:10065600D14081818E3551F43296C257DE4FE88300
:10066600F983CE58D1409924939401C0912C41E04E
:1006760051E0692D70E0CE0101960E949B331982EC
:10068600C257DE4FE881F981CE58D14080818D3244
:1006960069F43196C257DE4FE883F983CE58D140CC
:1006A60081E089198FA741E049192AC08D35D9F70C
:1006B6003196C257DE4FE883F983CE58D14081E0A8
:1006C6008919A0968FAFA097EECF882309F44DC065
:1006D6008D3201F1C257DE4FE881F981CE58D14003
:1006E6008191A2E0B0E0AC0FBD1FA80FB11D87FD40
:1006F600BA954C93C257DE4FE883F983CE58D14062
:10070600C257DE4FE881F981CE58D14080818D35C0
:10071600E1F62BC0C057DE4FA881B981C059D14040
:100726008C918823B9F28D35A9F2CF010196C25773
:10073600DE4F88839983CE58D1408D919C91DC0100
:100746008C91082E000C990B2181022E000C330B84
:10075600821793070CF0BECF0196A1E0B0E0AC0F74
:10076600BD1FA80FB91F4C93EFCF0115110511F14D
:1007760018012101401A510AC7010E94122B4C018F
:10078600E2E0F0E0EC0FFD1FE80FF91F80818823FF
:1007960071F1F10181921F01C457DE4F8881998161
:1007A600CC58D1400196C457DE4F88839983CC58E4
:1007B600D140DFCFC7010E94122B4C01E2E0F0E0EE
:1007C600EC0FFD1FE80FF91F8081882371F0C457D5
:1007D600DE4F88819981CC58D1400196C457DE4FAF
:1007E60088839983CC58D140E5CF412C512CB70151
:1007F600C4010E94BD304114510439F001151105A0
:1008060021F0F801E40DF51D1082C257DE4F8881F4
:100816009981CE58D1400196C257DE4F888399837D
:10082600CE58D14081E090E0FFEF8F169F0611F081
:1008360080E090E091958195910997FD03C0680E3F
:10084600791E7CCC8F3F2FEF920719F46114710447
:0E08560009F0C301CF56DE4FE2E10C94D7311A
:10086400A8E0B0E0E8E3F4E00C94BE31FB0130977B
:1008740011F0808391839C012F833887D9018C9157
:100884002F5F3F4F082E000C990B80329105A1F386
:10089400AC01495051094530510570F38D32910531
:1008A40029F42F8338875524539405C08B9711F46A
:1008B4002F833887512C80E0282F082E000C330B0F
:1008C400AF81B885A20FB31F9C91992371F0D90110
:1008D400A85AB9454C91941302C08F5FEDCFD9014A
:1008E400AF59B9452C919217C1F3833010F430E01D
:1008F40017C0309709F43AC3883009F083E02F8198
:100904003885280F311D87FD3A95208331832EC306
:10091400AC0146595945DA014C9124130EC03F5F8E
:10092400832F032E000C990B6F817885680F791F34
:10093400DB012C912111ECCF06C082599945DC01D1
:100944008C91281761F3333011F0412C1BC0309780
:1009540009F413C3283299F420E0822F022E000CEC
:10096400990B8B01080F191FD8013C91332339F0DF
:10097400393211F02F5FF1CF0196680F791F608330
:100984007183FBC2242D042C000C330B29833A837E
:10099400D9014F815885A40FB51F8C91803311F470
:1009A4004394F0CF3F01442019F08F7D883541F006
:1009B40060E070E0CB01E12CF12C00E010E0ABC171
:1009C40009811A810F5F1F4F8F819885080F191FA6
:1009D400D8018C91082E000C990B0E948832892B27
:1009E40029F4F80180818E3209F02AC1222423944B
:1009F400240CEF81F885E20DF11D27FCFA95808126
:100A0400803311F42394F5CF812C912C5401E12CE3
:100A1400F12C00E010E0322C3E0C232D032C000CB2
:100A2400330B2B833C8369014F815885C40ED51E3B
:100A3400D6018C91982F9F7D903509F49AC08E32FF
:100A440039F4B52DB0615B2EDD24D394D30C3CC0B6
:100A5400082E000C990B0E948832892B09F4E9C0F6
:100A6400F6014081842F042E000C990B9C01205325
:100A740031092A30310518F480ED840F03C00E9437
:100A8400A4338753F8E0EF16F10494F490E0A0E067
:100A9400B0E02CE130E0201B310B04C0880F991F1B
:100AA400AA1FBB1F2A95D2F7882A992AAA2ABB2AE9
:100AB4002FEFE21AF20A0C5F1F4FADCFE114F104DD
:100AC40089F404501109D3942D2C0D2C000C3308F7
:100AD4004F815885420D531D4D835E83DA018C91FD
:100AE400803361F3082E000C990B0E948832892B05
:100AF40089F1AD81BE814C91842F042E000C990B99
:100B04009C01205331092A30310518F480ED840FFB
:100B140003C00E94A4338753B8E0EB16F104B4F485
:100B240090E0A0E0B0E027E030E02E193F09220F6A
:100B3400331F220F331F04C0880F991FAA1FBB1F26
:100B44002A95D2F7882A992AAA2ABB2AEFEFEE1A05
:100B5400FE0AB9CF8B819C8101962816390651F47F
:100B640089819A8101962B813C812817390711F4D8
:100B740063C0D32CEF81F885ED0DF11DD7FCFA95F8
:100B8400EF83F88780818F7D803509F054C081819F
:100B94008B3229F08D3229F4F52DF8605F2E82E036
:100BA40001C081E0EF81F885E80FF11D8081082EF6
:100BB400000C990BC097412C0A9708F03DC0DF0147
:100BC400A40DB11D47FCBA958C91803311F4439464
:100BD400F6CF80E090E06AE0DF01A40DB11D47FC90
:100BE400BA952C91022E000C330BA90140535109E4
:100BF4004A30510570F4442031F0AC01649FC001C7
:100C0400659F900D112420533109820F931F439443
:100C1400E3CF411004C060E070E0CB01C4C153FED7
:100C240003C0919581959109080F191FEF83F887E7
:100C340003C0432C01C0412C6114710449F411C058
:100C44006114710441F3812C912C540100E010E0F3
:100C5400EF81F885E40DF11D47FCFA95D301ED937E
:100C6400FC9381149104A104B104A9F2F0E8F815ED
:100C740020F42FEF921AA20AB20AB7FC07C0880C1C
:100C8400991CAA1CBB1C01501109F7CF03383FEF74
:100C940013079CF402384FEF140761F08114910498
:100CA400A104B10439F00F5F1F4FB694A794979431
:100CB4008794F0CF01E81FEF0BC0015011090038F1
:100CC40011050CF46BC1812C912C540100E810E047
:100CD40001581F4F012E000C220B330BF7E1000FBC
:100CE400111F221F331FFA95D1F7A9E0B694A794D8
:100CF40097948794AA95D1F7802A912AA22AB32A95
:100D040042C1EE3289F4B52DB0615B2EEF81F885D6
:100D14003196EF83F8873F812885AF81B885EC91C0
:100D2400F52DF07154FEEDCF4E2F0E2E000C550B09
:100D3400405351094A30510518F5252D2260522E91
:100D440039E0E316F104B9F0FF2311F00150110961
:100D54004FEFE41AF40AAAE0B0E09B01AC010E9450
:100D64007333E053DC01CB018E0F911DA11DB11D26
:100D7400BC01CD01CBCFF111C9CF0F5F1F4FC6CF3F
:100D8400EF7DE53409F04EC0EF81F88521812D32E5
:100D940031F4F52DF8605F2EEF81F88506C0EF8100
:100DA400F8852B3211F0319601C03296E983FA832B
:100DB40049815A814F5F5F4FA981BA812C912033B9
:100DC40019F449835A83F4CFE12CF12C40E0AAE0D2
:100DD40039812A81E981FA815191E983FA83E52FE6
:100DE400052E000CFF0BF0973A9768F44330A1F0FE
:100DF400AE9D9001AF9D300D112450537901E50E45
:100E0400F11C4F5FE5CF411107C0E32FF22F429150
:100E1400403311F03E2F2F2F53FE06C0F194E1947E
:100E2400F10802C0E12CF12C6114710431F051FE7F
:100E340004C0D3013C9311962C930E94E42B4B01E4
:100E44005C0120E030E0A9010E943734882309F4D2
:100E5400E2CEC8018E0D9F1DB52DB170B98397FFE9
:100E640041C09195819591098A309105DCF06AE041
:100E740070E00E944C32182F9B83660F771F660F19
:100E8400771FFB01E85CFC4520813181428153815D
:100E9400C501B4010E9446344B015C01812F9B8142
:100EA400009789F0880F991F880F991FFC01EC5E49
:100EB400FC452081318142815381C501B4010E94E6
:100EC40046344B015C0120E030E040E850E0C501CD
:100ED400B4010E94373487FF56C0E981EE2309F438
:100EE40058C03FC0009709F44EC08A309105DCF029
:100EF4006AE070E00E944C32182F9B83660F771FC4
:100F0400660F771FFB01E85CFC452081318142813B
:100F14005381C501B4010E944A344B015C01812F05
:100F24009B81009789F0880F991F880F991FFC01F6
:100F3400EC5EFC452081318142815381C501B401BD
:100F44000E944A344B015C012FEF3FEF4FE75FE70C
:100F5400C501B4010E943C341816ACF4F981FF2396
:100F6400C1F060E070E080E890E81DC0812C912C15
:100F740020E8A22E2FE7B22E06C0812C912C90ECF3
:100F8400A92E9FE7B92EC501B40150FE0CC090589C
:100F94000AC060E070E080E890E005C0880C991C0D
:0E0FA400AA1CBB1C95CE2896E2E10C94D73116
:100FB200A6E2B0E0EFEDF7E00C94BE318F8F98A37C
:100FC2006E8B7F8B288FFB010190F081E02DE987EA
:100FD200FA87FB0102811381248135812A8B3B8BA5
:100FE2008085918589A39AA326803780FA01808023
:100FF2009180A280B38020E030E0A901C501B40154
:101002000E94373487FF06C0B7FAB094B7F8B0949D
:101012008DE204C0598552FF47C38BE2F101808300
:101022002A893B89215031092B833C8341E050E0DE
:10103200488B598B06C08A899B898B839C83188A2B
:10104200198AD501C401BF770097E0E8AE07EFE740
:10105200BE0799F4F88D2F2FFF0F330B215431095E
:1010620088899989820D931D2A31310518F460ED22
:1010720077EA19C064ED77EA16C00197A048BF4726
:10108200A8F0488D242F440F330B2154310988894D
:101092009989820D931D2A31310518F468ED77EA9A
:1010A20002C06CED77EA0E94F033EDC220E030E03E
:1010B200A901C501B4010E943734C12CD12C20E80A
:1010C200E22E2FE3F22E19821A82882309F48CC0B1
:1010D2008D829E82AF82B88620E030E040E251E409
:1010E200C701B6010E944A342B013C01D501C4015B
:1010F20084199509A609B709B7FF07C0B095A0954D
:10110200909581959F4FAF4FBF4F0297A105B105B3
:1011120044F489819A81019689839A8373016201D9
:10112200DBCFA5019401C301B2010E94373487FDD0
:10113200F0CF8D819E81AF81B8858C199D09AE0952
:10114200BF090196A11DB11D0397A105B10508F4C0
:1011520049C01D821E82A5019401C701B6010E94E9
:101162003C3418160CF040C0E981FA81E43DFE4F90
:10117200E4F44D815E81452BC1F420E030E040E88B
:101182005AE5C501B4010E944A344B015C0120E0DA
:1011920030E040E85AE5C701B6010E944A346B01CB
:1011A2007C0181E090E08D839E8320E030E040E28C
:1011B20051E4C701B6010E9446346B017C01E9810A
:1011C200FA813197E983FA83D501C4018C199D090B
:1011D200AE09BF090196A11DB11D0397A105B10575
:1011E20008F0B9CF46015701288D022E000C330BAF
:1011F200288F398FC9010E94F8338A8F17FD03C0E7
:101202000D831E8304C046E050E04D835E835A8DF9
:10121200573641F4012B09F04CC281E090E08D83F6
:101222009E8347C24A8D4F8706C029813A8137FF84
:1012320052C256E65F878D819E8101968D839E8381
:101242009F859636B9F4E981FA81F7FF08C0C12C6F
:10125200D12C90E8E92E9FE3F92E19821A82FA8D99
:10126200F73641F02D813E8149815A81240F351F85
:101272002D833E831C2DDDA2EBA20F2D8B869C8637
:10128200AD86BE861C8A1D8A8C899D89ED81FE8170
:101292008E179F07DCF5212F3DA14BA1502F6B85A7
:1012A2007C858D859E850E9446340E9425242B01D3
:1012B2003C010E940F346B8FA3019201612F7DA12B
:1012C2008BA1902F0E944A342B853C854D855E85EB
:1012D2000E9408349B01AC0150582B873C874D87F4
:1012E2005E8720E030E040E251E4612F7DA18BA1D6
:1012F200902F0E944634162F7DA38BA3092F4C8971
:101302005D894F5F5F4F4C8B5D8BBECF20E030E03D
:1013120040EA50E4612F7DA18BA1902F0E944A34B4
:101322002B013C019B01AC016B857C858D859E85E3
:101332000E94373487FD0DC0A30192016B857C8525
:101342008D859E850E943734811106C0FB8DF0FD8C
:1013520003C0412C512C3201A5019401C301B201F9
:101362000E9409344B015C0120E030E040E251E48C
:10137200C701B6010E944A346B877C8B182F092F54
:101382009B01482F592FC501B4010E943C3487FDAF
:1013920014C029813A812F5F3F4F29833A833F85C9
:1013A200363679F44D815E814F5F5F4F4D835E83A8
:1013B2005B855DA38C898EA30BC0CB86DC8A1E2D38
:1013C2000F2D9F85953639F0EB85EDA3FC89FEA3A1
:1013D200E980FA8006C02B852DA33C893EA3E12C2F
:1013E200F12C48885988C12CD12C1C8A1D8A1B8655
:1013F2001C8649855A85407155274BA35CA32B85D2
:101402003C854D815E812417350734F08C899D8996
:10141200892B09F494C09FC03201EE89FF8980852F
:10142200918505974816590688F72DA13EA1412FAF
:10143200502FC501B4010E9446340E9425246B8FAF
:101442007C8F8D8F9E8F0E940F346A30710514F04D
:1014520069E070E08BA19CA1892B69F4611571058B
:1014620051F49A8D973639F4F7FE05C03601EFEF45
:101472006E1A7E0A38C02C893D89232B99F4F7FE17
:1014820011C03FEF431A530AF101E60DF71D4EE278
:1014920040838B819C8101978B839C83E1E0F0E008
:1014A200EC8BFD8BF101E40DF51D36016114710425
:1014B20031F020E3219331E0631A7108F7CFC601BE
:1014C200840D951D2B813C812C193D092C014FEF78
:1014D200441A540AF101E80FF91F605D6083C901E3
:1014E20001978B839C832B8D3C8D4D8D5E8D6DA1E1
:1014F2007EA1812F902F0E944A34A50194010E945F
:1015020008344B015C01B7FAB094B7F8B09420E00C
:1015120030E040E251E46DA17EA1812F902F0E9424
:1015220046346DA37EA3182F092F91E0E91AF10822
:10153200EB85FC853196EB87FC87630160CFF985EB
:10154200F4FF09C0F101E40DF51D8EE280839201E2
:101552002F5F3F4F2901A101440D551D4D835E832D
:10156200FA011082FF85F53609F061C0E9A1FAA1FE
:10157200E20DF31D3197108229813A8137FF08C0AD
:1015820031952195310929833A8301E010E002C0A7
:1015920000E010E0E9A1FAA13197E20DF31D22E08B
:1015A20030E08AE0E82EF12CCF01821993094981BB
:1015B2005A81452B91F089819A81B7010E944C3260
:1015C200805D829369837A83215031094B815C81EA
:1015D200415051094B835C83E7CF121613065CF32B
:1015E200FC013197E20DF31D012B11F42BE201C036
:1015F2002DE220830297B101680F791F288D398D62
:10160200215431092A31310510F025E601C025E4C3
:10161200FB0120832B813C81225031092B833C83A7
:101622004816590624F48D819E810E94F033398533
:1016320031FF29C030FD27C04B815C81141615068D
:1016420014F5C1010E940333820D931D9C012219DE
:10165200330948895989241735074CF0FC01208148
:10166200EB81FC81E80FF91F20830197EFCF4B81BB
:101672005C8160E370E088899989820D931D0E94E4
:101682009B331A8A1B8AC1010E94033309851A857A
:101692002A893B89AC01B1018F8D98A10E94D12C7E
:1016A200A696E2E10C94D731598553FFC4CC80E26F
:1016B200B5CC89819A818C3F9F4F54F0E981FA81A0
:1016C2002D813E81E217F3070CF4AFCD35E604C05D
:0C16D200F5E6FF87CFCD36E63F87CCCD94
:1016DE00A0E2B0E0E5E7FBE00C94BE31888F998F75
:1016EE00FB01298320812F8331813A8F828193815F
:1016FE00888B998B248135812C873D8780859185B8
:10170E008B8F9C8F66807780FA01C080D180E280BB
:10171E00F38020E030E0A901C701B6010E94373402
:10172E0087FF06C0F7FAF094F7F8F0948DE204C044
:10173E005F8152FFE1C28BE2F30180832C853D85F0
:10174E00215031092E873F8741E050E04D835E8363
:10175E0006C08C859D858E879F871D821E82B70150
:10176E00A6017F77E9810E2E000CFF0BEA87FB871F
:10177E0041155105F0E86F07FFE77F07A9F42A85A9
:10178E003B85215431098D819E81860D971D2A310D
:10179E00310518F460E078EA02C064E078EA0E944D
:1017AE00F03384E098EA98C28D819E81860D971D54
:1017BE004130510560487F4788F02A853B8521548A
:1017CE0031092A31310518F468E078EA02C06CE07C
:1017DE0078EA0E94F0338CE098EA7EC220E3FC01A6
:1017EE002083ED81FE813196E60DF71D2D813E8120
:1017FE002E5F3F4F2D833E834A855B8541545109B1
:10180E004E8B5F8B4A31510510F088E701C088E599
:10181E00808320E030E0A901C701B6010E94373471
:10182E001B821C821F8E1982882309F469C050E81E
:10183E0058A38FE38A832F8D398148A15A816F8DEA
:10184E00798188A19A810E9409345B018C01A701DC
:10185E0096010E943C3418160CF447C0EB81FC81B3
:10186E003196EB83FC83AF8EB98208A31A83E3CF44
:10187E0020E030E040E05FE36F8D798188A19A81AE
:10188E000E944A3420E030E0A9010E9437348111D1
:10189E0018C020E030E040E85AE56F8D798188A1CC
:1018AE009A810E944A346F8F798388A39A8320E0AD
:1018BE0030E040E85AE5C701B6010E944A346B0198
:1018CE007C0120E030E040E05FE36F8D798188A1FC
:1018DE009A810E944A346F8F798388A39A832B81D1
:1018EE003C81215031092B833C832F8D398148A1B6
:1018FE005A81C701B6010E94373487FDB9CF04C0A3
:10190E0030E838A34FE34A838889998997FF02C04C
:10191E0088E190E0FC013196E887F9878F8C9980F9
:10192E00A8A0BA8016018701412C512C9401A50163
:10193E00B101C8010E9446340E9425246A8B7B8B1C
:10194E008C8B9D8B9401A5010E944A349B01AC01A6
:10195E00B101C8010E9408341B018C0120E030E067
:10196E0040E85DE3B401C5010E944A344B015C01BD
:10197E00FFEF4F1A5F0A2889398937FF09C020E027
:10198E0030E0A901B101C8010E943734882331F03B
:10199E0048855985441655064CF202C0488659862C
:1019AE0020E030E040E051E4B401C5010E944A3429
:1019BE004B015C019B01AC01B101C8010E9437349F
:1019CE0087FD12C0A5019401B101C8010E943734F0
:1019DE0081110DC06A897B898C899D890E940F3483
:1019EE0061707727672B19F4812C912C5401A50176
:1019FE009401C701B6010E9409346B017C01DC0120
:101A0E00CB01BF770097A048BF4709F4B8CE2E840C
:101A1E003F8482E0281A3108E885F985F195E19531
:101A2E00F109EA8BFB8B0D811E81412C512C1E86F8
:101A3E001F86188619862B8D3C8D255031092D8FCA
:101A4E003E8F0A871B87ED8DFE8D0E171F0708F040
:101A5E0093C02F8D398148A15A81C701B6010E94CA
:101A6E0046340E9425244B015C010E940F34AB01C9
:101A7E006115710541F4E885F985EF2B21F0FFEF33
:101A8E004F1A5F0A4FC02E853F85232B99F4E885A8
:101A9E00F985EF2B79F00F5F1F4FEA85FB85E60D79
:101AAE00F71D2EE2208331E0231A3108E1E0F0E049
:101ABE00EE87FF87F301E00FF11F9201211531052B
:101ACE0029F0A0E3A19321503109F8CFF801E40DDC
:101ADE00F51DEA87FB87241835084A3051051CF49A
:101AEE00605D7F4F02C0695A7F4F2E893F892A3130
:101AFE00310550F4CB018062815691094A9720F44A
:101B0E00CB010E94A433BC010A851B850F5F1F4FBA
:101B1E00EA85FB85E60DF71D608331E0231A310857
:101B2E00412C512C2F8D398148A15A81C501B40108
:101B3E000E944A349B01AC01C701B6010E940834D1
:101B4E006B017C0120E030E040E85DE36F8D798130
:101B5E0088A19A810E944A346F8F798388A39A83D1
:101B6E004885598541505109488759878A899B89EB
:101B7E008417950709F065CF2E853F85232B49F5F0
:101B8E00F301E00FF11F41145104E1F04889598926
:101B9E0014161506BCF45F8150FD14C08EE28083CE
:101BAE00F8013196E60DF71DC20120E3219301974E
:101BBE00E9F7040D151D0F5F1F4F40945094240C30
:101BCE00351C07C08F8184FF04C08EE280830F5FB7
:101BDE001F4FF301E00FF11FE887F9871082EB8D9D
:101BEE00FC8D3197E60DF71D10822B813C8137FF5E
:101BFE0009C03195219531092B833C83EE24E39462
:101C0E00F12C02C0E12CF12C21E030E08AE0C82E4C
:101C1E00D12CCF01861997094B815C81452B79F028
:101C2E008B819C81B6010E944C32805D82936B83C6
:101C3E007C832150310941E0241A3108EACF21304A
:101C4E00310571F3FC013197E60DF71DE114F10436
:101C5E0011F42BE201C02DE220830297B301680F2D
:101C6E00791FEE89FF897A9710F020E701C020E5F1
:101C7E00FB0120830817190724F4888599850E9493
:101C8E00F033FF81F1FF27C0F0FD25C022E0221ABC
:101C9E00310812141304FCF4C3010E940333860DA1
:101CAE00971D9C01261937094D815E812417350732
:101CBE003CF0FC012081E20DF31D20830197F1CF52
:101CCE00A10160E370E08D819E81860D971D0E94BB
:101CDE009B331C861D86C3010E9403330F811A8D10
:101CEE002C853D85AC01B301888D998D0E94D12C38
:101CFE00A096E2E10C94D7315F8153FF2ACD80E2AA
:021D0E001BCDEB
:101D1000A2E1B0E0EEE8FEE00C94C1314C016B01B1
:101D200019821A828FEF9FEF8B839C831D821E8204
:101D30004F83588729873A87A12CB12CD6016D9003
:101D40007C90F301EA0DFB1D808181110FC0D6014B
:101D5000ED93FC938081853209F0D9C13F01BFEF3B
:101D60006B1A7B0AF6016082718219C0853279F3A1
:101D7000B401082E000C990B0E94C62A4FEFA41A3A
:101D8000B40ADCCF8C32ACF08D32F9F489819A81BF
:101D9000816089839A833196D601ED93FC93D601B5
:101DA000ED91FC9180818B3269F789819A81846001
:101DB000F0CF803221F489819A818860EACF833222
:101DC00051F489819A818061E4CF803321F4898143
:101DD0009A818260DECFB701C6010E94432E8D83B7
:101DE0009E8397FF0BC029813A81B1E02B2729837D
:101DF0003A839195819591098D839E8389819A81FA
:101E000080FF03C08D7F89839A83D601ED91FC9179
:101E1000119780818E3249F43196ED93FC93B7018E
:101E2000C6010E94432E8B839C83C6010E943E30D4
:101E3000582ED601ED91FC918081082E000C990B53
:101E40000E94F833893609F443C084F4833609F4D8
:101E500008C134F4853209F42DC18136E1F036C170
:101E60008436B1F188360CF4DFC030C1803709F414
:101E70009AC03CF48E3609F4C2C08F3609F461C0B2
:101E800025C1853709F440C0883709F476C0833707
:101E900009F01CC1F9C0652D70E0A701CE010B96B9
:101EA0000E945E30892B09F42CC1D601ED91FC9182
:101EB0001197CF0101968D939C932081AE01455FD0
:101EC0005F4FBE016F5F7F4FC4010E946F0B16C151
:101ED000652D70E0970141E050E0CE010B960E9425
:101EE000711D892B09F40DC1F60180819181019644
:101EF00080839183AE01455F5F4FBE016F5F7F4F6F
:101F0000C4010E94B21CFAC0652D70E0970140E048
:101F100050E0CE010B960E94711D892B09F4F1C08F
:101F2000D6018D919C91119701968D939C93AE0152
:101F3000455F5F4FBE016F5F7F4FC4010E94302934
:101F4000DDC0652D70E0970140E050E0CE010B96BA
:101F50000E94711D892B09F4D4C0F6018081918102
:101F6000019680839183AE01455F5F4FBE016F5F35
:101F70007F4FC4010E94FA27C1C0652D70E0970110
:101F800040E050E0CE010B960E94711D892B09F4B0
:101F9000B8C0D601ED91FC911197CF0101968D93B8
:101FA0009C93208122C0D701ED91FC911197CF0124
:101FB00002968D939C93008111810B871C871D864F
:101FC0001E861F86188A198A1A8AF60180819181D5
:101FD0000196808391838B859C85892B29F420E051
:101FE00030E040EC58EA84C028E7AE01455F5F4F1F
:101FF000BE016F5F7F4FC4010E9496167FC0A5018E
:10200000400F511F652D70E09701CE010B960E9485
:10201000E525892B09F475C0D6018D919C91119706
:1020200001968D939C9373C0652D70E0A701CE013E
:102030000B960E945E30892B09F463C0D601ED91A6
:10204000FC911197CF0101968D939C932081AE0155
:10205000455F5F4FBE016F5F7F4FC4010E94D9078C
:102060004DC0B0E85B124DC0F601808191810196B0
:1020700080839183D701ED91FC911197CF01029656
:102080008D939C93808120C0B0E85B123AC0F6012A
:1020900080819181019680839183D701ED91FC919C
:1020A0001197CF0102968D939C934081518120E03E
:1020B00030E01EC0B0E85B1224C0F60120813181FF
:1020C0002F5F3F4F208331838B870DC085E28B8745
:1020D000D6016D927C9219821A821D821E828FEF28
:1020E0009FEF8B839C8321E030E0AE01455F5F4F23
:1020F000BE016F5F7F4FC4010E941B2F8A0D9B1D85
:1021000007C0F60180819181019680839183C5018A
:082110006296EFE00C94DA3155
:10211800ABE1B0E0E2E9F0E10C94BE318C839D8341
:102128006C877D8749835A832E8B453251051CF471
:102138004130510539F486E190E080930030909366
:10214800013079C12C813D812115310509F473C114
:10215800F9011081112309F46EC11901103239F007
:10216800812F012E000C990B0997059730F43FEF4A
:10217800231A330AF1011081F1CF1D3249F4F1011C
:10218800118191012F5F3F4F190131E03A8709C052
:102198001B3231F4F101118191012F5F3F4F190179
:1021A8001A86103309F044C0C10101968F8B988FAD
:1021B800F101118189819A818F7E892BD9F5812F2F
:1021C8008F7D883561F51281812F8062082E000C81
:1021D800990B81569109812E012E000C99084A9776
:1021E80030F0C4010E949C32892B39F038C1C401F7
:1021F8000E94A43387538031A4F32F89388D2C8310
:102208003D838C859D85892B09F01AC1612C712C21
:10221800812C912C198E1F8A412C512C33C1E981B4
:10222800FA81EF2B09F426C12F88388C01E00DC004
:1022380000E003C02F88388C01E029813A81232BE4
:1022480021F48AE090E089839A839E89992399F002
:10225800EA85E1111FC0FFEFFE872FEF2F873FEFC1
:10226800388B8FEF898B9FEF9A8BEFEFEB8BFC8B83
:102278002FE72D8B18C03FEF3E878FEF8F879FEF9B
:10228800988BEFEFE98BFFEFFA8B2FEF2B8B3C8BC3
:102298008D8B09C01E861F86188A198A1A8A1B8A7E
:1022A8001C8A90E89D8B1B86612C712C812C912CAB
:1022B800198E1F8A412C512CEA81EE0FEE0BEE830A
:1022C800212F2062022E000C330B21563109812F59
:1022D800012E000C990B2A31310528F40E94A433F1
:1022E80087538B8306C0C0970A9708F089C010539C
:1022F8001B83FB818F2FFF0F990B29813A8182174E
:1023080093070CF07DC03B8531115DC0530164011A
:10231800E98CFF88820129813A814E81542F642FEC
:10232800742F842F942F0E942A2A59016A017B0155
:102338008C019B81990F990B2B81392F492F592F8C
:10234800692F792F892F0E94B6332B833F83B42FAF
:10235800A52F6A8F7B8F888799879301A401698D40
:102368007F89C201AB80BF80CB2EDA2EEA8CFB8C32
:10237800088519850E94BF3309F070F48E89882377
:1023880071F12E853F85488959896A897B898C89AD
:102398009D890E94BF3318F5E2E2F0E0E093003037
:1023A800F0930130FE85FB832F852F83B889A98997
:1023B8003A893A8F8B898B8F9C899887ED89E98731
:1023C800F1E0FB870CC06B827F82B82DA92D298D87
:1023D8002A8F3F893B8F4886598681E08B879FEFFC
:1023E800291A390AF101108101E06B807F808B2E58
:1023F8009A2EFA8DF98FEB8DEF8B4884598460CF34
:10240800FB85F1110FC02A85222361F09301A401F5
:10241800698D7F89C2010E94E43239014A01698FBE
:102428007F8B2C018C859D85892B61F1002381F0A0
:102438002C823D820DC02C853D85232B09F4E6CEE8
:10244800612C712C812C912C198E1F8A412C512CB6
:102458002C813D81EC85FD852083318313C091015A
:102468002E5F3F4F2F8B388F00E080E190E089830B
:102478009A8305C001E0E8E0F0E0E983FA832F8859
:10248800388CE3CE9301A401698D7F89C2016B96D4
:06249800E2E10C94D731D3
:10249E00A0E1B0E0E5E5F2E10C94BE312C016F87CE
:1024AE00788BFA01390104811581A084B1842681CB
:1024BE00378129873A870E94D92FF30120813181F4
:1024CE00820F931F80839183C5010197011511051A
:1024DE0009F48C015C01081719070CF45801E98402
:1024EE00FA84F1E0EF1AF10821E030E02F8338870B
:1024FE00212C312C1D821E82C12CD12C812C912C91
:10250E001B861C862D863E862A143B040CF036C193
:10251E00C2010E94122B8C018F3F3FEF930739F4BB
:10252E00121413040CF42AC18FEF9FEF4EC1C11485
:10253E00D104D1F48B32910511F08D97A9F42114A9
:10254E00310431F08214930419F0B201C80119C09C
:10255E00F7010183F301808191810196808391833C
:10256E00CC24C394D12CFDC02B853C85232BD1F4D8
:10257E000E321105B9F48114910431F0B2018EE2DC
:10258E0090E00E94BD30FAC02EE2F7012183F301E4
:10259E008081918101968083918321E030E02B87A9
:1025AE003C87DFC08114910451F58D819E81892B6A
:1025BE0039F0C8010E94F83380379105A1F406C0A6
:1025CE00C8010E94F8338536910569F4F70101833D
:1025DE00F30180819181019680839183C12CD12C4E
:1025EE008F809884BEC0C60101962816390639F42C
:1025FE00C8010E94F8338837910509F4D5C08D8142
:10260E009E81892B31F0C8010E948832892B31F0CE
:10261E00A0C0C801C0970A9708F49BC0B201C801B8
:10262E000E94BD302C143D0409F0A8C0EAE6F8EA79
:10263E0080819181A281B38189839A83AB83BC838C
:10264E00F1013296ED83FE83EA15FB051CF080E066
:10265E0090E06FC029853A85220D331D2F83388770
:10266E00C12CD12CAA24AA94BA2C7101EC0CFD1CFD
:10267E004701C2010E94122B8C01019609F457C02A
:10268E008FEFA816B80671F4C8010E94F8338C01BA
:10269E008936910501F18E36910579F5AA24A39418
:1026AE00B12C1BC0C8010E94F833F501EE0FFF1FBD
:1026BE0021E030E02C0F3D1FE20FF31F0190F0815F
:1026CE00E02DEC0DFD1D2081022E000C330B821728
:1026DE00930719F012C0A12CB12CEF81F88501934C
:1026EE00EF83F887FFEFCF1ADF0A23E0C216D1047B
:1026FE0009F0BBCF83E090E01CC08D819E818E15CA
:10270E009F05C4F3E985FA85EE0EFF1EF1E08F1AE0
:10271E009108821493040CF49ACFF70182917F01F1
:10272E00B201082E000C990B0E94BD30EFCF8FEF37
:10273E009FEF1816190614F59101280F391F2D87D2
:10274E003E87F30120813181820F931F8083918315
:10275E0015C0F7010183F301808191810196808379
:10276E009183FFEF2F1A3F0A2F8138852F5F3F4F3E
:10277E002F8338873FEFE31AF30AC4CEE985FA8533
:10278E008D859E85E80FF91F108260E070E08985C7
:10279E009A850E945D34EF85F88960837183828308
:1027AE00938380E090E011C0F7018081803309F0BF
:1027BE0026CF0183F30180819181019680839183DD
:1027CE0021E030E02D833E83CCCF6096E2E10C9485
:0227DE00D731F1
:1027E0004F925F926F927F928F929F92AF92BF9221
:1027F000CF92DF92EF92FF921F93CF93DF936B0103
:102800007C01DC01CB018827B7FD83959927AA2796
:10281000BB27182F46015701E894B7F8811491049B
:1028200080E8A8068CE4B806A0F091E0891691042F
:1028300090E8A9069FE7B90608F020C120E030E043
:1028400040E853E06AED7FE089EC9FE30E940934A1
:1028500011C181149104E0EEAE06EEE3BE0658F419
:1028600081149104F0E8AF06F9E3BF0608F406C14D
:10287000CFEFDFEF89C0C701B6010E9465346B015D
:102880007C018114910488E9A8068FE3B80608F05A
:1028900045C08114910490E3A9069FE3B90608F5A9
:1028A000A7019601C701B6010E94093420E030E07B
:1028B00040E85FE30E9408344B015C0120E030E017
:1028C00040E050E4C701B6010E9409349B01AC010D
:1028D000C501B4010E9446346B017C01C0E0D0E028
:1028E00053C020E030E040E85FE3C701B6010E943A
:1028F00008344B015C0120E030E040E85FE3C701B1
:10290000B6010E9409349B01AC01C501B4010E94CB
:1029100046346B017C01C1E0D0E036C081149104E3
:10292000ECE1AE06E0E4BE0618F520E030E040EC55
:102930005FE3C701B6010E9408344B015C0120E04F
:1029400030E040EC5FE3C701B6010E944A3420E06A
:1029500030E040E85FE30E9409349B01AC01C5010F
:10296000B4010E9446346B017C01C2E0D0E00CC08F
:10297000A701960160E070E080E89FEB0E9446347A
:102980006B017C01C3E0D0E0A7019601C701B6014D
:102990000E944A342B013C019B01AC010E944A3445
:1029A0004B015C0125E23CEA4CE75DE30E944A34BE
:1029B0002DE035EF41E15EE30E940934A501940169
:1029C0000E944A3429EA3AEA4AEA5EE30E9409345C
:1029D000A30192010E944A342B013C0127E432E119
:1029E0004AED5DEBC501B4010E944A3428E93AEC96
:1029F0004CE45EE30E940834A50194010E944A342D
:102A00009B01AC01CF3FFFEFDF0779F4C301B201B7
:102A10000E940934A70196010E944A349B01AC012F
:102A2000C701B6010E9408342BC0CC0FDD1FCC0FAC
:102A3000DD1FCE01805498455C01C301B2010E94A4
:102A40000934A70196010E944A34C055D84528810F
:102A500039814A815B810E940834A70196010E9456
:102A600008349B01AC01F501608171818281938101
:102A70000E940834112321F0905802C0C701B6010A
:102A8000DF91CF911F91FF90EF90DF90CF90BF909B
:102A9000AF909F908F907F906F905F904F90089530
:102AA000ACE0B0E0E6E5F5E10C94C03149015A0133
:102AB00069017A015F772D833E834F8358872130E8
:102AC000310540485F4760F49B01AC015F7729877F
:102AD0003A874B875C872130310540485F4738F0A3
:102AE0009B01AC01C501B4010E9409341BC18114D2
:102AF0009104B0E8AB06BFE3BB0619F40E94F013E3
:102B000011C1750164012EE1F694E794D794C7943E
:102B10002A95D1F7970186010270112722273327C2
:102B20002B013C01442477FC4394552466247724EC
:102B300073016201C02AD12AE22AF32A29853A8543
:102B40004B855C85232B242B252B79F432E0C3168F
:102B5000D104E104F10409F4D3C043E0C416D10464
:102B6000E104F10409F0DEC066C04D805E806F8034
:102B70007884411451046104710409F475C02D81F5
:102B80003E814F8158852115310540485F4709F046
:102B900057C049845A846B847C844114510420E8D2
:102BA00062062FE7720671F532E0C316D104E10424
:102BB000F10491F043E0C416D104E104F10489F07A
:102BC00051E0C516D104E104F10409F09EC06BED9B
:102BD0007FE089E49FEBA6C020E030E040E450E4D1
:102BE00004C020E030E040E450EC6BED7FE089E48D
:102BF00090E40E944A3420E030E040E85EE30E9426
:102C00004A3490C082E0C816D104E104F10409F40A
:102C100077C093E0C916D104E104F10461F0A1E0AA
:102C2000CA16D104E104F10409F074C060E070E058
:102C300080E090E877C06BED7FE089E490EC72C0B3
:102C40004D805E806F807884B3EF7B1A29853A854A
:102C50004B855C85421653066406750628F02115DF
:102C6000310540485F4739F4C0FE58C06BED7FE046
:102C700089EC9FEB57C0C1FE0EC009851A852B85D4
:102C80003C85335F4D805E806F8078840415150528
:102C90002605370548F0A50194010E9446340E949C
:102CA00065340E94F01303C060E070E0CB0121E0C6
:102CB000C216D104E104F104A1F0A0F142E0C4166F
:102CC000D104E104F10479F42EE23DEB4BEB53E344
:102CD0000E9409349B01AC016BED7FE089E490E434
:102CE0000CC090581FC02EE23DEB4BEB53E30E940B
:102CF00009342BED3FE049E450E40E94083412C04F
:102D00006BED7FE089E490E40DC06BED7FE089E43A
:102D10009FE308C060E070E0CB0104C06BED7FE092
:0C2D200089EC9FE32C96E0E10C94D93183
:102D2C00A4E1B0E0ECE9F6E10C94BE318F83988716
:102D3C0069837A834B8B5C8B122FDB011296ED919E
:102D4C00FC91139714962D913C9115972D833E83EE
:102D5C00CD90DC90119716962D903C901797F7FD1F
:102D6C0003C0E894C1F802C0E1E0F0E0C601807154
:102D7C00992789879A87C4FE1FC0AB89BC892C917F
:102D8C0011963C91119712964C91129713965C9157
:102D9C00139714966C91149715967C91159716961B
:102DAC008C91169717969C91A0E00E94513321F0BC
:102DBC008D819E81029702C08D819E819601287023
:102DCC0033272B873C87C3FC0197AB89BC894C907C
:102DDC0011965C90119712966C90129713967C90AA
:102DEC00139714968C90149715969C90159716968D
:102DFC00AC9016971796BC90A981BA811896ED9055
:102E0C00FC901997B1E0EB1AF108D101AE0DBF1D82
:102E1C001C928B839C839F01281B390B2D873E872B
:102E2C00C601827099278F87988B812F012E000CF9
:102E3C00990BDC01A154B109A98BBA8B32E0E316D2
:102E4C00F10430F489859A85892B09F04CC073C044
:102E5C009201A301B401C501A0E00E94513381F19C
:102E6C00B1E0EB1AF108C2018F7099278A309105F5
:102E7C0014F4C09602C0895A9F4FE989FA897A974F
:102E8C0048F49C012062215631092A31310510F495
:102E9C000E94A433F101EE0DFF1D80832B813C8138
:102EAC00215031092B833C839201A301B401C5014C
:102EBC0004E00E94FD3029013A014B015C01BECFB8
:102ECC008D859E85AB81BC818A0F9B1F18161906B8
:102EDC003CF21A161B060CF0B5CFEF85F889EF2BD8
:102EEC0009F0BECFAFCFAB89BC892C9111963C9128
:102EFC00119712964C91129713965C911397149606
:102F0C006C91149715967C91159716968C91169733
:102F1C0017969C91A0E00E94513369F0F101EE0DDF
:102F2C00FF1D31971083B2E0EB1AF108F101EE0DA1
:102F3C00FF1D80E38083EB85FC85EF2B41F0F1E0F6
:102F4C00EF1AF108F101EE0DFF1D80E28083A981DB
:102F5C00BA8118964D915C911997415051094E19AF
:102F6C005F09B1016E0D7F1D86012D813E818F8120
:102F7C0098850E94D12C9C01EF81F88580819181EC
:102F8C0090FF09C0A981BA8112968D919C911397DB
:102F9C00821793070CF4C9016496E2E10C94D731C3
:102FAC00496E76616C69642074696D6520666F7218
:102FBC006D617400496E76616C69642074696D652D
:102FCC002076616C75657300253264253264256644
:102FDC0000253032643A253032643A252E336600AF
:102FEC002D2D2D2D2D2D2D2D2D2D2D2D2D2D2D2D05
:102FFC002D2D2D2D2D2D2D2D2D2D2D2D2D2D2D2DF5
:10300C002D2D2D2D2D2D2D2D2D2D2D2D2D2D0D0A27
:10301C00002D2D2D2D2D2D2D2D2D2D2D2D2D4465B2
:10302C007374696E6174696F6E204C6F636174693F
:10303C006F6E2D2D2D2D2D2D2D2D2D2D2D2D2D0D51
:10304C000A00252E38662C20252E38660D0A002DF8
:10305C002D2D2D2D2D2D2D2D2D2D2D2D2D2D2D2D94
:10306C002D2D2D2D2D2D2D2D2D2D2D2D2D2D2D2D84
:10307C002D2D2D2D2D2D2D2D2D2D2D2D2D2D0D0AB7
:10308C00002D2D2D2D2D2D2D2D2D2D2D44697374B1
:10309C00616E63652046726F6D2044657374696E52
:1030AC006174696F6E2D2D2D2D2D2D2D2D2D2D2D0A
:1030BC000D0A00252E3866206D0D0A00596F7527F4
:1030CC0072652067657474696E6720636C6F7365D5
:1030DC007220746F20796F75722064657374696ED9
:1030EC006174696F6E2E0D0A00596F752772652019
:1030FC006D6F76696E6720617761792066726F6D8E
:10310C00207468652064657374696E6174696F6E90
:10311C002E0D0A002D2D2D2D2D2D2D2D2D2D2D2D42
:10312C002D2D2D2D2D2D2D2D5354415455532D2DED
:10313C002D2D2D2D2D2D2D2D2D2D2D2D2D2D2D2DB3
:10314C002D2D2D0D0A00596F752068617665206153
:10315C0072726976656420617420796F757220646F
:10316C00657374696E6174696F6E210D0A004E6F20
:10317C0074207965742061742074686520646573AB
:10318C0074696E6174696F6E2E204B656570206773
:10319C006F696E672E0D0A000D0A003D3D3D3D3DE9
:1031AC003D3D3D3D3D3D3D3D3D3D3D3D3D3D3D3D43
:1031BC003D3D3D3D3D3D3D3D3D3D3D3D3D3D3D3D33
:1031CC003D3D3D3D3D3D3D3D3D3D3D3D3D3D0D0A86
:1031DC000024474E474741002C0054696D653A2046
:1031EC0025730D0A004C617469747564653A202569
:1031FC002E36662025630D0A004C6F6E6769747558
:10320C0064653A20252E36662025630D0A00474E4C
:06321C00474741000A00D3
:10322200AF92BF92CF92DF92EF92FF920F931F93D2
:10323200CF93DF930F2EF6E8AF2EF7E7BF2EFAEB10
:10324200CF2EF2ECDF2EF02D11E3E12E16EEF12E51
:1032520003E312E40E94FB1A062F172FD82FC92F5F
:103262008CEE9FE60E949E308DE190E70E949E3098
:103272008CEE9FE60E949E3082EC8F938AEB8F93B6
:1032820087E78F9386E88F9382E48F9383E38F930C
:1032920086EE8F9381E38F938EE490E79F938F93D3
:1032A2000E94432D8BE590E70E949E308DE890E7C7
:1032B2000E949E308BE590E70E949E30CF93DF9371
:1032C2001F930F938FEB90E79F938F930E94432D51
:1032D200809144322DB73EB7205F3F4F2DBF3EBF96
:1032E20085FD41C0C0903432D0903532E090363204
:1032F200F090373220E030E0A901C701B6010E9408
:103302003C341816CCF4A7019601602F712F8D2F33
:103312009C2F0E9437348823C4F480914432806801
:1033220080934432809144328F7B8093443288EC84
:1033320090E70E949E3017C020E030E0A901C7014B
:10334200B6010E943C34181674F4809144328064B1
:1033520080934432809144328F778093443285EF58
:1033620090E70E949E308BE590E70E949E3080E2BB
:1033720091E70E949E308BE590E70E949E3020E00C
:1033820030E048EC51E4602F712F8D2F9C2F0E946A
:1033920037341816A4F0809144328062809344320C
:1033A200809144328F7B80934432809144328F7774
:1033B2008093443282E591E70E949E3009C08AE7F9
:1033C20091E70E949E30809144328F7D80934432F7
:1033D200802F912FAD2FBC2F8093343290933532B2
:1033E200A0933632B093373284EA91E70E949E303E
:1033F20087EA91E70E949E30DF91CF911F910F9152
:0E340200FF90EF90DF90CF90BF90AF900895B5
:10341000A8E0B0E0EEE0FAE10C94BE314C016F831D
:103420007887FA0159018481958189839A83E084A0
:10343000F18446805780C4010E94D92FF501208174
:103440003181820F931F8083918389819A81892B97
:1034500021F4F7013197E983FA834AE0C42ED12C95
:10346000612C712C00E010E0C70101978D839E83D1
:1034700089819A81081719070CF097C0ED81FE81A8
:103480000E171F070CF091C0C4010E94122B7C0183
:103490009FEFE916F90639F4101611060CF485C0F1
:1034A0008FEF9FEFA4C001151105B1F4EBE2EE160A
:1034B000F10421F0FDE2EF16F10471F4F201E08273
:1034C000F5018081918101968083918366246394C4
:1034D000712C01E010E0CCCFC201800F911F8B83D3
:1034E0009C8306151705C1F538019FEF691A790A03
:1034F000EAE0CE16D10441F4F0E3EF16F10451F501
:1035000028E0C22ED12C28C088E0C816D10411F5BD
:10351000C701806288379105E9F4C4010E94122B2B
:103520001C01B4010E94BD30C1010E948832892B68
:1035300071F0EB81FC81E0828301F5018081918152
:1035400001968083918390E1C92ED12C91CFB40153
:10355000C10111C0612C712CC701C0970A9770F08E
:10356000F0E1CF16D10429F4C7010E948832892BDB
:1035700081F4B401C7010E94BD3017C088E0C816AD
:10358000D10439F498E3E916F1041CF08AE0C82E5E
:10359000D12CEB81FC81E0820F5F1F4FF501808110
:1035A000918101968083918363CFF201E00FF11F37
:1035B0001082FAE0CF16D10441F44AE050E060E016
:1035C00070E0C2010E944E3406C0A60160E070E0C7
:1035D000C2010E945234EF81F885208331834283F7
:1035E0005383648375838683978380E090E0289675
:0635F000E2E10C94D7316A
:1035F6004F925F926F927F928F929F92AF92BF92FD
:10360600CF92DF92EF92FF920F931F93CF93DF93A8
:10361600CDB7DEB72C97CDBFDEBF29873A874B875C
:103626005C87E982FA820B831C832BED3FE049E439
:1036360050E40E944A3420E030E044E353E40E9420
:1036460046342B013C012BED3FE049E450E4C80130
:10365600B7010E944A3420E030E044E353E40E947C
:1036660046346D837E838F839887A30192010E94DF
:10367600083420E030E040E05FE30E944A340E94D4
:10368600312069837A838B839C83C301B2010E94B4
:10369600D81E2B013C016D817E818F8198850E9409
:1036A600D81E6D837E838F8398872BED3FE049E498
:1036B60050E4C601B5010E944A3420E030E044E3FC
:1036C60053E40E9446344B015C012BED3FE049E494
:1036D60050E469857A858B859C850E944A3420E072
:1036E60030E044E353E40E9446349B01AC01C5013B
:1036F600B4010E94083420E030E040E05FE30E941D
:103706004A340E9431204B015C012D813E814F815C
:103716005885C301B2010E944A34A50194010E9452
:103726004A34A50194010E944A344B015C01298167
:103736003A814B815C81CA01B9010E944A349B01DE
:10374600AC01C501B4010E9409346B017C01A701DB
:10375600960160E070E080E89FE30E9408340E94D2
:10376600DC1B4B015C01C701B6010E94DC1BA501F5
:1037760094010E9450159B01AC010E94093420E778
:103786003DE642EC5AE40E944A342C96CDBFDEBF99
:10379600DF91CF911F910F91FF90EF90DF90CF9027
:1037A600BF90AF909F908F907F906F905F904F905B
:0237B600089574
:1037B800A4E0B0E0E2EEFBE10C94C0318B019C0187
:1037C800AC0140785F776B017C0140385F4761F45A
:1037D800E894E7F8FF24C114D104E104F10409F0E6
:1037E800ACC097FDAAC0AEC0E894F7F8C114D104E4
:1037F800E104F10409F4A6C097FF07C081E290E054
:10380800809300309093013098C0DC01CB0167E1D0
:10381800B595A795979587956A95D1F70097A105CE
:10382800B105B9F480E090E0DC0127FD08C0000F85
:10383800111F221F331F0196A11DB11DF6CF01973D
:10384800A109B109B095A095909581959F4FAF4F6B
:10385800BF4F8F579109A109B1092F7733272068E6
:1038680080FF04C0000F111F221F331FAC01BD01D0
:10387800759567955795479549835A836B837C83DC
:10388800000F111F221F331F49E150E0812C912C9A
:103898005401B394C12CD12C760180E090E0DC0176
:1038A8002C013D01480C591C6A1C7B1C041515058C
:1038B8002605370574F0D301C201880D991DAA1D8C
:1038C800BB1D0419150926093709C80CD91CEA1C9F
:1038D800FB1C000F111F221F331FB694A794979447
:1038E800879441505109E1F601151105210531056B
:1038F80051F0970186010170112722273327C00E46
:10390800D11EE21EF31EF594E794D794C79451ECA8
:10391800F51A89819A81AB81BC8127E1880F991FAB
:10392800AA1FBB1F2A95D1F78C0D9D1DAE1DBF1D6B
:10393800482F392F2A2F5B2F09C040E030E020ECB8
:103948005FE704C0462F372F282F592F642F732F76
:0C395800822F952F2496E0E10C94D931C9
:10396400ADE0B0E0E8EBFCE10C94BE3189879A87C6
:103974006B837C83FA01DB011296CD90DC90139764
:1039840014968D919C9115978D839E83ED90FC9058
:103994001197E982FA8216960D90BC91A02DAF83FF
:1039A400B88720803180428053806480758086800F
:1039B40097808101B42DF52DE62D7B868C869D861E
:1039C4009101A201B301C401A0E00E9451334CF45F
:1039D4000E94E4328901B42FF52FE62F7B878C8770
:1039E4009D87D7FC04C0E894E1F8E982FA8291014A
:1039F400A201B301C401A0E0ED80FE800E94513316
:103A04001CF0898182FF04C081E0E81AF10805C036
:103A140083FF03C091E0E91AF108CE0101965C012D
:103A24008AE0C82ED12C2B2F3F2F4E2F5B856C851F
:103A34007D858B819C810E94851FFC019101A201DF
:103A4400B301C401A0E00E9451331CF0898182FFBC
:103A540012C031970F8118850E0F1F1F9101A2010B
:103A6400B301C401A0E00E94513314F08BE201C001
:103A74008DE2D80108C083FF07C03197AF81B885B4
:103A8400AE0FBF1F80E28C9309811A81AB81BC8188
:103A940018964D915C911997415051094E1B5F0B3B
:103AA4006F8178856E0F7F1F2D813E8189859A8570
:103AB4000E94D12C9C01E985FA858081918190FF37
:103AC40009C0AB81BC8112968D919C91139782178A
:0E3AD40093070CF4C9012D96E2E10C94D73152
:103AE2000F931F93CF93DF93FC01D90168387105BF
:103AF20031F194F461387105B1F12CF4603871053B
:103B020009F478C09FC06238710509F459C064385D
:103B1200710509F46FC096C0603A710509F448C096
:103B22002CF46039710509F44BC08CC0603C7105FE
:103B320009F476C0603F710509F472C083C0CD916B
:103B4200DC911197CE0102968D939C93452B39F00F
:103B52009881892F880F880B908381835BC088812D
:103B62008083118268C0CD91DC911197CE010496B9
:103B72008D939C93452B99F088819981AA81BB8171
:103B8200AC01BD01770F440B542FBA01808391839E
:103B9200A283B383448345834683478328C0088135
:103BA20019812A813B81008311832283338345C09B
:103BB200CD91DC911197CE0102968D939C9323C0F7
:103BC200CD91DC911197CE0108968D939C937881CB
:103BD20069815A814B813C812D819E818F817083C5
:103BE200618352834383348325839683878381E071
:103BF20090E02AC0CD91DC911197CE0102968D936F
:103C02009C93452BA1F099812881892F880F880BDD
:103C12002083918382838383848385838683E6CF13
:103C2200CD91DC911197CE0102968D939C930881E0
:103C320019810083118312821382148215821682E3
:103C42001782D5CF80E090E0DF91CF911F910F9145
:023C52000895D3
:103C54004F925F926F927F928F929F92AF92BF9298
:103C6400CF92DF92EF92FF920F931F93CF93DF9344
:103C7400CDB7DEB7C456D109CDBFDEBF8C0146E057
:103C840050E06DED71E70E94DC30892B09F079C0BA
:103C940044E650E0B801CE0101960E94A431A596F5
:103CA4001FAEA59764EE71E7CE0101960E94A52B85
:103CB40064EE71E780E090E00E94A52B8C0164EE35
:103CC40071E780E090E00E94A52B5C0164EE71E74F
:103CD40080E090E00E94A52B7C0164EE71E780E017
:103CE40090E00E94A52B4C0164EE71E780E090E027
:103CF4000E94A52B6C01F7016081C5010E947A2AFC
:103D0400662E772EB82EA92EF6016081C4010E947A
:103D14007A2A462E572E882E992E762F272F352D28
:103D2400482D592D662D772D8B2D9A2D0E94111912
:103D3400C8010E94B2229F938F9386EE91E79F93CE
:103D44008F930E94432DF70180811F928F93AF922E
:103D5400BF927F926F9281EF91E79F938F930E941E
:103D6400432DF60180811F928F939F928F925F92D1
:103D74004F9285E092E79F938F930E94432DCDBF8E
:103D8400DEBFCC59DF4FCDBFDEBFDF91CF911F9196
:103D94000F91FF90EF90DF90CF90BF90AF909F90E6
:0C3DA4008F907F906F905F904F9008957B
:103DB000A4E0B0E0EEEDFEE10C94C8318B019C0173
:103DC0003F770B3D4FE0140749E424074FE33407E6
:103DD00048F40115110540E8240749E3340708F4C5
:103DE00087C071C06B017C01CC24F7FCC394DD2437
:103DF000EE24FF24023D43E514074BE7240740E48B
:103E0000340720F5043E4BEC140746E1240740E458
:103E1000340760F02BED3FE049E450E4CC2019F08A
:103E20000E94093453C00E94083450C0CC2039F09D
:103E30002BED3FE049EC5FE30E94093456C09B0143
:103E4000AC016BED7FE089EC9FE322C0063D41E3CE
:103E5000140742EE240740E43407E8F4003E4DEE38
:103E600014074FEA240740E4340760F02BED3FE0ED
:103E700049EC50E4CC2019F00E94093424C00E947F
:103E8000083421C0C110905824EE3BEC46E950E4C0
:103E90000E9408342AC00115110540E824074FE7A5
:103EA000340758F5AE014F5F5F4F0E949824282FCA
:103EB000237069817A818B819C81213059F018F0BF
:103EC000223021F00EC00E94AF231BC00E94AF23FE
:103ED000905817C0DC01CB01B05889839A83AB831B
:103EE000BC8369817A818B819C810E94372309C0C0
:103EF00060E070E080E89FE304C06FEF7FEF8FEF3A
:0A3F00009FE72496E8E00C94E131FD
:103F0A00A2E1B0E0EBE8FFE10C94BE31FC010A8BC0
:103F1A00912E822E732E642E552E462E7D83CC86AC
:103F2A00DA86A886B986268137812E833F83D50112
:103F3A008D919C91228133810084F185E02D319706
:103F4A0037FF02C021E030E04E815F81E40FF51FA8
:103F5A001082EB83FC831701A1E0B0E0A983BA8346
:103F6A00F901EE19FF09ED87FE879C0122703327BC
:103F7A002F87388B3A85330F330B398BEB81FC81D2
:103F8A002E813F81E21BF30B4B815C814217530761
:103F9A0009F44FC02A89392D482D572D662D752DC4
:103FAA00842D9D81A0E00E94513399F14C854B8765
:103FBA00A42EBA84C988DC2CEC2CFC2C0C2D1C2DCC
:103FCA002A89392D482D572D662D752D842D9D81D1
:103FDA000E941133C90129839A83805DAB81BC8118
:103FEA008E93AB83BC83B1E02B1A31082A89392D11
:103FFA00482D572D662D752D842D9D810E941333D2
:10400A002A8B932E842E752E662E572E482E9D832C
:10401A00B5CF8D859E85820D931D1816190634F22B
:10402A001214130444F48F859889892B09F0BECFA2
:10403A0002C0E0E0F0E0A981BA81AB2B41F4A88587
:10404A00B9858D919C9111978F7E8D939C93CF0109
:08405A006296E2E10C94D731FB
:10406200A4E0B0E0E7E3F0E20C94C8318B019C01DC
:104072003F770B3D4FE0140749E424074FE3340731
:1040820048F40115110540E8240749E3340708F410
:104092008AC07BC06B017C01CC24F7FCC394DD2475
:1040A200EE24FF24023D43E514074BE7240740E4D6
:1040B200340708F5043E4BEC140746E1240740E4BC
:1040C200340760F42BED3FE049EC5FE3CC2019F0BC
:1040D2000E94093460C00E9408345AC02BED3FE0B0
:1040E20049E450E4CC2019F00E94093402C00E9435
:1040F200083490584AC0063D41E3140742EE2407B3
:1041020040E4340700F5003E4DEE14074FEA240761
:1041120040E4340760F424EE3BEC46E950E4CC2062
:1041220019F00E94093434C00E94083434C02BEDC7
:104132003FE049EC50E4CC2019F00E94093425C03C
:104142000E94083422C00115110540E824074FE7F8
:10415200340728F5AE014F5F5F4F0E949824282F45
:10416200237069817A818B819C81213089F048F0AA
:10417200223089F4DC01CB01B05889839A83AB8366
:10418200BC8369817A818B819C810E9437230BC019
:104192000E94AF2308C00E94AF23905804C06FEF63
:0E41A2007FEF8FEF9FE72496E8E00C94E13169
:1041B000A4E0B0E0EEEDF0E20C94BE317C016B8344
:1041C0007C83FA01590144805580C084D184668083
:1041D00077800E94D92FF50120813181820F931FB2
:1041E000808391834114510421F42601F1E04F1A98
:1041F0005108130100E010E0C601019789839A83FA
:10420000041515050CF042C089819A810817190719
:10421000ECF5C7010E94122B6C019FEFC916D9065D
:1042200031F41016110694F18FEF9FEF64C0C601B0
:104230000E948832892BF1F401301105B1F4C601D6
:104240000E94F8338837910581F4F301808180332F
:1042500061F4C7010E94122B4C01B7010E94BD30CE
:10426000C4010E948832892B29F4B701C6010E943B
:10427000BD300CC0F101C1921F010F5F1F4FF5014E
:1042800080819181019680839183BACFD301A00F61
:10429000B11F1C92033011053CF4EB81FC811082AC
:1042A00011821282138221C0F301329600E010E0E5
:1042B0009801819190ED980F9A3018F0806299EAF8
:1042C000980F84E0000F111F221F331F8A95D1F72A
:1042D000090F111D211D311DAE17BF0751F7EB81CD
:1042E000FC8100831183228333831482158216821A
:0E42F000178280E090E02496E2E10C94D73132
:1042FE00CF93DF93FC01D9016838710521F18CF45D
:10430E006138710561F12CF46038710509F476C0DD
:10431E0085C062387105B1F16438710509F46EC05B
:10432E007DC0603A710509F469C024F460397105E5
:10433E0049F174C0603C710509F460C0603F7105BD
:10434E0009F45CC06BC0CD91DC911197CE01029641
:10435E008D939C93A881B98180818C935CC0CD9103
:10436E00DC911197CE0102968D939C93A881B98111
:10437E0040815181628173814D935D936D937C93E6
:10438E00139749C0CD91DC911197CE0102968D9372
:10439E009C93452B99F070816181528143813481C8
:1043AE00258196818781E881F981708361835283AB
:1043BE00438334832583968387832DC0A881B98157
:1043CE0070816181528143813481258196818781FB
:1043DE007C9311966C93119712965C931297139689
:1043EE004C93139714963C93149715962C931597FC
:1043FE0016969C93169717968C930DC0CD91DC91C3
:10440E001197CE0102968D939C93A881B9818081DC
:10441E0091818D939C9381E090E002C080E090E0CA
:06442E00DF91CF9108951B
:104434001F920F920FB60F9211242F933F934F9315
:104444005F936F937F938F939F93AF93BF93CF9318
:10445400EF93FF9380913A3290913B32019680938F
:104464003A3290933B328091443280FD0E94B02DC9
:104474008091443282FD0E94E22D8091443283FD7A
:104484000E94C72E8091443284FD0E94F12E8091B7
:10449400443285FD0E945D2B80914432882314F4BC
:1044A4000E94E22D8091443286FD0E94B02D8091BD
:1044B4003A3290913B32029749F410923A32109278
:1044C4003B32809143328F5F8093433280913A3202
:1044D40090913B32069719F481E0809345328091A4
:1044E4004332873048F11092433226C08C2F8F71AB
:1044F40019F480E20E9488330E94B0328A3099F025
:10450400E0913F3291E09E0F90933F32F0E0EF5FF5
:10451400FE4C808390913F3281E09F3F08F480E01D
:10452400890F80933F32CF5FCF3F01F781E08093C3
:1045340042328093430102C0C0E0D8CFFF91EF9193
:10454400CF91BF91AF919F918F917F916F915F9127
:104554004F913F912F910F900FBE0F901F90189580
:10456400AF92BF92CF92DF92EF92FF920F931F937D
:10457400CF93DF93CDB7DEB72897CDBFDEBF9E01C3
:104584002B5F3F4F3F932F93225031093F932F933B
:10459400225031093F932F9324ED3FE63F932F930D
:1045A4009F938F930E941E30CDBFDEBF039709F007
:1045B40040C009811A8108311105F0F5EB80FC80B7
:1045C4003CE3E316F104D8F5DD80CE80BF80A884F7
:1045D40020E030E0A9016D2D7C2D8B2D9A2D0E94B9
:1045E400373488237CF120E030E040E752E46D2D3D
:1045F4007C2D8B2D9A2D0E943C34882334F5AF9268
:10460400BF92CF92DF92FF92EF921F930F938DEDA3
:104614009FE69F938F931F9284E18F9380E292E3AE
:104624009F938F930E947432CDBFDEBF80E292E3EA
:104634000EC08CEA9FE60BC080EC9FE608C080ECBD
:104644009FE605C080EC9FE602C080EC9FE62896BA
:10465400CDBFDEBFDF91CF911F910F91FF90EF90FF
:0A466400DF90CF90BF90AF90089553
:10466E004F925F926F927F928F929F92AF92BF9274
:10467E00CF92DF92EF92FF92CF93DF9300D000D0D4
:10468E00CDB7DEB74B015C019B01AC010E944A34F1
:10469E006B017C019B01AC01C501B4010E944A343F
:1046AE0069837A838B839C832CE33CE646E356E353
:1046BE00C701B6010E944A342FEC37E040E559E3BA
:1046CE000E9408342B013C01A7019601C701B601D7
:1046DE000E944A3429813A814B815C810E944A347E
:1046EE009B01AC01C301B2010E944A342B013C0173
:1046FE0024E838E848E05CE3C701B6010E944A347A
:10470E002BEA3AEA4AE25EE30E94083429813A81B2
:10471E004B815C810E944A34A50194010E940934A8
:10472E009B01AC01C301B2010E9409342496CDBF96
:10473E00DEBFDF91CF91FF90EF90DF90CF90BF90D3
:10474E00AF909F908F907F906F905F904F90089555
:10475E004F925F926F927F928F929F92AF92BF9283
:10476E00CF92DF92EF92FF92CF93DF9300D000D0E3
:10477E00CDB7DEB79B01AC010E944A346B017C01C0
:10478E009B01AC010E944A342B013C0120E030E039
:10479E0040E05FEBC701B6010E944A3420E030E0F2
:1047AE0040E85FE30E9409344B015C012FE93AEACD
:1047BE004AE25DE3C301B2010E944A349B01AC019F
:1047CE00C501B4010E9409344B015C0127E13AE9AD
:1047DE004CEC57E3C701B6010E944A342FE334E094
:1047EE0046EB5AE30E94083469837A838B839C8359
:1047FE00A3019201C701B6010E944A349B01AC018C
:10480E0069817A818B819C810E944A349B01AC0123
:10481E00C501B4010E9409342496CDBFDEBFDF91DD
:10482E00CF91FF90EF90DF90CF90BF90AF909F9081
:0C483E008F907F906F905F904F900895D6
:10484A008F929F92AF92BF92CF92DF92EF92FF9296
:10485A000F931F938B019C0157E136952795179566
:10486A0007955A95D1F71127A8014F575109473192
:10487A0051050CF045C057FD2DC00FEF1FEF2FE774
:10488A0030E004C035952795179507954A95D2F7D4
:10489A004801590186229722A822B92289288A2802
:1048AA008B2871F197FF07C0DC01CB01800F911FA4
:1048BA00A21FB31F02C0DC01CB0100951095209501
:1048CA00309580239123A223B323482F392F2A2FEF
:1048DA005B2F1AC097FF0FC08B019C01000F111F9D
:1048EA00221F331F012B022B032B51F040E030E033
:1048FA0020E85FEB09C040E030E020E050E004C06F
:10490A00462F372F282F592F642F732F822F952F39
:10491A001F910F91FF90EF90DF90CF90BF90AF90D3
:06492A009F908F9008959C
:104930004F925F926F927F928F929F92AF92BF92AF
:10494000CF92DF92EF92FF921F93CF93DF93EA0112
:104950006B017C01CC24F7FCC394DD24EE24FF24FE
:104960001C2D0E9465342B013C0123E839EF42E203
:104970005FE30E944A3420E030E040E05FE30E94C1
:1049800009340E940F346B017C010E94E62B4B011D
:104990005C012AED3FE049EC5FE30E944A349B0151
:1049A000AC01C301B2010E9408342B013C0123EA8F
:1049B00035E848E852E3C501B4010E944A349B013E
:1049C000AC01C301B2010E940834112361F0DC0183
:1049D000CB01B05888839983AA83BB838827992702
:1049E0008C199D0905C0688379838A839B83C601DE
:1049F000DF91CF911F91FF90EF90DF90CF90BF900C
:104A0000AF909F908F907F906F905F904F900895A0
:104A100010C00E941D3458F00E94163440F029F452
:104A20005F3F29F00C942B3451110C9425340C94D5
:104A30005A340E94FC2F68F39923B1F3552391F364
:104A4000951B550BBB27AA2762177307840738F0FD
:104A50009F5F5F4F220F331F441FAA1FA9F335D05A
:104A60000E2E3AF0E0E832D091505040E695001C0E
:104A7000CAF72BD0FE2F29D0660F771F881FBB1FC8
:104A8000261737074807AB07B0E809F0BB0B802DA6
:104A9000BF01FF2793585F4F3AF09E3F510578F0D2
:104AA0000C942B340C9425345F3FE4F3983ED4F3FC
:104AB000869577956795B795F7959F5FC9F7880FA6
:104AC000911D9695879597F90895E1E0660F771FF8
:104AD000881FBB1F621773078407BA0720F0621B89
:0E4AE000730B840BBA0BEE1F88F7E095089558
:104AEE00CF93DF9300D0CDB7DEB70E9437320E944E
:104AFE0092330E947031E0E0F4E080818061808327
:104B0E0080818062808380818064808378940F2E80
:104B1E00F6E0EF2EF12CF02D8091443285FDFCCF86
:104B2E00CE0101960E9487298823C9F189819A8135
:104B3E008436910520F50817190778F48CEF90EA62
:104B4E000E949E30809144328061809344328091E5
:104B5E004432877F8093443220C080179107E8F457
:104B6E008BE191EA0E949E3080914432886080935E
:104B7E004432809144328F7E809344320EC08091B5
:104B8E004432877F80934432809144328F7E80936B
:104B9E0044320E9439331092433209811A81809136
:104BAE003A3290913B32B7010E944C32892B09F078
:0C4BBE00B3CF0E94512610924532AECFBA
:104BCA00CF93DF93DC01F90164387105D9F164F4FC
:104BDA006138710521F16238710509F440C0603805
:104BEA00710509F054C02EC060397105C1F184F411
:104BFA006838710509F04BC0C081D181CE01029697
:104C0A0080839183E881F981ED93FC9340833CC0D2
:104C1A00603A7105B9F0603C7105A1F038C0C081F5
:104C2A00D181CE01029680839183E881F981ED9347
:104C3A00FC93052E000C660B770B4083518362832D
:104C4A00738322C0C081D181CE0102968083918371
:104C5A00E881F981ED93FC934083518315C0C081AB
:104C6A00D181CE01029680839183E881F981ED9307
:104C7A00FC9340835183852F880F880B828383831B
:104C8A00848385838683878381E090E002C080E005
:084C9A0090E0DF91CF91089535
:104CA200FF920F931F93CF93DF9380914232811132
:104CB20048C05BC0E0913E3281E08E0F80933E326D
:104CC200F0E0EF5FFE4C208190913E3281E09F3F09
:104CD20008F480E0890F80933E32243239F4009345
:104CE200383210933932F092023033C04E3F5105C0
:104CF200A0F5FA013196E0933832F0933932DA01B5
:104D0200AE5FBF4C2C932A3011F02D3011F5EE5FBF
:104D1200FF4C10826AE172E782E090E30E94B52FB5
:104D2200892B51F0DF93CF930E94432D82E090E3D1
:104D32000E942A1E0F900F90109238321092393230
:104D420008C0C0E2D2E701E010E00F2EF4E2FF2E2D
:104D5200F02D409138325091393290913E3280910B
:104D62003F329813A7CF10924232DF91CF911F9119
:064D72000F91FF9008956F
:104D78000FC00E94163438F00E941D3420F095238D
:104D880011F00C942B340C945A3411240C942534BF
:104D98000E94FC2F70F3959FC1F3950F50E0551FAB
:104DA800629FF001729FBB27F00DB11D639FAA2778
:104DB800F00DB11DAA1F649F6627B00DA11D661FC7
:104DC800829F2227B00DA11D621F739FB00DA11DE8
:104DD800621F839FA00D611D221F749F3327A00DA2
:104DE800611D231F849F600D211D822F762F6A2F3E
:104DF80011249F5750409AF0F1F088234AF0EE0FA3
:104E0800FF1FBB1F661F771F881F91505040A9F7CF
:104E18009E3F510580F00C942B340C9425345F3F51
:104E2800E4F3983ED4F3869577956795B795F7950B
:104E3800E7959F5FC1F7FE2B880F911D9695879583
:044E480097F9089539
:104E4C00A0E0B0E0ECE2F7E20C94C4315C01FB01B1
:104E5C004A01C480D58000851185E680F7800E94C8
:104E6C00D92FF40120813181820F931F808391838C
:104E7C00C114D10421F46801F1E0CF1AD108C0E0CB
:104E8C00D0E001501109CC15DD05BCF5C017D107D8
:104E9C00A4F5C5010E94122B8F3F2FEF920721F42E
:104EAC001C161D0654F12FC0209789F48B329105E6
:104EBC0019F08D32910559F4F7018083F40180814A
:104ECC009181019680839183C1E0D0E0DCCF9C017D
:104EDC00205331092A30310520F0B5010E94BD3034
:104EEC000CC0F701EC0FFD1F80832196F40180812B
:104EFC009181019680839183C6CFCE0DDF1D1882E0
:104F0C0080E090E002C08FEF9FEFCDB7DEB7ECE012
:044F1C000C94DD31E3
:104F2000A0E0B0E0E6E9F7E20C94C0314C01EB01FF
:104F3000FA017901A480B58060847184C680D7802D
:104F40000E94D92FF70120813181820F931F808326
:104F50009183A114B10421F45301F1E0AF1AB10817
:104F6000260100E010E021E0621A71080A151B0515
:104F700024F5061517050CF5C4010E94122B8F3F6E
:104F8000EFEF9E0721F410161106BCF02CC09C0117
:104F9000205331092830310520F0B4010E94BD3082
:104FA0000CC0F20181932F010F5F1F4FF701808129
:104FB0009181019680839183D9CFF601E00FF11F93
:104FC000108248E050E060E070E0C6010E94523478
:104FD000288339834A835B836C837D838E839F839D
:104FE00080E090E002C08FEF9FEFCDB7DEB7E0E149
:044FF0000C94D93113
:104FF400A2E0B0E0E0E0F8E20C94BE311C014B0109
:10500400FA01DB0112962D913C91139714964D9061
:105014005C9015978D919C91119789839A8316962C
:105024006D907C90179737FD03C08D7F89839A8399
:105034000081118122813381448155816681778188
:10504400FE0131965F0188E0C82ED12C7201C401A3
:105054000E94851F298124FF06C00197F301E80FF0
:10506400F91F20E32083298123FF06C00197F30160
:10507400E80FF91F20E2208309811A81D4011896D0
:105084004D915C91199741505109481B590BB3013B
:10509400680F791F9201C1010E94D12C9C01F1017A
:1050A4008081918190FF08C0D40112968D919C91CA
:1050B4001397821793070CF4C9012296E2E10C942A
:0250C400D731E2
:1050C60011C00E94163438F00E941D3420F039F4C5
:1050D6009F3F19F426F40C945A340EF4E095E7FB3E
:1050E6000C942B34E92F0E94FC2F58F3BA17620751
:1050F60073078407950720F079F4A6F50C942434F9
:105106000EF4E0950B2EBA2FA02D0B01B9019001DC
:105116000C01CA01A0011124FF27591B99F0593F20
:1051260050F4503E68F11A16F040A22F232F342F68
:105136004427585FF3CF469537952795A795F040B6
:105146005395C9F77EF41F16BA0B620B730B840BCB
:10515600BAF09150A1F0FF0FBB1F661F771F881F83
:10516600C2F70EC0BA0F621F731F841F48F48795DB
:1051760077956795B795F7959E3F08F0B0CF9395CD
:0E518600880F08F09927EE0F979587950895EA
:10519400A0E0B0E0E0EDF8E20C94C2316C01EB0168
:1051A4005A017901452B49F00E94D92FF70120813A
:1051B4003181820F931F808391836C807D804801AD
:1051C400C0E0D0E06114710449F5C6010E94122BBD
:1051D4008F3FFFEF9F0731F4209789F101151105E7
:1051E40009F527C0A114B10449F08032910551F1A9
:1051F4009C01295031092530310520F10115110593
:1052040011F0F40180832196F70180819181019648
:1052140080839183FFEF8F1A9F0AD4CFC615D705D9
:10522400A4F2DCCFA114B10421F0F801EC0FFD1FAE
:10523400108281E090E0CD2B61F480E00AC08FEF12
:105244009FEF07C0B6010E94BD300115110589F317
:0C525400ECCFCDB7DEB7EEE00C94DB3100
:10526000A2E0B0E0E6E3F9E20C94BE313C014B0170
:10527000FA01DB0112962D913C91139714964D90F3
:105280005C9015978D919C91119789839A831696BE
:105290002D903C90179737FD03C08D7F89839A83AB
:1052A000008111812281338144815581668177811A
:1052B000FE0131965F018AE0C82ED12C7201C40133
:1052C0000E94851F09811A81D40118964D915C9125
:1052D000199741505109481B590BB101680F791FAB
:1052E0009201C3010E94D12C9C01F3018081918124
:1052F00090FF08C0D40112968D919C91139782174C
:0E53000093070CF4C9012296E2E10C94D73118
:10530E00CF92DF92EF92FF920F931F93CF93DF9383
:10531E00CDB7DEB72997CDBFDEBF7C010E94D0335B
:10532E008983893571F50E94D0338A83893559F581
:10533E008E010D5F1F4F6E018AE0C80ED11C0E94B8
:10534E00D033F80181938F01CE16DF06C1F7FE012F
:10535E0031969E01275F3F4F80E09191890F2E1766
:10536E003F07D9F79985891310C08C8190E0982F4B
:10537E0088272B81820F911DF7018083918381E015
:10538E0005C080E003C080E001C080E02996CDBF5B
:10539E00DEBFDF91CF911F910F91FF90EF90DF90C5
:0453AE00CF900895FF
:1053B20088249924F401E401B0E49F93AA279A1562
:1053C2008B049C04ED05FE05CF05D007A10798F4D8
:1053D200AD2FDC2FCF2FFE2FE92D982C892E982F61
:1053E200872F762F652F542F432F322F2227B85025
:1053F20031F7BF9127C01B2EBF91BB27220F331F4E
:10540200441F551F661F771F881F991F881C991CF0
:10541200EE1FFF1FCC1FDD1FAA1FBB1F8A149B0498
:10542200EC05FD05CE05DF05A007B10748F08A1897
:105432009B08EC09FD09CE09DF09A00BB10B216025
:105442001A94E1F62EF49401AF01BE01CD01000CD5
:025452000895BB
:10545400DF93CF931F930F939A9DF02D219FF00D0F
:105464008B9DF00D8A9DE02DF10D039FF00D029FA1
:10547400E00DF11D4E9DE00DF11D5E9DF00D4F9D63
:10548400F00D7F936F93BF92AF925F934F93D501CB
:105494000E94F4328B01AC01D7010E94F432EB017B
:1054A400E80FF91FD6010E94AD332F913F91D60129
:1054B4000E94F432C60FD71FE81FF91FAF91BF91A6
:1054C4000E94AD332F913F910E94F432C60FD71F33
:1054D400E81FF91FD6010E94F432E60FF71F980166
:1054E400BE01CF0111240F911F91CF91DF91089537
:1054F4008F929F92AF92BF92CF92DF92EF92FF92E0
:10550400CF93C62F0E9441344B015C0120E030E070
:1055140048EC52E40E9446340E940F346B017C0133
:1055240084E68C9DB0018D9D700D1124072E000C16
:10553400880B990B0E94E62B9B01AC01C501B401B9
:105544000E94083420E030E040E752E40E944634F0
:105554004B015C01B601DD0C880B990B0E94E62B14
:105564009B01AC01C501B4010E940934CB7FC33552
:1055740009F49058CF91FF90EF90DF90CF90BF90B7
:08558400AF909F908F900895F5
:10558C000F931F93CF93DF93DB01109719F48FEFD9
:10559C009FEF3DC02D913C91119730FF25C0169681
:1055AC004D915C91179714962D913C91159742173C
:1055BC00530778F41296ED91FC9113978083129611
:1055CC002D913C9113972F5F3F4F12962D933C9347
:1055DC00139716962D913C9117972F5F3F4F169668
:1055EC002D933C93179713C01C96ED91FC911D972E
:1055FC00309769F2EB01092F182F0995892B39F691
:10560C008E819F8101968E839F83812F902FDF91B6
:08561C00CF911F910F91089539
:10562400CF93DF93DC011A968D919C911B97009781
:10563400B9F001971A968D939C931B97FD01E80F7F
:10564400F91F808516962D913C9117972F5F3F4F38
:1056540016962D933C931797082E000C990B28C08F
:105664008D919C91119790FF10C01296ED91FC9131
:1056740013978081082E000C990B0097B9F031968E
:105684001296ED93FC9313970FC01E96ED91FC9127
:105694001F97309759F0ED01CD0109952E813F8177
:1056A4002F5F3F4F2E833F83992702C08FEF9FEFD9
:0656B400DF91CF91089583
:1056BA009091433220913A3230913B3281E09430DA
:1056CA0008F080E0882399F081E02130310509F063
:1056DA0080E0882361F0E0E0F4E0848180618483E3
:1056EA008481806284838481806484830895909114
:1056FA00433220913A3230913B3281E0943008F0C3
:10570A0080E0882399F081E02230310509F080E0B9
:10571A00882361F0E0E0F4E084818F7E84838481D1
:10572A008F7D848384818F7B848308951092433292
:10573A00809144328F7D809344320E943933089598
:10574A000F931F93CF93DF93EC018B01892B31F4D5
:10575A00C0913C32D0913D32209751F1B801CE012F
:10576A000E945331C80FD91F8881811105C0109238
:10577A003C3210923D321DC0B801CE010E94363132
:10578A00FE01E80FF91FE0933C32F0933D3280812D
:10579A00882341F0CF01019680933C3290933D32A9
:1057AA00108204C010923C3210923D32CE0102C0E7
:0E57BA0080E090E0DF91CF911F910F91089554
:1057C800E89409C097FB3EF4909580957095619593
:1057D8007F4F8F4F9F4F9923A9F0F92F96E9BB2749
:1057E8009395F695879577956795B795F111F8CFC5
:1057F800FAF4BB0F11F460FF1BC06F5F7F4F8F4F30
:105808009F4F16C0882311F096E911C0772321F025
:105818009EE8872F762F05C0662371F096E8862FBD
:1058280070E060E02AF09A95660F771F881FDAF714
:0A583800880F9695879597F908955B
:10584200A2E8B0E0E7E2FCE20C94C4315C014A0158
:10585200CF57DF4F68837983C158D040C12CD12CF8
:10586200CF57DF4FE881F981C158D040808188232A
:10587200E9F07401860120E830E0AE014F5F5F4F2E
:10588200BE016F577F4FC5010E94880E8C0D9D1D72
:105892008C159D054CF48FE490E08093003090933A
:1058A20001308FEF9FEF03C06C01DACFC601CE57F4
:0858B200DF4FECE00C94DD3146
:1058BA00A0E1B0E0E3E6FCE20C94CA31FB01BA01D4
:1058CA00AE014F5F5F4F7A0140E1D7011D924A95C1
:1058DA00E9F742E051E049835A838B839C83F7FFBF
:1058EA0009C08FE490E080930030909301308FEFED
:1058FA009FEF14C0A9018C013197ED83FE83C70184
:10590A000E9407324F8158852D813E8142175307E5
:10591A0008F49A01F801E20FF31F10826096E6E09C
:04592A000C94E331C5
:10592E00A0E1B0E0EDE9FCE20C94CA31FB01BA0152
:10593E00AE014F5F5F4F7A0140E1D7011D924A954C
:10594E00E9F742E051E049835A838B839C83F7FF4A
:10595E0009C08FE490E080930030909301308FEF78
:10596E009FEF14C0A9018C013197ED83FE83C7010F
:10597E000E94EF314F8158852D813E81421753078A
:10598E0008F49A01F801E20FF31F10826096E6E028
:04599E000C94E33151
:1059A200A0E0B0E0E7EDFCE20C94C4316C015B01D5
:1059B2007A01E901480181E08822992400FD03C0AF
:1059C2004217530750F0A701B501C6010E941931D1
:1059D200EC16FD0610F0C70117C08E010E191F0943
:1059E2000115110541F0B60180E290E00E94C62A3D
:1059F20001501109F5CF8114910429F4A701B501D1
:105A0200C6010E941931CE01CDB7DEB7ECE00C948D
:025A1200DD3184
:105A1400AC01FA0190814F5F5F4F9032D1F3292F8F
:105A2400092E000C330B295031092530310588F338
:105A34009B3209F540E050E0319602C040E050E06E
:105A440080E090E06AE02191022E000C330B205399
:105A540031092A30310548F4689FD001699FB00D9F
:105A64001124CD01821B930BEECF452B49F4919564
:105A74008195910908959D3209F741E050E0DCCF0A
